{
  "contractName": "Card",
  "abi": [
    {
      "inputs": [],
      "stateMutability": "nonpayable",
      "type": "constructor"
    },
    {
      "anonymous": false,
      "inputs": [
        {
          "indexed": true,
          "internalType": "address",
          "name": "owner",
          "type": "address"
        },
        {
          "indexed": true,
          "internalType": "address",
          "name": "approved",
          "type": "address"
        },
        {
          "indexed": true,
          "internalType": "uint256",
          "name": "tokenId",
          "type": "uint256"
        }
      ],
      "name": "Approval",
      "type": "event"
    },
    {
      "anonymous": false,
      "inputs": [
        {
          "indexed": true,
          "internalType": "address",
          "name": "owner",
          "type": "address"
        },
        {
          "indexed": true,
          "internalType": "address",
          "name": "operator",
          "type": "address"
        },
        {
          "indexed": false,
          "internalType": "bool",
          "name": "approved",
          "type": "bool"
        }
      ],
      "name": "ApprovalForAll",
      "type": "event"
    },
    {
      "anonymous": false,
      "inputs": [
        {
          "indexed": false,
          "internalType": "address",
          "name": "_seller",
          "type": "address"
        },
        {
          "indexed": false,
          "internalType": "address",
          "name": "_buyer",
          "type": "address"
        },
        {
          "indexed": false,
          "internalType": "uint256",
          "name": "_price",
          "type": "uint256"
        }
      ],
      "name": "NftBought",
      "type": "event"
    },
    {
      "anonymous": false,
      "inputs": [
        {
          "indexed": false,
          "internalType": "address",
          "name": "_seller",
          "type": "address"
        },
        {
          "indexed": false,
          "internalType": "address",
          "name": "_buyer",
          "type": "address"
        }
      ],
      "name": "NftSent",
      "type": "event"
    },
    {
      "anonymous": false,
      "inputs": [
        {
          "indexed": true,
          "internalType": "address",
          "name": "previousOwner",
          "type": "address"
        },
        {
          "indexed": true,
          "internalType": "address",
          "name": "newOwner",
          "type": "address"
        }
      ],
      "name": "OwnershipTransferred",
      "type": "event"
    },
    {
      "anonymous": false,
      "inputs": [
        {
          "indexed": true,
          "internalType": "address",
          "name": "from",
          "type": "address"
        },
        {
          "indexed": true,
          "internalType": "address",
          "name": "to",
          "type": "address"
        },
        {
          "indexed": true,
          "internalType": "uint256",
          "name": "tokenId",
          "type": "uint256"
        }
      ],
      "name": "Transfer",
      "type": "event"
    },
    {
      "inputs": [
        {
          "internalType": "address",
          "name": "to",
          "type": "address"
        },
        {
          "internalType": "uint256",
          "name": "tokenId",
          "type": "uint256"
        }
      ],
      "name": "approve",
      "outputs": [],
      "stateMutability": "nonpayable",
      "type": "function"
    },
    {
      "inputs": [
        {
          "internalType": "address",
          "name": "owner",
          "type": "address"
        }
      ],
      "name": "balanceOf",
      "outputs": [
        {
          "internalType": "uint256",
          "name": "",
          "type": "uint256"
        }
      ],
      "stateMutability": "view",
      "type": "function",
      "constant": true
    },
    {
      "inputs": [
        {
          "internalType": "uint256",
          "name": "tokenId",
          "type": "uint256"
        }
      ],
      "name": "getApproved",
      "outputs": [
        {
          "internalType": "address",
          "name": "",
          "type": "address"
        }
      ],
      "stateMutability": "view",
      "type": "function",
      "constant": true
    },
    {
      "inputs": [
        {
          "internalType": "address",
          "name": "owner",
          "type": "address"
        },
        {
          "internalType": "address",
          "name": "operator",
          "type": "address"
        }
      ],
      "name": "isApprovedForAll",
      "outputs": [
        {
          "internalType": "bool",
          "name": "",
          "type": "bool"
        }
      ],
      "stateMutability": "view",
      "type": "function",
      "constant": true
    },
    {
      "inputs": [],
      "name": "name",
      "outputs": [
        {
          "internalType": "string",
          "name": "",
          "type": "string"
        }
      ],
      "stateMutability": "view",
      "type": "function",
      "constant": true
    },
    {
      "inputs": [
        {
          "internalType": "address",
          "name": "",
          "type": "address"
        },
        {
          "internalType": "address",
          "name": "",
          "type": "address"
        },
        {
          "internalType": "uint256",
          "name": "",
          "type": "uint256"
        },
        {
          "internalType": "bytes",
          "name": "",
          "type": "bytes"
        }
      ],
      "name": "onERC721Received",
      "outputs": [
        {
          "internalType": "bytes4",
          "name": "",
          "type": "bytes4"
        }
      ],
      "stateMutability": "nonpayable",
      "type": "function"
    },
    {
      "inputs": [],
      "name": "owner",
      "outputs": [
        {
          "internalType": "address",
          "name": "",
          "type": "address"
        }
      ],
      "stateMutability": "view",
      "type": "function",
      "constant": true
    },
    {
      "inputs": [
        {
          "internalType": "uint256",
          "name": "tokenId",
          "type": "uint256"
        }
      ],
      "name": "ownerOf",
      "outputs": [
        {
          "internalType": "address",
          "name": "",
          "type": "address"
        }
      ],
      "stateMutability": "view",
      "type": "function",
      "constant": true
    },
    {
      "inputs": [],
      "name": "renounceOwnership",
      "outputs": [],
      "stateMutability": "nonpayable",
      "type": "function"
    },
    {
      "inputs": [
        {
          "internalType": "address",
          "name": "from",
          "type": "address"
        },
        {
          "internalType": "address",
          "name": "to",
          "type": "address"
        },
        {
          "internalType": "uint256",
          "name": "tokenId",
          "type": "uint256"
        }
      ],
      "name": "safeTransferFrom",
      "outputs": [],
      "stateMutability": "nonpayable",
      "type": "function"
    },
    {
      "inputs": [
        {
          "internalType": "address",
          "name": "from",
          "type": "address"
        },
        {
          "internalType": "address",
          "name": "to",
          "type": "address"
        },
        {
          "internalType": "uint256",
          "name": "tokenId",
          "type": "uint256"
        },
        {
          "internalType": "bytes",
          "name": "data",
          "type": "bytes"
        }
      ],
      "name": "safeTransferFrom",
      "outputs": [],
      "stateMutability": "nonpayable",
      "type": "function"
    },
    {
      "inputs": [
        {
          "internalType": "address",
          "name": "operator",
          "type": "address"
        },
        {
          "internalType": "bool",
          "name": "approved",
          "type": "bool"
        }
      ],
      "name": "setApprovalForAll",
      "outputs": [],
      "stateMutability": "nonpayable",
      "type": "function"
    },
    {
      "inputs": [
        {
          "internalType": "bytes4",
          "name": "interfaceId",
          "type": "bytes4"
        }
      ],
      "name": "supportsInterface",
      "outputs": [
        {
          "internalType": "bool",
          "name": "",
          "type": "bool"
        }
      ],
      "stateMutability": "view",
      "type": "function",
      "constant": true
    },
    {
      "inputs": [],
      "name": "symbol",
      "outputs": [
        {
          "internalType": "string",
          "name": "",
          "type": "string"
        }
      ],
      "stateMutability": "view",
      "type": "function",
      "constant": true
    },
    {
      "inputs": [
        {
          "internalType": "uint256",
          "name": "tokenId",
          "type": "uint256"
        }
      ],
      "name": "tokenURI",
      "outputs": [
        {
          "internalType": "string",
          "name": "",
          "type": "string"
        }
      ],
      "stateMutability": "view",
      "type": "function",
      "constant": true
    },
    {
      "inputs": [
        {
          "internalType": "address",
          "name": "from",
          "type": "address"
        },
        {
          "internalType": "address",
          "name": "to",
          "type": "address"
        },
        {
          "internalType": "uint256",
          "name": "tokenId",
          "type": "uint256"
        }
      ],
      "name": "transferFrom",
      "outputs": [],
      "stateMutability": "nonpayable",
      "type": "function"
    },
    {
      "inputs": [
        {
          "internalType": "address",
          "name": "newOwner",
          "type": "address"
        }
      ],
      "name": "transferOwnership",
      "outputs": [],
      "stateMutability": "nonpayable",
      "type": "function"
    },
    {
      "inputs": [
        {
          "internalType": "address",
          "name": "",
          "type": "address"
        },
        {
          "internalType": "uint256",
          "name": "",
          "type": "uint256"
        }
      ],
      "name": "userOwnedCards",
      "outputs": [
        {
          "internalType": "uint256",
          "name": "",
          "type": "uint256"
        }
      ],
      "stateMutability": "view",
      "type": "function",
      "constant": true
    },
    {
      "inputs": [
        {
          "internalType": "address",
          "name": "recipient",
          "type": "address"
        },
        {
          "internalType": "string",
          "name": "cardURI",
          "type": "string"
        }
      ],
      "name": "mintCard",
      "outputs": [],
      "stateMutability": "payable",
      "type": "function",
      "payable": true
    },
    {
      "inputs": [
        {
          "internalType": "address",
          "name": "owner",
          "type": "address"
        }
      ],
      "name": "getCardsByOwner",
      "outputs": [
        {
          "components": [
            {
              "internalType": "string",
              "name": "uri",
              "type": "string"
            },
            {
              "internalType": "uint256",
              "name": "id",
              "type": "uint256"
            }
          ],
          "internalType": "struct Card.cardResponse[]",
          "name": "",
          "type": "tuple[]"
        }
      ],
      "stateMutability": "view",
      "type": "function",
      "constant": true
    },
    {
      "inputs": [
        {
          "internalType": "address",
          "name": "_buyer",
          "type": "address"
        },
        {
          "internalType": "uint256",
          "name": "_cardId",
          "type": "uint256"
        }
      ],
      "name": "buyCard",
      "outputs": [],
      "stateMutability": "payable",
      "type": "function",
      "payable": true
    },
    {
      "inputs": [
        {
          "internalType": "address",
          "name": "_to",
          "type": "address"
        },
        {
          "internalType": "uint256",
          "name": "_cardId",
          "type": "uint256"
        }
      ],
      "name": "sendCard",
      "outputs": [],
      "stateMutability": "payable",
      "type": "function",
      "payable": true
    },
    {
      "inputs": [
        {
          "internalType": "address",
          "name": "_to",
          "type": "address"
        },
        {
          "internalType": "uint256",
          "name": "_cardId",
          "type": "uint256"
        }
      ],
      "name": "saleCard",
      "outputs": [],
      "stateMutability": "payable",
      "type": "function",
      "payable": true
    }
  ],
  "bytecode": "0x6080604052662386f26fc100006008553480156200001c57600080fd5b506040518060400160405280600881526020017f43617264204e46540000000000000000000000000000000000000000000000008152506040518060400160405280600381526020017f4e465400000000000000000000000000000000000000000000000000000000008152508160009080519060200190620000a1929190620001b1565b508060019080519060200190620000ba929190620001b1565b505050620000dd620000d1620000e360201b60201c565b620000eb60201b60201c565b620002c6565b600033905090565b6000600760009054906101000a900473ffffffffffffffffffffffffffffffffffffffff16905081600760006101000a81548173ffffffffffffffffffffffffffffffffffffffff021916908373ffffffffffffffffffffffffffffffffffffffff1602179055508173ffffffffffffffffffffffffffffffffffffffff168173ffffffffffffffffffffffffffffffffffffffff167f8be0079c531659141344cd1fd0a4f28419497f9722a3daafe3b4186f6b6457e060405160405180910390a35050565b828054620001bf9062000261565b90600052602060002090601f016020900481019282620001e357600085556200022f565b82601f10620001fe57805160ff19168380011785556200022f565b828001600101855582156200022f579182015b828111156200022e57825182559160200191906001019062000211565b5b5090506200023e919062000242565b5090565b5b808211156200025d57600081600090555060010162000243565b5090565b600060028204905060018216806200027a57607f821691505b6020821081141562000291576200029062000297565b5b50919050565b7f4e487b7100000000000000000000000000000000000000000000000000000000600052602260045260246000fd5b613fd580620002d66000396000f3fe6080604052600436106101405760003560e01c80637dd9f846116100b6578063b88d4fde1161006f578063b88d4fde14610443578063c87b56dd1461046c578063cd7e53cc146104a9578063e985e9c5146104c5578063eba73c7c14610502578063f2fde38b1461053f57610140565b80637dd9f8461461034f5780638da5cb5b1461036b57806395d89b41146103965780639b3ce46e146103c1578063a22cb465146103fe578063b128489c1461042757610140565b806323b872dd1161010857806323b872dd1461025057806342842e0e146102795780634b92325b146102a25780636352211e146102be57806370a08231146102fb578063715018a61461033857610140565b806301ffc9a71461014557806306fdde0314610182578063081812fc146101ad578063095ea7b3146101ea578063150b7a0214610213575b600080fd5b34801561015157600080fd5b5061016c60048036038101906101679190612e22565b610568565b6040516101799190613419565b60405180910390f35b34801561018e57600080fd5b5061019761064a565b6040516101a4919061344f565b60405180910390f35b3480156101b957600080fd5b506101d460048036038101906101cf9190612e7c565b6106dc565b6040516101e19190613330565b60405180910390f35b3480156101f657600080fd5b50610211600480360381019061020c9190612de2565b610722565b005b34801561021f57600080fd5b5061023a60048036038101906102359190612cc3565b61083a565b6040516102479190613434565b60405180910390f35b34801561025c57600080fd5b5061027760048036038101906102729190612c70565b61084e565b005b34801561028557600080fd5b506102a0600480360381019061029b9190612c70565b6108ae565b005b6102bc60048036038101906102b79190612de2565b6108ce565b005b3480156102ca57600080fd5b506102e560048036038101906102e09190612e7c565b610a5f565b6040516102f29190613330565b60405180910390f35b34801561030757600080fd5b50610322600480360381019061031d9190612c03565b610ae6565b60405161032f91906136b1565b60405180910390f35b34801561034457600080fd5b5061034d610b9e565b005b61036960048036038101906103649190612de2565b610bb2565b005b34801561037757600080fd5b50610380610d62565b60405161038d9190613330565b60405180910390f35b3480156103a257600080fd5b506103ab610d8c565b6040516103b8919061344f565b60405180910390f35b3480156103cd57600080fd5b506103e860048036038101906103e39190612de2565b610e1e565b6040516103f591906136b1565b60405180910390f35b34801561040a57600080fd5b5061042560048036038101906104209190612d46565b610e4f565b005b610441600480360381019061043c9190612de2565b610e65565b005b34801561044f57600080fd5b5061046a60048036038101906104659190612cc3565b610f9a565b005b34801561047857600080fd5b50610493600480360381019061048e9190612e7c565b610ffc565b6040516104a0919061344f565b60405180910390f35b6104c360048036038101906104be9190612d86565b61110f565b005b3480156104d157600080fd5b506104ec60048036038101906104e79190612c30565b6111b9565b6040516104f99190613419565b60405180910390f35b34801561050e57600080fd5b5061052960048036038101906105249190612c03565b61124d565b60405161053691906133f7565b60405180910390f35b34801561054b57600080fd5b5061056660048036038101906105619190612c03565b61141c565b005b60007f80ac58cd000000000000000000000000000000000000000000000000000000007bffffffffffffffffffffffffffffffffffffffffffffffffffffffff1916827bffffffffffffffffffffffffffffffffffffffffffffffffffffffff1916148061063357507f5b5e139f000000000000000000000000000000000000000000000000000000007bffffffffffffffffffffffffffffffffffffffffffffffffffffffff1916827bffffffffffffffffffffffffffffffffffffffffffffffffffffffff1916145b806106435750610642826114a0565b5b9050919050565b60606000805461065990613920565b80601f016020809104026020016040519081016040528092919081815260200182805461068590613920565b80156106d25780601f106106a7576101008083540402835291602001916106d2565b820191906000526020600020905b8154815290600101906020018083116106b557829003601f168201915b5050505050905090565b60006106e78261150a565b6004600083815260200190815260200160002060009054906101000a900473ffffffffffffffffffffffffffffffffffffffff169050919050565b600061072d82610a5f565b90508073ffffffffffffffffffffffffffffffffffffffff168373ffffffffffffffffffffffffffffffffffffffff16141561079e576040517f08c379a000000000000000000000000000000000000000000000000000000000815260040161079590613671565b60405180910390fd5b8073ffffffffffffffffffffffffffffffffffffffff166107bd611555565b73ffffffffffffffffffffffffffffffffffffffff1614806107ec57506107eb816107e6611555565b6111b9565b5b61082b576040517f08c379a000000000000000000000000000000000000000000000000000000000815260040161082290613691565b60405180910390fd5b610835838361155d565b505050565b600063150b7a0260e01b9050949350505050565b61085f610859611555565b82611616565b61089e576040517f08c379a000000000000000000000000000000000000000000000000000000000815260040161089590613491565b60405180910390fd5b6108a98383836116ab565b505050565b6108c983838360405180602001604052806000815250610f9a565b505050565b806108d933826119a5565b6108e257600080fd5b348373ffffffffffffffffffffffffffffffffffffffff1631101561093c576040517f08c379a000000000000000000000000000000000000000000000000000000000815260040161093390613611565b60405180910390fd5b600061094783610a5f565b90508073ffffffffffffffffffffffffffffffffffffffff168473ffffffffffffffffffffffffffffffffffffffff1614156109b8576040517f08c379a00000000000000000000000000000000000000000000000000000000081526004016109af90613531565b60405180910390fd5b6109c23084610722565b6109cd818585611aca565b6000341115610a1e578073ffffffffffffffffffffffffffffffffffffffff166108fc349081150290604051600060405180830381858888f19350505050158015610a1c573d6000803e3d6000fd5b505b7f608f6ac9327c2bf4d3c77adf447d2c448ba7b0971e0aaa9aa03f7ac29d874a44818534604051610a5193929190613374565b60405180910390a150505050565b600080610a6b83611bb4565b9050600073ffffffffffffffffffffffffffffffffffffffff168173ffffffffffffffffffffffffffffffffffffffff161415610add576040517f08c379a0000000000000000000000000000000000000000000000000000000008152600401610ad490613651565b60405180910390fd5b80915050919050565b60008073ffffffffffffffffffffffffffffffffffffffff168273ffffffffffffffffffffffffffffffffffffffff161415610b57576040517f08c379a0000000000000000000000000000000000000000000000000000000008152600401610b4e90613591565b60405180910390fd5b600360008373ffffffffffffffffffffffffffffffffffffffff1673ffffffffffffffffffffffffffffffffffffffff168152602001908152602001600020549050919050565b610ba6611bf1565b610bb06000611c6f565b565b610bbb81611d35565b610bfa576040517f08c379a0000000000000000000000000000000000000000000000000000000008152600401610bf1906135d1565b60405180910390fd5b348273ffffffffffffffffffffffffffffffffffffffff16311015610c54576040517f08c379a0000000000000000000000000000000000000000000000000000000008152600401610c4b90613611565b60405180910390fd5b6000610c5f82610a5f565b90508073ffffffffffffffffffffffffffffffffffffffff168373ffffffffffffffffffffffffffffffffffffffff161415610cd0576040517f08c379a0000000000000000000000000000000000000000000000000000000008152600401610cc790613471565b60405180910390fd5b610cdb818484611aca565b8073ffffffffffffffffffffffffffffffffffffffff166108fc349081150290604051600060405180830381858888f19350505050158015610d21573d6000803e3d6000fd5b507f608f6ac9327c2bf4d3c77adf447d2c448ba7b0971e0aaa9aa03f7ac29d874a44818434604051610d5593929190613374565b60405180910390a1505050565b6000600760009054906101000a900473ffffffffffffffffffffffffffffffffffffffff16905090565b606060018054610d9b90613920565b80601f0160208091040260200160405190810160405280929190818152602001828054610dc790613920565b8015610e145780601f10610de957610100808354040283529160200191610e14565b820191906000526020600020905b815481529060010190602001808311610df757829003601f168201915b5050505050905090565b600a6020528160005260406000208181548110610e3a57600080fd5b90600052602060002001600091509150505481565b610e61610e5a611555565b8383611d76565b5050565b80610e7033826119a5565b610e7957600080fd5b6000610e8483610a5f565b90508073ffffffffffffffffffffffffffffffffffffffff168473ffffffffffffffffffffffffffffffffffffffff161415610ef5576040517f08c379a0000000000000000000000000000000000000000000000000000000008152600401610eec90613531565b60405180910390fd5b610eff3084610722565b610f0a818585611aca565b6000341115610f5b578073ffffffffffffffffffffffffffffffffffffffff166108fc349081150290604051600060405180830381858888f19350505050158015610f59573d6000803e3d6000fd5b505b7f90f81f423d804b4d595d4b180adfe36610f3f05bf1114dc30d40763cca365cd78185604051610f8c92919061334b565b60405180910390a150505050565b610fab610fa5611555565b83611616565b610fea576040517f08c379a0000000000000000000000000000000000000000000000000000000008152600401610fe190613491565b60405180910390fd5b610ff684848484611ee3565b50505050565b60606110078261150a565b600060066000848152602001908152602001600020805461102790613920565b80601f016020809104026020016040519081016040528092919081815260200182805461105390613920565b80156110a05780601f10611075576101008083540402835291602001916110a0565b820191906000526020600020905b81548152906001019060200180831161108357829003601f168201915b5050505050905060006110b1611f3f565b90506000815114156110c757819250505061110a565b6000825111156110fc5780826040516020016110e492919061330c565b6040516020818303038152906040529250505061110a565b61110584611f56565b925050505b919050565b611117611bf1565b6111216009611fbe565b600061112d6009611fd4565b90506111398382611fe2565b6111438183612000565b61114e306001610e4f565b600a60008473ffffffffffffffffffffffffffffffffffffffff1673ffffffffffffffffffffffffffffffffffffffff168152602001908152602001600020819080600181540180825580915050600190039060005260206000200160009091909190915055505050565b6000600560008473ffffffffffffffffffffffffffffffffffffffff1673ffffffffffffffffffffffffffffffffffffffff16815260200190815260200160002060008373ffffffffffffffffffffffffffffffffffffffff1673ffffffffffffffffffffffffffffffffffffffff16815260200190815260200160002060009054906101000a900460ff16905092915050565b60606000600a60008473ffffffffffffffffffffffffffffffffffffffff1673ffffffffffffffffffffffffffffffffffffffff16815260200190815260200160002080549050905060008167ffffffffffffffff8111156112b2576112b1613ab7565b5b6040519080825280602002602001820160405280156112eb57816020015b6112d86129fd565b8152602001906001900390816112d05790505b50905060005b828110156114115761135d600a60008773ffffffffffffffffffffffffffffffffffffffff1673ffffffffffffffffffffffffffffffffffffffff168152602001908152602001600020828154811061134d5761134c613a88565b5b9060005260206000200154610ffc565b8282815181106113705761136f613a88565b5b602002602001015160000181905250600a60008673ffffffffffffffffffffffffffffffffffffffff1673ffffffffffffffffffffffffffffffffffffffff16815260200190815260200160002081815481106113d0576113cf613a88565b5b90600052602060002001548282815181106113ee576113ed613a88565b5b60200260200101516020018181525050808061140990613983565b9150506112f1565b508092505050919050565b611424611bf1565b600073ffffffffffffffffffffffffffffffffffffffff168173ffffffffffffffffffffffffffffffffffffffff161415611494576040517f08c379a000000000000000000000000000000000000000000000000000000000815260040161148b906134d1565b60405180910390fd5b61149d81611c6f565b50565b60007f01ffc9a7000000000000000000000000000000000000000000000000000000007bffffffffffffffffffffffffffffffffffffffffffffffffffffffff1916827bffffffffffffffffffffffffffffffffffffffffffffffffffffffff1916149050919050565b61151381611d35565b611552576040517f08c379a000000000000000000000000000000000000000000000000000000000815260040161154990613651565b60405180910390fd5b50565b600033905090565b816004600083815260200190815260200160002060006101000a81548173ffffffffffffffffffffffffffffffffffffffff021916908373ffffffffffffffffffffffffffffffffffffffff160217905550808273ffffffffffffffffffffffffffffffffffffffff166115d083610a5f565b73ffffffffffffffffffffffffffffffffffffffff167f8c5be1e5ebec7d5bd14f71427d1e84f3dd0314c0f7b2291e5b200ac8c7c3b92560405160405180910390a45050565b60008061162283610a5f565b90508073ffffffffffffffffffffffffffffffffffffffff168473ffffffffffffffffffffffffffffffffffffffff161480611664575061166381856111b9565b5b806116a257508373ffffffffffffffffffffffffffffffffffffffff1661168a846106dc565b73ffffffffffffffffffffffffffffffffffffffff16145b91505092915050565b8273ffffffffffffffffffffffffffffffffffffffff166116cb82610a5f565b73ffffffffffffffffffffffffffffffffffffffff1614611721576040517f08c379a0000000000000000000000000000000000000000000000000000000008152600401611718906134f1565b60405180910390fd5b600073ffffffffffffffffffffffffffffffffffffffff168273ffffffffffffffffffffffffffffffffffffffff161415611791576040517f08c379a000000000000000000000000000000000000000000000000000000000815260040161178890613551565b60405180910390fd5b61179e8383836001612074565b8273ffffffffffffffffffffffffffffffffffffffff166117be82610a5f565b73ffffffffffffffffffffffffffffffffffffffff1614611814576040517f08c379a000000000000000000000000000000000000000000000000000000000815260040161180b906134f1565b60405180910390fd5b6004600082815260200190815260200160002060006101000a81549073ffffffffffffffffffffffffffffffffffffffff02191690556001600360008573ffffffffffffffffffffffffffffffffffffffff1673ffffffffffffffffffffffffffffffffffffffff168152602001908152602001600020600082825403925050819055506001600360008473ffffffffffffffffffffffffffffffffffffffff1673ffffffffffffffffffffffffffffffffffffffff16815260200190815260200160002060008282540192505081905550816002600083815260200190815260200160002060006101000a81548173ffffffffffffffffffffffffffffffffffffffff021916908373ffffffffffffffffffffffffffffffffffffffff160217905550808273ffffffffffffffffffffffffffffffffffffffff168473ffffffffffffffffffffffffffffffffffffffff167fddf252ad1be2c89b69c2b068fc378daa952ba7f163c4a11628f55a4df523b3ef60405160405180910390a46119a0838383600161219a565b505050565b6000808373ffffffffffffffffffffffffffffffffffffffff166119c884610a5f565b73ffffffffffffffffffffffffffffffffffffffff161490508015611abe576000600a60008673ffffffffffffffffffffffffffffffffffffffff1673ffffffffffffffffffffffffffffffffffffffff16815260200190815260200160002080549050905060005b81811015611abb5784600a60008873ffffffffffffffffffffffffffffffffffffffff1673ffffffffffffffffffffffffffffffffffffffff1681526020019081526020016000208281548110611a8b57611a8a613a88565b5b90600052602060002001541415611aa85760019350505050611ac4565b8080611ab390613983565b915050611a31565b50505b60009150505b92915050565b611ad483826121a0565b600a60008373ffffffffffffffffffffffffffffffffffffffff1673ffffffffffffffffffffffffffffffffffffffff16815260200190815260200160002081908060018154018082558091505060019003906000526020600020016000909190919091505560003090508073ffffffffffffffffffffffffffffffffffffffff166323b872dd8585856040518463ffffffff1660e01b8152600401611b7c93929190613374565b600060405180830381600087803b158015611b9657600080fd5b505af1158015611baa573d6000803e3d6000fd5b5050505050505050565b60006002600083815260200190815260200160002060009054906101000a900473ffffffffffffffffffffffffffffffffffffffff169050919050565b611bf9611555565b73ffffffffffffffffffffffffffffffffffffffff16611c17610d62565b73ffffffffffffffffffffffffffffffffffffffff1614611c6d576040517f08c379a0000000000000000000000000000000000000000000000000000000008152600401611c6490613631565b60405180910390fd5b565b6000600760009054906101000a900473ffffffffffffffffffffffffffffffffffffffff16905081600760006101000a81548173ffffffffffffffffffffffffffffffffffffffff021916908373ffffffffffffffffffffffffffffffffffffffff1602179055508173ffffffffffffffffffffffffffffffffffffffff168173ffffffffffffffffffffffffffffffffffffffff167f8be0079c531659141344cd1fd0a4f28419497f9722a3daafe3b4186f6b6457e060405160405180910390a35050565b60008073ffffffffffffffffffffffffffffffffffffffff16611d5783611bb4565b73ffffffffffffffffffffffffffffffffffffffff1614159050919050565b8173ffffffffffffffffffffffffffffffffffffffff168373ffffffffffffffffffffffffffffffffffffffff161415611de5576040517f08c379a0000000000000000000000000000000000000000000000000000000008152600401611ddc90613571565b60405180910390fd5b80600560008573ffffffffffffffffffffffffffffffffffffffff1673ffffffffffffffffffffffffffffffffffffffff16815260200190815260200160002060008473ffffffffffffffffffffffffffffffffffffffff1673ffffffffffffffffffffffffffffffffffffffff16815260200190815260200160002060006101000a81548160ff0219169083151502179055508173ffffffffffffffffffffffffffffffffffffffff168373ffffffffffffffffffffffffffffffffffffffff167f17307eab39ab6107e8899845ad3d59bd9653f200f220920489ca2b5937696c3183604051611ed69190613419565b60405180910390a3505050565b611eee8484846116ab565b611efa8484848461239f565b611f39576040517f08c379a0000000000000000000000000000000000000000000000000000000008152600401611f30906134b1565b60405180910390fd5b50505050565b606060405180602001604052806000815250905090565b6060611f618261150a565b6000611f6b611f3f565b90506000815111611f8b5760405180602001604052806000815250611fb6565b80611f9584612536565b604051602001611fa692919061330c565b6040516020818303038152906040525b915050919050565b6001816000016000828254019250508190555050565b600081600001549050919050565b611ffc82826040518060200160405280600081525061260e565b5050565b61200982611d35565b612048576040517f08c379a000000000000000000000000000000000000000000000000000000000815260040161203f906135b1565b60405180910390fd5b8060066000848152602001908152602001600020908051906020019061206f929190612a17565b505050565b600181111561219457600073ffffffffffffffffffffffffffffffffffffffff168473ffffffffffffffffffffffffffffffffffffffff16146121085780600360008673ffffffffffffffffffffffffffffffffffffffff1673ffffffffffffffffffffffffffffffffffffffff16815260200190815260200160002060008282546121009190613836565b925050819055505b600073ffffffffffffffffffffffffffffffffffffffff168373ffffffffffffffffffffffffffffffffffffffff16146121935780600360008573ffffffffffffffffffffffffffffffffffffffff1673ffffffffffffffffffffffffffffffffffffffff168152602001908152602001600020600082825461218b91906137e0565b925050819055505b5b50505050565b50505050565b6000600a60008473ffffffffffffffffffffffffffffffffffffffff1673ffffffffffffffffffffffffffffffffffffffff16815260200190815260200160002080549050905060005b818110156123995782600a60008673ffffffffffffffffffffffffffffffffffffffff1673ffffffffffffffffffffffffffffffffffffffff168152602001908152602001600020828154811061224457612243613a88565b5b9060005260206000200154141561238657600a60008573ffffffffffffffffffffffffffffffffffffffff1673ffffffffffffffffffffffffffffffffffffffff1681526020019081526020016000206001836122a19190613836565b815481106122b2576122b1613a88565b5b9060005260206000200154600a60008673ffffffffffffffffffffffffffffffffffffffff1673ffffffffffffffffffffffffffffffffffffffff168152602001908152602001600020828154811061230e5761230d613a88565b5b9060005260206000200181905550600a60008573ffffffffffffffffffffffffffffffffffffffff1673ffffffffffffffffffffffffffffffffffffffff16815260200190815260200160002080548061236b5761236a613a59565b5b60019003818190600052602060002001600090559055612399565b808061239190613983565b9150506121ea565b50505050565b60006123c08473ffffffffffffffffffffffffffffffffffffffff16612669565b15612529578373ffffffffffffffffffffffffffffffffffffffff1663150b7a026123e9611555565b8786866040518563ffffffff1660e01b815260040161240b94939291906133ab565b602060405180830381600087803b15801561242557600080fd5b505af192505050801561245657506040513d601f19601f820116820180604052508101906124539190612e4f565b60015b6124d9573d8060008114612486576040519150601f19603f3d011682016040523d82523d6000602084013e61248b565b606091505b506000815114156124d1576040517f08c379a00000000000000000000000000000000000000000000000000000000081526004016124c8906134b1565b60405180910390fd5b805181602001fd5b63150b7a0260e01b7bffffffffffffffffffffffffffffffffffffffffffffffffffffffff1916817bffffffffffffffffffffffffffffffffffffffffffffffffffffffff19161491505061252e565b600190505b949350505050565b6060600060016125458461268c565b01905060008167ffffffffffffffff81111561256457612563613ab7565b5b6040519080825280601f01601f1916602001820160405280156125965781602001600182028036833780820191505090505b509050600082602001820190505b600115612603578080600190039150507f3031323334353637383961626364656600000000000000000000000000000000600a86061a8153600a85816125ed576125ec6139fb565b5b04945060008514156125fe57612603565b6125a4565b819350505050919050565b61261883836127df565b612625600084848461239f565b612664576040517f08c379a000000000000000000000000000000000000000000000000000000000815260040161265b906134b1565b60405180910390fd5b505050565b6000808273ffffffffffffffffffffffffffffffffffffffff163b119050919050565b600080600090507a184f03e93ff9f4daa797ed6e38ed64bf6a1f01000000000000000083106126ea577a184f03e93ff9f4daa797ed6e38ed64bf6a1f01000000000000000083816126e0576126df6139fb565b5b0492506040810190505b6d04ee2d6d415b85acef81000000008310612727576d04ee2d6d415b85acef8100000000838161271d5761271c6139fb565b5b0492506020810190505b662386f26fc10000831061275657662386f26fc10000838161274c5761274b6139fb565b5b0492506010810190505b6305f5e100831061277f576305f5e1008381612775576127746139fb565b5b0492506008810190505b61271083106127a457612710838161279a576127996139fb565b5b0492506004810190505b606483106127c757606483816127bd576127bc6139fb565b5b0492506002810190505b600a83106127d6576001810190505b80915050919050565b600073ffffffffffffffffffffffffffffffffffffffff168273ffffffffffffffffffffffffffffffffffffffff16141561284f576040517f08c379a0000000000000000000000000000000000000000000000000000000008152600401612846906135f1565b60405180910390fd5b61285881611d35565b15612898576040517f08c379a000000000000000000000000000000000000000000000000000000000815260040161288f90613511565b60405180910390fd5b6128a6600083836001612074565b6128af81611d35565b156128ef576040517f08c379a00000000000000000000000000000000000000000000000000000000081526004016128e690613511565b60405180910390fd5b6001600360008473ffffffffffffffffffffffffffffffffffffffff1673ffffffffffffffffffffffffffffffffffffffff16815260200190815260200160002060008282540192505081905550816002600083815260200190815260200160002060006101000a81548173ffffffffffffffffffffffffffffffffffffffff021916908373ffffffffffffffffffffffffffffffffffffffff160217905550808273ffffffffffffffffffffffffffffffffffffffff16600073ffffffffffffffffffffffffffffffffffffffff167fddf252ad1be2c89b69c2b068fc378daa952ba7f163c4a11628f55a4df523b3ef60405160405180910390a46129f960008383600161219a565b5050565b604051806040016040528060608152602001600081525090565b828054612a2390613920565b90600052602060002090601f016020900481019282612a455760008555612a8c565b82601f10612a5e57805160ff1916838001178555612a8c565b82800160010185558215612a8c579182015b82811115612a8b578251825591602001919060010190612a70565b5b509050612a999190612a9d565b5090565b5b80821115612ab6576000816000905550600101612a9e565b5090565b6000612acd612ac8846136f1565b6136cc565b905082815260208101848484011115612ae957612ae8613aeb565b5b612af48482856138de565b509392505050565b6000612b0f612b0a84613722565b6136cc565b905082815260208101848484011115612b2b57612b2a613aeb565b5b612b368482856138de565b509392505050565b600081359050612b4d81613f43565b92915050565b600081359050612b6281613f5a565b92915050565b600081359050612b7781613f71565b92915050565b600081519050612b8c81613f71565b92915050565b600082601f830112612ba757612ba6613ae6565b5b8135612bb7848260208601612aba565b91505092915050565b600082601f830112612bd557612bd4613ae6565b5b8135612be5848260208601612afc565b91505092915050565b600081359050612bfd81613f88565b92915050565b600060208284031215612c1957612c18613af5565b5b6000612c2784828501612b3e565b91505092915050565b60008060408385031215612c4757612c46613af5565b5b6000612c5585828601612b3e565b9250506020612c6685828601612b3e565b9150509250929050565b600080600060608486031215612c8957612c88613af5565b5b6000612c9786828701612b3e565b9350506020612ca886828701612b3e565b9250506040612cb986828701612bee565b9150509250925092565b60008060008060808587031215612cdd57612cdc613af5565b5b6000612ceb87828801612b3e565b9450506020612cfc87828801612b3e565b9350506040612d0d87828801612bee565b925050606085013567ffffffffffffffff811115612d2e57612d2d613af0565b5b612d3a87828801612b92565b91505092959194509250565b60008060408385031215612d5d57612d5c613af5565b5b6000612d6b85828601612b3e565b9250506020612d7c85828601612b53565b9150509250929050565b60008060408385031215612d9d57612d9c613af5565b5b6000612dab85828601612b3e565b925050602083013567ffffffffffffffff811115612dcc57612dcb613af0565b5b612dd885828601612bc0565b9150509250929050565b60008060408385031215612df957612df8613af5565b5b6000612e0785828601612b3e565b9250506020612e1885828601612bee565b9150509250929050565b600060208284031215612e3857612e37613af5565b5b6000612e4684828501612b68565b91505092915050565b600060208284031215612e6557612e64613af5565b5b6000612e7384828501612b7d565b91505092915050565b600060208284031215612e9257612e91613af5565b5b6000612ea084828501612bee565b91505092915050565b6000612eb583836132b1565b905092915050565b612ec68161386a565b82525050565b6000612ed782613763565b612ee18185613791565b935083602082028501612ef385613753565b8060005b85811015612f2f5784840389528151612f108582612ea9565b9450612f1b83613784565b925060208a01995050600181019050612ef7565b50829750879550505050505092915050565b612f4a8161387c565b82525050565b612f5981613888565b82525050565b6000612f6a8261376e565b612f7481856137a2565b9350612f848185602086016138ed565b612f8d81613afa565b840191505092915050565b6000612fa382613779565b612fad81856137b3565b9350612fbd8185602086016138ed565b612fc681613afa565b840191505092915050565b6000612fdc82613779565b612fe681856137c4565b9350612ff68185602086016138ed565b612fff81613afa565b840191505092915050565b600061301582613779565b61301f81856137d5565b935061302f8185602086016138ed565b80840191505092915050565b60006130486016836137c4565b915061305382613b0b565b602082019050919050565b600061306b602d836137c4565b915061307682613b34565b604082019050919050565b600061308e6032836137c4565b915061309982613b83565b604082019050919050565b60006130b16026836137c4565b91506130bc82613bd2565b604082019050919050565b60006130d46025836137c4565b91506130df82613c21565b604082019050919050565b60006130f7601c836137c4565b915061310282613c70565b602082019050919050565b600061311a6014836137c4565b915061312582613c99565b602082019050919050565b600061313d6024836137c4565b915061314882613cc2565b604082019050919050565b60006131606019836137c4565b915061316b82613d11565b602082019050919050565b60006131836029836137c4565b915061318e82613d3a565b604082019050919050565b60006131a6602e836137c4565b91506131b182613d89565b604082019050919050565b60006131c9601e836137c4565b91506131d482613dd8565b602082019050919050565b60006131ec6020836137c4565b91506131f782613e01565b602082019050919050565b600061320f6011836137c4565b915061321a82613e2a565b602082019050919050565b60006132326020836137c4565b915061323d82613e53565b602082019050919050565b60006132556018836137c4565b915061326082613e7c565b602082019050919050565b60006132786021836137c4565b915061328382613ea5565b604082019050919050565b600061329b603d836137c4565b91506132a682613ef4565b604082019050919050565b600060408301600083015184820360008601526132ce8282612f98565b91505060208301516132e360208601826132ee565b508091505092915050565b6132f7816138d4565b82525050565b613306816138d4565b82525050565b6000613318828561300a565b9150613324828461300a565b91508190509392505050565b60006020820190506133456000830184612ebd565b92915050565b60006040820190506133606000830185612ebd565b61336d6020830184612ebd565b9392505050565b60006060820190506133896000830186612ebd565b6133966020830185612ebd565b6133a360408301846132fd565b949350505050565b60006080820190506133c06000830187612ebd565b6133cd6020830186612ebd565b6133da60408301856132fd565b81810360608301526133ec8184612f5f565b905095945050505050565b600060208201905081810360008301526134118184612ecc565b905092915050565b600060208201905061342e6000830184612f41565b92915050565b60006020820190506134496000830184612f50565b92915050565b600060208201905081810360008301526134698184612fd1565b905092915050565b6000602082019050818103600083015261348a8161303b565b9050919050565b600060208201905081810360008301526134aa8161305e565b9050919050565b600060208201905081810360008301526134ca81613081565b9050919050565b600060208201905081810360008301526134ea816130a4565b9050919050565b6000602082019050818103600083015261350a816130c7565b9050919050565b6000602082019050818103600083015261352a816130ea565b9050919050565b6000602082019050818103600083015261354a8161310d565b9050919050565b6000602082019050818103600083015261356a81613130565b9050919050565b6000602082019050818103600083015261358a81613153565b9050919050565b600060208201905081810360008301526135aa81613176565b9050919050565b600060208201905081810360008301526135ca81613199565b9050919050565b600060208201905081810360008301526135ea816131bc565b9050919050565b6000602082019050818103600083015261360a816131df565b9050919050565b6000602082019050818103600083015261362a81613202565b9050919050565b6000602082019050818103600083015261364a81613225565b9050919050565b6000602082019050818103600083015261366a81613248565b9050919050565b6000602082019050818103600083015261368a8161326b565b9050919050565b600060208201905081810360008301526136aa8161328e565b9050919050565b60006020820190506136c660008301846132fd565b92915050565b60006136d66136e7565b90506136e28282613952565b919050565b6000604051905090565b600067ffffffffffffffff82111561370c5761370b613ab7565b5b61371582613afa565b9050602081019050919050565b600067ffffffffffffffff82111561373d5761373c613ab7565b5b61374682613afa565b9050602081019050919050565b6000819050602082019050919050565b600081519050919050565b600081519050919050565b600081519050919050565b6000602082019050919050565b600082825260208201905092915050565b600082825260208201905092915050565b600082825260208201905092915050565b600082825260208201905092915050565b600081905092915050565b60006137eb826138d4565b91506137f6836138d4565b9250827fffffffffffffffffffffffffffffffffffffffffffffffffffffffffffffffff0382111561382b5761382a6139cc565b5b828201905092915050565b6000613841826138d4565b915061384c836138d4565b92508282101561385f5761385e6139cc565b5b828203905092915050565b6000613875826138b4565b9050919050565b60008115159050919050565b60007fffffffff0000000000000000000000000000000000000000000000000000000082169050919050565b600073ffffffffffffffffffffffffffffffffffffffff82169050919050565b6000819050919050565b82818337600083830152505050565b60005b8381101561390b5780820151818401526020810190506138f0565b8381111561391a576000848401525b50505050565b6000600282049050600182168061393857607f821691505b6020821081141561394c5761394b613a2a565b5b50919050565b61395b82613afa565b810181811067ffffffffffffffff8211171561397a57613979613ab7565b5b80604052505050565b600061398e826138d4565b91507fffffffffffffffffffffffffffffffffffffffffffffffffffffffffffffffff8214156139c1576139c06139cc565b5b600182019050919050565b7f4e487b7100000000000000000000000000000000000000000000000000000000600052601160045260246000fd5b7f4e487b7100000000000000000000000000000000000000000000000000000000600052601260045260246000fd5b7f4e487b7100000000000000000000000000000000000000000000000000000000600052602260045260246000fd5b7f4e487b7100000000000000000000000000000000000000000000000000000000600052603160045260246000fd5b7f4e487b7100000000000000000000000000000000000000000000000000000000600052603260045260246000fd5b7f4e487b7100000000000000000000000000000000000000000000000000000000600052604160045260246000fd5b600080fd5b600080fd5b600080fd5b600080fd5b6000601f19601f8301169050919050565b7f43616e206e6f7420627579206f776e6564206361726400000000000000000000600082015250565b7f4552433732313a2063616c6c6572206973206e6f7420746f6b656e206f776e6560008201527f72206f7220617070726f76656400000000000000000000000000000000000000602082015250565b7f4552433732313a207472616e7366657220746f206e6f6e20455243373231526560008201527f63656976657220696d706c656d656e7465720000000000000000000000000000602082015250565b7f4f776e61626c653a206e6577206f776e657220697320746865207a65726f206160008201527f6464726573730000000000000000000000000000000000000000000000000000602082015250565b7f4552433732313a207472616e736665722066726f6d20696e636f72726563742060008201527f6f776e6572000000000000000000000000000000000000000000000000000000602082015250565b7f4552433732313a20746f6b656e20616c7265616479206d696e74656400000000600082015250565b7f43616e206e6f742073656e6420746f2073656c66000000000000000000000000600082015250565b7f4552433732313a207472616e7366657220746f20746865207a65726f2061646460008201527f7265737300000000000000000000000000000000000000000000000000000000602082015250565b7f4552433732313a20617070726f766520746f2063616c6c657200000000000000600082015250565b7f4552433732313a2061646472657373207a65726f206973206e6f74206120766160008201527f6c6964206f776e65720000000000000000000000000000000000000000000000602082015250565b7f45524337323155524953746f726167653a2055524920736574206f66206e6f6e60008201527f6578697374656e7420746f6b656e000000000000000000000000000000000000602082015250565b7f7472616e73666572206f66206e6f6e206578697374696e6720746f6b656e0000600082015250565b7f4552433732313a206d696e7420746f20746865207a65726f2061646472657373600082015250565b7f536f6c646520696e737566666973616e74000000000000000000000000000000600082015250565b7f4f776e61626c653a2063616c6c6572206973206e6f7420746865206f776e6572600082015250565b7f4552433732313a20696e76616c696420746f6b656e2049440000000000000000600082015250565b7f4552433732313a20617070726f76616c20746f2063757272656e74206f776e6560008201527f7200000000000000000000000000000000000000000000000000000000000000602082015250565b7f4552433732313a20617070726f76652063616c6c6572206973206e6f7420746f60008201527f6b656e206f776e6572206f7220617070726f76656420666f7220616c6c000000602082015250565b613f4c8161386a565b8114613f5757600080fd5b50565b613f638161387c565b8114613f6e57600080fd5b50565b613f7a81613888565b8114613f8557600080fd5b50565b613f91816138d4565b8114613f9c57600080fd5b5056fea2646970667358221220b10933f5b2878e5316ef3371e2c5f78d91f4fb5fb8f96ccff5c1392192c0b54564736f6c63430008070033",
  "immutableReferences": {},
  "source": "//Contract based on [https://docs.openzeppelin.com/contracts/4.x/erc721](https://docs.openzeppelin.com/contracts/4.x/erc721)\r\n// SPDX-License-Identifier: MIT\r\npragma solidity ^0.8.7;\r\n\r\nimport \"@openzeppelin/contracts/token/ERC721/ERC721.sol\";\r\nimport \"@openzeppelin/contracts/token/ERC721/extensions/ERC721URIStorage.sol\";\r\nimport \"@openzeppelin/contracts/token/ERC721/utils/ERC721Holder.sol\";\r\nimport \"@openzeppelin/contracts/utils/Counters.sol\";\r\nimport \"@openzeppelin/contracts/access/Ownable.sol\";\r\n\r\ncontract Card is ERC721URIStorage, Ownable,ERC721Holder  {\r\n\r\n    // Structs \r\n    struct cardResponse {\r\n            string uri;\r\n            uint256 id;\r\n        }\r\n    // props \r\n    uint private fees = 0.01 ether;\r\n    using Counters for Counters.Counter;\r\n    Counters.Counter private _tokenIds;\r\n            \r\n    // modifiers \r\n    modifier onlyOwnerOf(uint _cardId) {\r\n        require(_ownerContainCard(msg.sender,_cardId));\r\n        _;\r\n    }\r\n\r\n    // events\r\n    event NftBought(address _seller, address _buyer, uint256 _price);\r\n\r\n    event NftSent(address _seller, address _buyer);\r\n\r\n    //mappings\r\n    mapping(address => uint256[]) public userOwnedCards;\r\n\r\n    constructor() ERC721(\"Card NFT\", \"NFT\") {\r\n\r\n    }\r\n\r\n    // private functions\r\n    function _removeCardFromOwner(address _owner,uint256 _cardId) private \r\n    {\r\n        uint ownedCardsCount = userOwnedCards[_owner].length;\r\n        for (uint i = 0; i < ownedCardsCount; i++) {\r\n            if(userOwnedCards[_owner][i] == _cardId){\r\n                userOwnedCards[_owner][i] = userOwnedCards[_owner][ownedCardsCount-1];\r\n                userOwnedCards[_owner].pop();\r\n                break;\r\n            }\r\n        }\r\n    }\r\n\r\n    function _transferCard(address _from, address _to, uint256 _cardId) private {\r\n        _removeCardFromOwner(_from,_cardId);\r\n        userOwnedCards[_to].push(_cardId);\r\n        IERC721 nft = IERC721(address(this));\r\n        nft.transferFrom(_from, _to, _cardId);\r\n    }\r\n\r\n    function _ownerContainCard(address _owner,uint256 _cardId) private returns(bool){\r\n        bool _isOwner = ownerOf(_cardId) == _owner;\r\n        if(_isOwner){\r\n            uint ownedCardsCount = userOwnedCards[_owner].length;\r\n            for(uint i = 0; i < ownedCardsCount; i++){\r\n                if(userOwnedCards[_owner][i] == _cardId){\r\n                    return true;\r\n                }\r\n            }\r\n        }\r\n        return false;\r\n\r\n    }\r\n    \r\n    \r\n\r\n    // functions\r\n\r\n    function mintCard(address recipient, string memory cardURI)\r\n     public payable onlyOwner \r\n    {\r\n        _tokenIds.increment();\r\n        uint256 cardId = _tokenIds.current();\r\n        _safeMint(recipient, cardId);\r\n        _setTokenURI(cardId, cardURI);\r\n        setApprovalForAll(address(this),true);\r\n        userOwnedCards[recipient].push(cardId);\r\n    }\r\n\r\n    function getCardsByOwner(address owner) public view returns (cardResponse[] memory)  {\r\n        uint ownedCardsCount = userOwnedCards[owner].length ;\r\n        cardResponse[] memory result = new cardResponse[](ownedCardsCount);\r\n\r\n        for (uint i = 0; i < ownedCardsCount; i++) {\r\n            result[i].uri = tokenURI(userOwnedCards[owner][i]);\r\n            result[i].id =  userOwnedCards[owner][i];\r\n        }\r\n        return result;\r\n    }\r\n\r\n    function buyCard(address _buyer,uint256 _cardId) public payable {\r\n        require(_exists(_cardId), \"transfer of non existing token\");\r\n       require(_buyer.balance >= msg.value, 'Solde insuffisant');\r\n       address _seller = ownerOf(_cardId);\r\n       require(_buyer != _seller,'Can not buy owned card');\r\n        _transferCard(_seller, payable(_buyer), _cardId);\r\n       payable(_seller).transfer(msg.value);\r\n        emit NftBought(_seller, _buyer, msg.value);\r\n    }\r\n\r\n    function sendCard(address _to,uint256 _cardId) public payable onlyOwnerOf(_cardId) {\r\n        address _seller = ownerOf(_cardId);\r\n        require(_to != _seller,'Can not send to self');\r\n\r\n        approve(address(this),_cardId);\r\n        _transferCard(_seller, payable(_to), _cardId);\r\n        if(msg.value > 0)\r\n            payable(_seller).transfer(msg.value);\r\n        emit NftSent(_seller, _to);\r\n    }\r\n\r\n\r\n   function saleCard(address _to,uint256 _cardId) public payable onlyOwnerOf(_cardId) {\r\n        require(_to.balance >= msg.value, 'Solde insuffisant');\r\n        address _seller = ownerOf(_cardId);\r\n        require(_to != _seller,'Can not send to self');\r\n\r\n        approve(address(this),_cardId);\r\n        _transferCard(_seller, payable(_to), _cardId);\r\n        if(msg.value > 0)\r\n            payable(_seller).transfer(msg.value);\r\n        emit NftBought(_seller, _to, msg.value);\r\n    }\r\n\r\n\r\n\r\n}",
  "sourcePath": "C:\\Users\\HP\\Pictures\\Projet\\5BLOC\\Blockchain\\contracts\\Card.sol",
  "compiler": {
    "name": "solc",
    "version": "0.8.7+commit.e28d00a7.Emscripten.clang"
  },
  "schemaVersion": "3.4.11",
  "updatedAt": "2022-12-08T14:08:33.170Z",
  "networkType": "ethereum",
  "devdoc": {
    "kind": "dev",
    "methods": {
      "approve(address,uint256)": {
        "details": "See {IERC721-approve}."
      },
      "balanceOf(address)": {
        "details": "See {IERC721-balanceOf}."
      },
      "getApproved(uint256)": {
        "details": "See {IERC721-getApproved}."
      },
      "isApprovedForAll(address,address)": {
        "details": "See {IERC721-isApprovedForAll}."
      },
      "name()": {
        "details": "See {IERC721Metadata-name}."
      },
      "onERC721Received(address,address,uint256,bytes)": {
        "details": "See {IERC721Receiver-onERC721Received}. Always returns `IERC721Receiver.onERC721Received.selector`."
      },
      "owner()": {
        "details": "Returns the address of the current owner."
      },
      "ownerOf(uint256)": {
        "details": "See {IERC721-ownerOf}."
      },
      "renounceOwnership()": {
        "details": "Leaves the contract without owner. It will not be possible to call `onlyOwner` functions anymore. Can only be called by the current owner. NOTE: Renouncing ownership will leave the contract without an owner, thereby removing any functionality that is only available to the owner."
      },
      "safeTransferFrom(address,address,uint256)": {
        "details": "See {IERC721-safeTransferFrom}."
      },
      "safeTransferFrom(address,address,uint256,bytes)": {
        "details": "See {IERC721-safeTransferFrom}."
      },
      "setApprovalForAll(address,bool)": {
        "details": "See {IERC721-setApprovalForAll}."
      },
      "supportsInterface(bytes4)": {
        "details": "See {IERC165-supportsInterface}."
      },
      "symbol()": {
        "details": "See {IERC721Metadata-symbol}."
      },
      "tokenURI(uint256)": {
        "details": "See {IERC721Metadata-tokenURI}."
      },
      "transferFrom(address,address,uint256)": {
        "details": "See {IERC721-transferFrom}."
      },
      "transferOwnership(address)": {
        "details": "Transfers ownership of the contract to a new account (`newOwner`). Can only be called by the current owner."
      }
    },
    "version": 1
  },
  "userdoc": {
    "kind": "user",
    "methods": {},
    "version": 1
  }
}