{
  "contractName": "Card",
  "abi": [
    {
      "inputs": [],
      "stateMutability": "nonpayable",
      "type": "constructor"
    },
    {
      "anonymous": false,
      "inputs": [
        {
          "indexed": true,
          "internalType": "address",
          "name": "owner",
          "type": "address"
        },
        {
          "indexed": true,
          "internalType": "address",
          "name": "approved",
          "type": "address"
        },
        {
          "indexed": true,
          "internalType": "uint256",
          "name": "tokenId",
          "type": "uint256"
        }
      ],
      "name": "Approval",
      "type": "event"
    },
    {
      "anonymous": false,
      "inputs": [
        {
          "indexed": true,
          "internalType": "address",
          "name": "owner",
          "type": "address"
        },
        {
          "indexed": true,
          "internalType": "address",
          "name": "operator",
          "type": "address"
        },
        {
          "indexed": false,
          "internalType": "bool",
          "name": "approved",
          "type": "bool"
        }
      ],
      "name": "ApprovalForAll",
      "type": "event"
    },
    {
      "anonymous": false,
      "inputs": [
        {
          "indexed": false,
          "internalType": "address",
          "name": "_seller",
          "type": "address"
        },
        {
          "indexed": false,
          "internalType": "address",
          "name": "_buyer",
          "type": "address"
        },
        {
          "indexed": false,
          "internalType": "uint256",
          "name": "_price",
          "type": "uint256"
        }
      ],
      "name": "BuyCardEvent",
      "type": "event"
    },
    {
      "anonymous": false,
      "inputs": [
        {
          "indexed": true,
          "internalType": "address",
          "name": "previousOwner",
          "type": "address"
        },
        {
          "indexed": true,
          "internalType": "address",
          "name": "newOwner",
          "type": "address"
        }
      ],
      "name": "OwnershipTransferred",
      "type": "event"
    },
    {
      "anonymous": false,
      "inputs": [
        {
          "indexed": false,
          "internalType": "address",
          "name": "_owner",
          "type": "address"
        },
        {
          "indexed": false,
          "internalType": "uint256",
          "name": "_cardId",
          "type": "uint256"
        }
      ],
      "name": "SaleCardEvent",
      "type": "event"
    },
    {
      "anonymous": false,
      "inputs": [
        {
          "indexed": false,
          "internalType": "address",
          "name": "_to",
          "type": "address"
        },
        {
          "indexed": false,
          "internalType": "uint256",
          "name": "_cardId",
          "type": "uint256"
        }
      ],
      "name": "SendCardEvent",
      "type": "event"
    },
    {
      "anonymous": false,
      "inputs": [
        {
          "indexed": false,
          "internalType": "address",
          "name": "_owner",
          "type": "address"
        },
        {
          "indexed": false,
          "internalType": "uint256",
          "name": "_cardId",
          "type": "uint256"
        }
      ],
      "name": "StopSellingCardEvent",
      "type": "event"
    },
    {
      "anonymous": false,
      "inputs": [
        {
          "indexed": true,
          "internalType": "address",
          "name": "from",
          "type": "address"
        },
        {
          "indexed": true,
          "internalType": "address",
          "name": "to",
          "type": "address"
        },
        {
          "indexed": true,
          "internalType": "uint256",
          "name": "tokenId",
          "type": "uint256"
        }
      ],
      "name": "Transfer",
      "type": "event"
    },
    {
      "inputs": [
        {
          "internalType": "address",
          "name": "to",
          "type": "address"
        },
        {
          "internalType": "uint256",
          "name": "tokenId",
          "type": "uint256"
        }
      ],
      "name": "approve",
      "outputs": [],
      "stateMutability": "nonpayable",
      "type": "function"
    },
    {
      "inputs": [
        {
          "internalType": "address",
          "name": "owner",
          "type": "address"
        }
      ],
      "name": "balanceOf",
      "outputs": [
        {
          "internalType": "uint256",
          "name": "",
          "type": "uint256"
        }
      ],
      "stateMutability": "view",
      "type": "function",
      "constant": true
    },
    {
      "inputs": [
        {
          "internalType": "uint256",
          "name": "tokenId",
          "type": "uint256"
        }
      ],
      "name": "getApproved",
      "outputs": [
        {
          "internalType": "address",
          "name": "",
          "type": "address"
        }
      ],
      "stateMutability": "view",
      "type": "function",
      "constant": true
    },
    {
      "inputs": [
        {
          "internalType": "address",
          "name": "owner",
          "type": "address"
        },
        {
          "internalType": "address",
          "name": "operator",
          "type": "address"
        }
      ],
      "name": "isApprovedForAll",
      "outputs": [
        {
          "internalType": "bool",
          "name": "",
          "type": "bool"
        }
      ],
      "stateMutability": "view",
      "type": "function",
      "constant": true
    },
    {
      "inputs": [],
      "name": "name",
      "outputs": [
        {
          "internalType": "string",
          "name": "",
          "type": "string"
        }
      ],
      "stateMutability": "view",
      "type": "function",
      "constant": true
    },
    {
      "inputs": [
        {
          "internalType": "address",
          "name": "",
          "type": "address"
        },
        {
          "internalType": "address",
          "name": "",
          "type": "address"
        },
        {
          "internalType": "uint256",
          "name": "",
          "type": "uint256"
        },
        {
          "internalType": "bytes",
          "name": "",
          "type": "bytes"
        }
      ],
      "name": "onERC721Received",
      "outputs": [
        {
          "internalType": "bytes4",
          "name": "",
          "type": "bytes4"
        }
      ],
      "stateMutability": "nonpayable",
      "type": "function"
    },
    {
      "inputs": [],
      "name": "owner",
      "outputs": [
        {
          "internalType": "address",
          "name": "",
          "type": "address"
        }
      ],
      "stateMutability": "view",
      "type": "function",
      "constant": true
    },
    {
      "inputs": [
        {
          "internalType": "uint256",
          "name": "tokenId",
          "type": "uint256"
        }
      ],
      "name": "ownerOf",
      "outputs": [
        {
          "internalType": "address",
          "name": "",
          "type": "address"
        }
      ],
      "stateMutability": "view",
      "type": "function",
      "constant": true
    },
    {
      "inputs": [],
      "name": "renounceOwnership",
      "outputs": [],
      "stateMutability": "nonpayable",
      "type": "function"
    },
    {
      "inputs": [
        {
          "internalType": "address",
          "name": "from",
          "type": "address"
        },
        {
          "internalType": "address",
          "name": "to",
          "type": "address"
        },
        {
          "internalType": "uint256",
          "name": "tokenId",
          "type": "uint256"
        }
      ],
      "name": "safeTransferFrom",
      "outputs": [],
      "stateMutability": "nonpayable",
      "type": "function"
    },
    {
      "inputs": [
        {
          "internalType": "address",
          "name": "from",
          "type": "address"
        },
        {
          "internalType": "address",
          "name": "to",
          "type": "address"
        },
        {
          "internalType": "uint256",
          "name": "tokenId",
          "type": "uint256"
        },
        {
          "internalType": "bytes",
          "name": "data",
          "type": "bytes"
        }
      ],
      "name": "safeTransferFrom",
      "outputs": [],
      "stateMutability": "nonpayable",
      "type": "function"
    },
    {
      "inputs": [
        {
          "internalType": "address",
          "name": "operator",
          "type": "address"
        },
        {
          "internalType": "bool",
          "name": "approved",
          "type": "bool"
        }
      ],
      "name": "setApprovalForAll",
      "outputs": [],
      "stateMutability": "nonpayable",
      "type": "function"
    },
    {
      "inputs": [
        {
          "internalType": "bytes4",
          "name": "interfaceId",
          "type": "bytes4"
        }
      ],
      "name": "supportsInterface",
      "outputs": [
        {
          "internalType": "bool",
          "name": "",
          "type": "bool"
        }
      ],
      "stateMutability": "view",
      "type": "function",
      "constant": true
    },
    {
      "inputs": [],
      "name": "symbol",
      "outputs": [
        {
          "internalType": "string",
          "name": "",
          "type": "string"
        }
      ],
      "stateMutability": "view",
      "type": "function",
      "constant": true
    },
    {
      "inputs": [
        {
          "internalType": "uint256",
          "name": "tokenId",
          "type": "uint256"
        }
      ],
      "name": "tokenURI",
      "outputs": [
        {
          "internalType": "string",
          "name": "",
          "type": "string"
        }
      ],
      "stateMutability": "view",
      "type": "function",
      "constant": true
    },
    {
      "inputs": [
        {
          "internalType": "address",
          "name": "from",
          "type": "address"
        },
        {
          "internalType": "address",
          "name": "to",
          "type": "address"
        },
        {
          "internalType": "uint256",
          "name": "tokenId",
          "type": "uint256"
        }
      ],
      "name": "transferFrom",
      "outputs": [],
      "stateMutability": "nonpayable",
      "type": "function"
    },
    {
      "inputs": [
        {
          "internalType": "address",
          "name": "newOwner",
          "type": "address"
        }
      ],
      "name": "transferOwnership",
      "outputs": [],
      "stateMutability": "nonpayable",
      "type": "function"
    },
    {
      "inputs": [
        {
          "internalType": "address",
          "name": "",
          "type": "address"
        },
        {
          "internalType": "uint256",
          "name": "",
          "type": "uint256"
        }
      ],
      "name": "userOwnedCards",
      "outputs": [
        {
          "internalType": "uint256",
          "name": "",
          "type": "uint256"
        }
      ],
      "stateMutability": "view",
      "type": "function",
      "constant": true
    },
    {
      "inputs": [
        {
          "internalType": "address",
          "name": "recipient",
          "type": "address"
        },
        {
          "internalType": "string",
          "name": "cardURI",
          "type": "string"
        }
      ],
      "name": "mintCard",
      "outputs": [],
      "stateMutability": "payable",
      "type": "function",
      "payable": true
    },
    {
      "inputs": [
        {
          "internalType": "address",
          "name": "owner",
          "type": "address"
        }
      ],
      "name": "getCardsByOwner",
      "outputs": [
        {
          "components": [
            {
              "internalType": "string",
              "name": "uri",
              "type": "string"
            },
            {
              "internalType": "uint256",
              "name": "id",
              "type": "uint256"
            },
            {
              "internalType": "bool",
              "name": "inMarket",
              "type": "bool"
            },
            {
              "internalType": "address",
              "name": "owner",
              "type": "address"
            }
          ],
          "internalType": "struct Card.cardResponse[]",
          "name": "",
          "type": "tuple[]"
        }
      ],
      "stateMutability": "view",
      "type": "function",
      "constant": true
    },
    {
      "inputs": [],
      "name": "getMarketCards",
      "outputs": [
        {
          "components": [
            {
              "internalType": "string",
              "name": "uri",
              "type": "string"
            },
            {
              "internalType": "uint256",
              "name": "id",
              "type": "uint256"
            },
            {
              "internalType": "bool",
              "name": "inMarket",
              "type": "bool"
            },
            {
              "internalType": "address",
              "name": "owner",
              "type": "address"
            }
          ],
          "internalType": "struct Card.cardResponse[]",
          "name": "",
          "type": "tuple[]"
        }
      ],
      "stateMutability": "view",
      "type": "function",
      "constant": true
    },
    {
      "inputs": [
        {
          "internalType": "address",
          "name": "_buyer",
          "type": "address"
        },
        {
          "internalType": "uint256",
          "name": "_cardId",
          "type": "uint256"
        }
      ],
      "name": "buyCard",
      "outputs": [],
      "stateMutability": "payable",
      "type": "function",
      "payable": true
    },
    {
      "inputs": [
        {
          "internalType": "address",
          "name": "_to",
          "type": "address"
        },
        {
          "internalType": "uint256",
          "name": "_cardId",
          "type": "uint256"
        }
      ],
      "name": "sendCard",
      "outputs": [],
      "stateMutability": "payable",
      "type": "function",
      "payable": true
    },
    {
      "inputs": [
        {
          "internalType": "uint256",
          "name": "_cardId",
          "type": "uint256"
        }
      ],
      "name": "saleCard",
      "outputs": [],
      "stateMutability": "payable",
      "type": "function",
      "payable": true
    },
    {
      "inputs": [
        {
          "internalType": "uint256",
          "name": "_cardId",
          "type": "uint256"
        }
      ],
      "name": "stopSallingCard",
      "outputs": [],
      "stateMutability": "nonpayable",
      "type": "function"
    }
  ],
  "bytecode": "0x60806040523480156200001157600080fd5b506040518060400160405280600881526020017f43617264204e46540000000000000000000000000000000000000000000000008152506040518060400160405280600381526020017f4e46540000000000000000000000000000000000000000000000000000000000815250816000908051906020019062000096929190620001a6565b508060019080519060200190620000af929190620001a6565b505050620000d2620000c6620000d860201b60201c565b620000e060201b60201c565b620002bb565b600033905090565b6000600760009054906101000a900473ffffffffffffffffffffffffffffffffffffffff16905081600760006101000a81548173ffffffffffffffffffffffffffffffffffffffff021916908373ffffffffffffffffffffffffffffffffffffffff1602179055508173ffffffffffffffffffffffffffffffffffffffff168173ffffffffffffffffffffffffffffffffffffffff167f8be0079c531659141344cd1fd0a4f28419497f9722a3daafe3b4186f6b6457e060405160405180910390a35050565b828054620001b49062000256565b90600052602060002090601f016020900481019282620001d8576000855562000224565b82601f10620001f357805160ff191683800117855562000224565b8280016001018555821562000224579182015b828111156200022357825182559160200191906001019062000206565b5b50905062000233919062000237565b5090565b5b808211156200025257600081600090555060010162000238565b5090565b600060028204905060018216806200026f57607f821691505b602082108114156200028657620002856200028c565b5b50919050565b7f4e487b7100000000000000000000000000000000000000000000000000000000600052602260045260246000fd5b6144f880620002cb6000396000f3fe6080604052600436106101665760003560e01c80637dd9f846116100d1578063b88d4fde1161008a578063cd7e53cc11610064578063cd7e53cc14610523578063e985e9c51461053f578063eba73c7c1461057c578063f2fde38b146105b957610166565b8063b88d4fde14610492578063bbf1bceb146104bb578063c87b56dd146104e657610166565b80637dd9f8461461039e5780638da5cb5b146103ba57806395d89b41146103e55780639b3ce46e14610410578063a22cb4651461044d578063b128489c1461047657610166565b806323b872dd1161012357806323b872dd1461029257806342842e0e146102bb5780636352211e146102e45780636b544ada1461032157806370a082311461034a578063715018a61461038757610166565b806301ffc9a71461016b57806306fdde03146101a8578063081812fc146101d3578063095ea7b314610210578063150b7a02146102395780631aae61f214610276575b600080fd5b34801561017757600080fd5b50610192600480360381019061018d9190613229565b6105e2565b60405161019f91906138aa565b60405180910390f35b3480156101b457600080fd5b506101bd6106c4565b6040516101ca91906138e0565b60405180910390f35b3480156101df57600080fd5b506101fa60048036038101906101f59190613283565b610756565b60405161020791906137c1565b60405180910390f35b34801561021c57600080fd5b50610237600480360381019061023291906131e9565b61079c565b005b34801561024557600080fd5b50610260600480360381019061025b91906130ca565b6108b4565b60405161026d91906138c5565b60405180910390f35b610290600480360381019061028b9190613283565b6108c8565b005b34801561029e57600080fd5b506102b960048036038101906102b49190613077565b61099b565b005b3480156102c757600080fd5b506102e260048036038101906102dd9190613077565b6109fb565b005b3480156102f057600080fd5b5061030b60048036038101906103069190613283565b610a1b565b60405161031891906137c1565b60405180910390f35b34801561032d57600080fd5b5061034860048036038101906103439190613283565b610aa2565b005b34801561035657600080fd5b50610371600480360381019061036c919061300a565b610b4b565b60405161037e9190613b82565b60405180910390f35b34801561039357600080fd5b5061039c610c03565b005b6103b860048036038101906103b391906131e9565b610c17565b005b3480156103c657600080fd5b506103cf610dc7565b6040516103dc91906137c1565b60405180910390f35b3480156103f157600080fd5b506103fa610df1565b60405161040791906138e0565b60405180910390f35b34801561041c57600080fd5b50610437600480360381019061043291906131e9565b610e83565b6040516104449190613b82565b60405180910390f35b34801561045957600080fd5b50610474600480360381019061046f919061314d565b610eb4565b005b610490600480360381019061048b91906131e9565b610eca565b005b34801561049e57600080fd5b506104b960048036038101906104b491906130ca565b610fae565b005b3480156104c757600080fd5b506104d0611010565b6040516104dd9190613888565b60405180910390f35b3480156104f257600080fd5b5061050d60048036038101906105089190613283565b6111c9565b60405161051a91906138e0565b60405180910390f35b61053d6004803603810190610538919061318d565b6112dc565b005b34801561054b57600080fd5b5061056660048036038101906105619190613037565b6113ae565b60405161057391906138aa565b60405180910390f35b34801561058857600080fd5b506105a3600480360381019061059e919061300a565b611442565b6040516105b09190613888565b60405180910390f35b3480156105c557600080fd5b506105e060048036038101906105db919061300a565b6116c1565b005b60007f80ac58cd000000000000000000000000000000000000000000000000000000007bffffffffffffffffffffffffffffffffffffffffffffffffffffffff1916827bffffffffffffffffffffffffffffffffffffffffffffffffffffffff191614806106ad57507f5b5e139f000000000000000000000000000000000000000000000000000000007bffffffffffffffffffffffffffffffffffffffffffffffffffffffff1916827bffffffffffffffffffffffffffffffffffffffffffffffffffffffff1916145b806106bd57506106bc82611745565b5b9050919050565b6060600080546106d390613df1565b80601f01602080910402602001604051908101604052809291908181526020018280546106ff90613df1565b801561074c5780601f106107215761010080835404028352916020019161074c565b820191906000526020600020905b81548152906001019060200180831161072f57829003601f168201915b5050505050905090565b6000610761826117af565b6004600083815260200190815260200160002060009054906101000a900473ffffffffffffffffffffffffffffffffffffffff169050919050565b60006107a782610a1b565b90508073ffffffffffffffffffffffffffffffffffffffff168373ffffffffffffffffffffffffffffffffffffffff161415610818576040517f08c379a000000000000000000000000000000000000000000000000000000000815260040161080f90613b42565b60405180910390fd5b8073ffffffffffffffffffffffffffffffffffffffff166108376117fa565b73ffffffffffffffffffffffffffffffffffffffff1614806108665750610865816108606117fa565b6113ae565b5b6108a5576040517f08c379a000000000000000000000000000000000000000000000000000000000815260040161089c90613b62565b60405180910390fd5b6108af8383611802565b505050565b600063150b7a0260e01b9050949350505050565b806108d333826118bb565b6108dc57600080fd5b600015156108e9836119e0565b15151461092b576040517f08c379a000000000000000000000000000000000000000000000000000000000815260040161092290613b02565b60405180910390fd5b600982908060018154018082558091505060019003906000526020600020016000909190919091505561095e308361079c565b7fdb9a062b6bc6ee2a4c04ee6513d69276e2200960f930f3f4154c17d9deb21353338360405161098f92919061385f565b60405180910390a15050565b6109ac6109a66117fa565b82611a46565b6109eb576040517f08c379a00000000000000000000000000000000000000000000000000000000081526004016109e290613922565b60405180910390fd5b6109f6838383611adb565b505050565b610a1683838360405180602001604052806000815250610fae565b505050565b600080610a2783611dd5565b9050600073ffffffffffffffffffffffffffffffffffffffff168173ffffffffffffffffffffffffffffffffffffffff161415610a99576040517f08c379a0000000000000000000000000000000000000000000000000000000008152600401610a9090613b22565b60405180910390fd5b80915050919050565b80610aad33826118bb565b610ab657600080fd5b60011515610ac3836119e0565b151514610b05576040517f08c379a0000000000000000000000000000000000000000000000000000000008152600401610afc90613ae2565b60405180910390fd5b610b0e82611e12565b7fffe90d17a49973632042b2b5fb67f81dca190d22f391163bf9329f627844ebea3383604051610b3f92919061385f565b60405180910390a15050565b60008073ffffffffffffffffffffffffffffffffffffffff168273ffffffffffffffffffffffffffffffffffffffff161415610bbc576040517f08c379a0000000000000000000000000000000000000000000000000000000008152600401610bb390613a22565b60405180910390fd5b600360008373ffffffffffffffffffffffffffffffffffffffff1673ffffffffffffffffffffffffffffffffffffffff168152602001908152602001600020549050919050565b610c0b611edf565b610c156000611f5d565b565b610c2081612023565b610c5f576040517f08c379a0000000000000000000000000000000000000000000000000000000008152600401610c5690613a62565b60405180910390fd5b348273ffffffffffffffffffffffffffffffffffffffff16311015610cb9576040517f08c379a0000000000000000000000000000000000000000000000000000000008152600401610cb090613aa2565b60405180910390fd5b6000610cc482610a1b565b90508073ffffffffffffffffffffffffffffffffffffffff168373ffffffffffffffffffffffffffffffffffffffff161415610d35576040517f08c379a0000000000000000000000000000000000000000000000000000000008152600401610d2c90613902565b60405180910390fd5b610d40818484612064565b8073ffffffffffffffffffffffffffffffffffffffff166108fc349081150290604051600060405180830381858888f19350505050158015610d86573d6000803e3d6000fd5b507faedda60d9a710711cc9a1bdbd68cd49b2a25b0aa4e44a2ce258970ccf9dd7fd9818434604051610dba939291906137dc565b60405180910390a1505050565b6000600760009054906101000a900473ffffffffffffffffffffffffffffffffffffffff16905090565b606060018054610e0090613df1565b80601f0160208091040260200160405190810160405280929190818152602001828054610e2c90613df1565b8015610e795780601f10610e4e57610100808354040283529160200191610e79565b820191906000526020600020905b815481529060010190602001808311610e5c57829003601f168201915b5050505050905090565b600a6020528160005260406000208181548110610e9f57600080fd5b90600052602060002001600091509150505481565b610ec6610ebf6117fa565b8383612157565b5050565b80610ed533826118bb565b610ede57600080fd5b6000610ee983610a1b565b90508073ffffffffffffffffffffffffffffffffffffffff168473ffffffffffffffffffffffffffffffffffffffff161415610f5a576040517f08c379a0000000000000000000000000000000000000000000000000000000008152600401610f51906139c2565b60405180910390fd5b610f64308461079c565b610f6f818585612064565b7f04c78b36c5c8b4266f7e9b357cee34468871dfd46f04303368ce87ee5b0324198484604051610fa092919061385f565b60405180910390a150505050565b610fbf610fb96117fa565b83611a46565b610ffe576040517f08c379a0000000000000000000000000000000000000000000000000000000008152600401610ff590613922565b60405180910390fd5b61100a848484846122c4565b50505050565b60606000600980549050905060008167ffffffffffffffff81111561103857611037613f88565b5b60405190808252806020026020018201604052801561107157816020015b61105e612dde565b8152602001906001900390816110565790505b50905060005b828110156111c0576110a66009828154811061109657611095613f59565b5b90600052602060002001546111c9565b8282815181106110b9576110b8613f59565b5b602002602001015160000181905250600981815481106110dc576110db613f59565b5b90600052602060002001548282815181106110fa576110f9613f59565b5b60200260200101516020018181525050600182828151811061111f5761111e613f59565b5b6020026020010151604001901515908115158152505061115c6009828154811061114c5761114b613f59565b5b9060005260206000200154610a1b565b82828151811061116f5761116e613f59565b5b60200260200101516060019073ffffffffffffffffffffffffffffffffffffffff16908173ffffffffffffffffffffffffffffffffffffffff168152505080806111b890613e54565b915050611077565b50809250505090565b60606111d4826117af565b60006006600084815260200190815260200160002080546111f490613df1565b80601f016020809104026020016040519081016040528092919081815260200182805461122090613df1565b801561126d5780601f106112425761010080835404028352916020019161126d565b820191906000526020600020905b81548152906001019060200180831161125057829003601f168201915b50505050509050600061127e612320565b90506000815114156112945781925050506112d7565b6000825111156112c95780826040516020016112b192919061379d565b604051602081830303815290604052925050506112d7565b6112d284612337565b925050505b919050565b6112e4611edf565b6112ee600861239f565b60006112fa60086123b5565b905061130683826123c3565b61131081836123e1565b61131a308261079c565b600a60008473ffffffffffffffffffffffffffffffffffffffff1673ffffffffffffffffffffffffffffffffffffffff1681526020019081526020016000208190806001815401808255809150506001900390600052602060002001600090919091909150556009819080600181540180825580915050600190039060005260206000200160009091909190915055505050565b6000600560008473ffffffffffffffffffffffffffffffffffffffff1673ffffffffffffffffffffffffffffffffffffffff16815260200190815260200160002060008373ffffffffffffffffffffffffffffffffffffffff1673ffffffffffffffffffffffffffffffffffffffff16815260200190815260200160002060009054906101000a900460ff16905092915050565b60606000600a60008473ffffffffffffffffffffffffffffffffffffffff1673ffffffffffffffffffffffffffffffffffffffff16815260200190815260200160002080549050905060008167ffffffffffffffff8111156114a7576114a6613f88565b5b6040519080825280602002602001820160405280156114e057816020015b6114cd612dde565b8152602001906001900390816114c55790505b5090506000600980549050905060005b838110156116b5576000600a60008873ffffffffffffffffffffffffffffffffffffffff1673ffffffffffffffffffffffffffffffffffffffff168152602001908152602001600020828154811061154b5761154a613f59565b5b90600052602060002001549050611561816111c9565b84838151811061157457611573613f59565b5b6020026020010151600001819052508084838151811061159757611596613f59565b5b6020026020010151602001818152505060008483815181106115bc576115bb613f59565b5b602002602001015160400190151590811515815250506115db81610a1b565b8483815181106115ee576115ed613f59565b5b60200260200101516060019073ffffffffffffffffffffffffffffffffffffffff16908173ffffffffffffffffffffffffffffffffffffffff168152505060005b838110156116a057816009828154811061164c5761164b613f59565b5b9060005260206000200154141561168d57600185848151811061167257611671613f59565b5b602002602001015160400190151590811515815250506116a0565b808061169890613e54565b91505061162f565b505080806116ad90613e54565b9150506114f0565b50819350505050919050565b6116c9611edf565b600073ffffffffffffffffffffffffffffffffffffffff168173ffffffffffffffffffffffffffffffffffffffff161415611739576040517f08c379a000000000000000000000000000000000000000000000000000000000815260040161173090613962565b60405180910390fd5b61174281611f5d565b50565b60007f01ffc9a7000000000000000000000000000000000000000000000000000000007bffffffffffffffffffffffffffffffffffffffffffffffffffffffff1916827bffffffffffffffffffffffffffffffffffffffffffffffffffffffff1916149050919050565b6117b881612023565b6117f7576040517f08c379a00000000000000000000000000000000000000000000000000000000081526004016117ee90613b22565b60405180910390fd5b50565b600033905090565b816004600083815260200190815260200160002060006101000a81548173ffffffffffffffffffffffffffffffffffffffff021916908373ffffffffffffffffffffffffffffffffffffffff160217905550808273ffffffffffffffffffffffffffffffffffffffff1661187583610a1b565b73ffffffffffffffffffffffffffffffffffffffff167f8c5be1e5ebec7d5bd14f71427d1e84f3dd0314c0f7b2291e5b200ac8c7c3b92560405160405180910390a45050565b6000808373ffffffffffffffffffffffffffffffffffffffff166118de84610a1b565b73ffffffffffffffffffffffffffffffffffffffff1614905080156119d4576000600a60008673ffffffffffffffffffffffffffffffffffffffff1673ffffffffffffffffffffffffffffffffffffffff16815260200190815260200160002080549050905060005b818110156119d15784600a60008873ffffffffffffffffffffffffffffffffffffffff1673ffffffffffffffffffffffffffffffffffffffff16815260200190815260200160002082815481106119a1576119a0613f59565b5b906000526020600020015414156119be57600193505050506119da565b80806119c990613e54565b915050611947565b50505b60009150505b92915050565b600080600980549050905060005b81811015611a3a578360098281548110611a0b57611a0a613f59565b5b90600052602060002001541415611a2757600192505050611a41565b8080611a3290613e54565b9150506119ee565b5060009150505b919050565b600080611a5283610a1b565b90508073ffffffffffffffffffffffffffffffffffffffff168473ffffffffffffffffffffffffffffffffffffffff161480611a945750611a9381856113ae565b5b80611ad257508373ffffffffffffffffffffffffffffffffffffffff16611aba84610756565b73ffffffffffffffffffffffffffffffffffffffff16145b91505092915050565b8273ffffffffffffffffffffffffffffffffffffffff16611afb82610a1b565b73ffffffffffffffffffffffffffffffffffffffff1614611b51576040517f08c379a0000000000000000000000000000000000000000000000000000000008152600401611b4890613982565b60405180910390fd5b600073ffffffffffffffffffffffffffffffffffffffff168273ffffffffffffffffffffffffffffffffffffffff161415611bc1576040517f08c379a0000000000000000000000000000000000000000000000000000000008152600401611bb8906139e2565b60405180910390fd5b611bce8383836001612455565b8273ffffffffffffffffffffffffffffffffffffffff16611bee82610a1b565b73ffffffffffffffffffffffffffffffffffffffff1614611c44576040517f08c379a0000000000000000000000000000000000000000000000000000000008152600401611c3b90613982565b60405180910390fd5b6004600082815260200190815260200160002060006101000a81549073ffffffffffffffffffffffffffffffffffffffff02191690556001600360008573ffffffffffffffffffffffffffffffffffffffff1673ffffffffffffffffffffffffffffffffffffffff168152602001908152602001600020600082825403925050819055506001600360008473ffffffffffffffffffffffffffffffffffffffff1673ffffffffffffffffffffffffffffffffffffffff16815260200190815260200160002060008282540192505081905550816002600083815260200190815260200160002060006101000a81548173ffffffffffffffffffffffffffffffffffffffff021916908373ffffffffffffffffffffffffffffffffffffffff160217905550808273ffffffffffffffffffffffffffffffffffffffff168473ffffffffffffffffffffffffffffffffffffffff167fddf252ad1be2c89b69c2b068fc378daa952ba7f163c4a11628f55a4df523b3ef60405160405180910390a4611dd0838383600161257b565b505050565b60006002600083815260200190815260200160002060009054906101000a900473ffffffffffffffffffffffffffffffffffffffff169050919050565b6000600980549050905060005b81811015611eda578260098281548110611e3c57611e3b613f59565b5b90600052602060002001541415611ec7576009600183611e5c9190613d07565b81548110611e6d57611e6c613f59565b5b906000526020600020015460098281548110611e8c57611e8b613f59565b5b90600052602060002001819055506009805480611eac57611eab613f2a565b5b60019003818190600052602060002001600090559055611eda565b8080611ed290613e54565b915050611e1f565b505050565b611ee76117fa565b73ffffffffffffffffffffffffffffffffffffffff16611f05610dc7565b73ffffffffffffffffffffffffffffffffffffffff1614611f5b576040517f08c379a0000000000000000000000000000000000000000000000000000000008152600401611f5290613ac2565b60405180910390fd5b565b6000600760009054906101000a900473ffffffffffffffffffffffffffffffffffffffff16905081600760006101000a81548173ffffffffffffffffffffffffffffffffffffffff021916908373ffffffffffffffffffffffffffffffffffffffff1602179055508173ffffffffffffffffffffffffffffffffffffffff168173ffffffffffffffffffffffffffffffffffffffff167f8be0079c531659141344cd1fd0a4f28419497f9722a3daafe3b4186f6b6457e060405160405180910390a35050565b60008073ffffffffffffffffffffffffffffffffffffffff1661204583611dd5565b73ffffffffffffffffffffffffffffffffffffffff1614159050919050565b61206e8382612581565b61207781611e12565b600a60008373ffffffffffffffffffffffffffffffffffffffff1673ffffffffffffffffffffffffffffffffffffffff16815260200190815260200160002081908060018154018082558091505060019003906000526020600020016000909190919091505560003090508073ffffffffffffffffffffffffffffffffffffffff166323b872dd8585856040518463ffffffff1660e01b815260040161211f939291906137dc565b600060405180830381600087803b15801561213957600080fd5b505af115801561214d573d6000803e3d6000fd5b5050505050505050565b8173ffffffffffffffffffffffffffffffffffffffff168373ffffffffffffffffffffffffffffffffffffffff1614156121c6576040517f08c379a00000000000000000000000000000000000000000000000000000000081526004016121bd90613a02565b60405180910390fd5b80600560008573ffffffffffffffffffffffffffffffffffffffff1673ffffffffffffffffffffffffffffffffffffffff16815260200190815260200160002060008473ffffffffffffffffffffffffffffffffffffffff1673ffffffffffffffffffffffffffffffffffffffff16815260200190815260200160002060006101000a81548160ff0219169083151502179055508173ffffffffffffffffffffffffffffffffffffffff168373ffffffffffffffffffffffffffffffffffffffff167f17307eab39ab6107e8899845ad3d59bd9653f200f220920489ca2b5937696c31836040516122b791906138aa565b60405180910390a3505050565b6122cf848484611adb565b6122db84848484612780565b61231a576040517f08c379a000000000000000000000000000000000000000000000000000000000815260040161231190613942565b60405180910390fd5b50505050565b606060405180602001604052806000815250905090565b6060612342826117af565b600061234c612320565b9050600081511161236c5760405180602001604052806000815250612397565b8061237684612917565b60405160200161238792919061379d565b6040516020818303038152906040525b915050919050565b6001816000016000828254019250508190555050565b600081600001549050919050565b6123dd8282604051806020016040528060008152506129ef565b5050565b6123ea82612023565b612429576040517f08c379a000000000000000000000000000000000000000000000000000000000815260040161242090613a42565b60405180910390fd5b80600660008481526020019081526020016000209080519060200190612450929190612e1e565b505050565b600181111561257557600073ffffffffffffffffffffffffffffffffffffffff168473ffffffffffffffffffffffffffffffffffffffff16146124e95780600360008673ffffffffffffffffffffffffffffffffffffffff1673ffffffffffffffffffffffffffffffffffffffff16815260200190815260200160002060008282546124e19190613d07565b925050819055505b600073ffffffffffffffffffffffffffffffffffffffff168373ffffffffffffffffffffffffffffffffffffffff16146125745780600360008573ffffffffffffffffffffffffffffffffffffffff1673ffffffffffffffffffffffffffffffffffffffff168152602001908152602001600020600082825461256c9190613cb1565b925050819055505b5b50505050565b50505050565b6000600a60008473ffffffffffffffffffffffffffffffffffffffff1673ffffffffffffffffffffffffffffffffffffffff16815260200190815260200160002080549050905060005b8181101561277a5782600a60008673ffffffffffffffffffffffffffffffffffffffff1673ffffffffffffffffffffffffffffffffffffffff168152602001908152602001600020828154811061262557612624613f59565b5b9060005260206000200154141561276757600a60008573ffffffffffffffffffffffffffffffffffffffff1673ffffffffffffffffffffffffffffffffffffffff1681526020019081526020016000206001836126829190613d07565b8154811061269357612692613f59565b5b9060005260206000200154600a60008673ffffffffffffffffffffffffffffffffffffffff1673ffffffffffffffffffffffffffffffffffffffff16815260200190815260200160002082815481106126ef576126ee613f59565b5b9060005260206000200181905550600a60008573ffffffffffffffffffffffffffffffffffffffff1673ffffffffffffffffffffffffffffffffffffffff16815260200190815260200160002080548061274c5761274b613f2a565b5b6001900381819060005260206000200160009055905561277a565b808061277290613e54565b9150506125cb565b50505050565b60006127a18473ffffffffffffffffffffffffffffffffffffffff16612a4a565b1561290a578373ffffffffffffffffffffffffffffffffffffffff1663150b7a026127ca6117fa565b8786866040518563ffffffff1660e01b81526004016127ec9493929190613813565b602060405180830381600087803b15801561280657600080fd5b505af192505050801561283757506040513d601f19601f820116820180604052508101906128349190613256565b60015b6128ba573d8060008114612867576040519150601f19603f3d011682016040523d82523d6000602084013e61286c565b606091505b506000815114156128b2576040517f08c379a00000000000000000000000000000000000000000000000000000000081526004016128a990613942565b60405180910390fd5b805181602001fd5b63150b7a0260e01b7bffffffffffffffffffffffffffffffffffffffffffffffffffffffff1916817bffffffffffffffffffffffffffffffffffffffffffffffffffffffff19161491505061290f565b600190505b949350505050565b60606000600161292684612a6d565b01905060008167ffffffffffffffff81111561294557612944613f88565b5b6040519080825280601f01601f1916602001820160405280156129775781602001600182028036833780820191505090505b509050600082602001820190505b6001156129e4578080600190039150507f3031323334353637383961626364656600000000000000000000000000000000600a86061a8153600a85816129ce576129cd613ecc565b5b04945060008514156129df576129e4565b612985565b819350505050919050565b6129f98383612bc0565b612a066000848484612780565b612a45576040517f08c379a0000000000000000000000000000000000000000000000000000000008152600401612a3c90613942565b60405180910390fd5b505050565b6000808273ffffffffffffffffffffffffffffffffffffffff163b119050919050565b600080600090507a184f03e93ff9f4daa797ed6e38ed64bf6a1f0100000000000000008310612acb577a184f03e93ff9f4daa797ed6e38ed64bf6a1f0100000000000000008381612ac157612ac0613ecc565b5b0492506040810190505b6d04ee2d6d415b85acef81000000008310612b08576d04ee2d6d415b85acef81000000008381612afe57612afd613ecc565b5b0492506020810190505b662386f26fc100008310612b3757662386f26fc100008381612b2d57612b2c613ecc565b5b0492506010810190505b6305f5e1008310612b60576305f5e1008381612b5657612b55613ecc565b5b0492506008810190505b6127108310612b85576127108381612b7b57612b7a613ecc565b5b0492506004810190505b60648310612ba85760648381612b9e57612b9d613ecc565b5b0492506002810190505b600a8310612bb7576001810190505b80915050919050565b600073ffffffffffffffffffffffffffffffffffffffff168273ffffffffffffffffffffffffffffffffffffffff161415612c30576040517f08c379a0000000000000000000000000000000000000000000000000000000008152600401612c2790613a82565b60405180910390fd5b612c3981612023565b15612c79576040517f08c379a0000000000000000000000000000000000000000000000000000000008152600401612c70906139a2565b60405180910390fd5b612c87600083836001612455565b612c9081612023565b15612cd0576040517f08c379a0000000000000000000000000000000000000000000000000000000008152600401612cc7906139a2565b60405180910390fd5b6001600360008473ffffffffffffffffffffffffffffffffffffffff1673ffffffffffffffffffffffffffffffffffffffff16815260200190815260200160002060008282540192505081905550816002600083815260200190815260200160002060006101000a81548173ffffffffffffffffffffffffffffffffffffffff021916908373ffffffffffffffffffffffffffffffffffffffff160217905550808273ffffffffffffffffffffffffffffffffffffffff16600073ffffffffffffffffffffffffffffffffffffffff167fddf252ad1be2c89b69c2b068fc378daa952ba7f163c4a11628f55a4df523b3ef60405160405180910390a4612dda60008383600161257b565b5050565b60405180608001604052806060815260200160008152602001600015158152602001600073ffffffffffffffffffffffffffffffffffffffff1681525090565b828054612e2a90613df1565b90600052602060002090601f016020900481019282612e4c5760008555612e93565b82601f10612e6557805160ff1916838001178555612e93565b82800160010185558215612e93579182015b82811115612e92578251825591602001919060010190612e77565b5b509050612ea09190612ea4565b5090565b5b80821115612ebd576000816000905550600101612ea5565b5090565b6000612ed4612ecf84613bc2565b613b9d565b905082815260208101848484011115612ef057612eef613fbc565b5b612efb848285613daf565b509392505050565b6000612f16612f1184613bf3565b613b9d565b905082815260208101848484011115612f3257612f31613fbc565b5b612f3d848285613daf565b509392505050565b600081359050612f5481614466565b92915050565b600081359050612f698161447d565b92915050565b600081359050612f7e81614494565b92915050565b600081519050612f9381614494565b92915050565b600082601f830112612fae57612fad613fb7565b5b8135612fbe848260208601612ec1565b91505092915050565b600082601f830112612fdc57612fdb613fb7565b5b8135612fec848260208601612f03565b91505092915050565b600081359050613004816144ab565b92915050565b6000602082840312156130205761301f613fc6565b5b600061302e84828501612f45565b91505092915050565b6000806040838503121561304e5761304d613fc6565b5b600061305c85828601612f45565b925050602061306d85828601612f45565b9150509250929050565b6000806000606084860312156130905761308f613fc6565b5b600061309e86828701612f45565b93505060206130af86828701612f45565b92505060406130c086828701612ff5565b9150509250925092565b600080600080608085870312156130e4576130e3613fc6565b5b60006130f287828801612f45565b945050602061310387828801612f45565b935050604061311487828801612ff5565b925050606085013567ffffffffffffffff81111561313557613134613fc1565b5b61314187828801612f99565b91505092959194509250565b6000806040838503121561316457613163613fc6565b5b600061317285828601612f45565b925050602061318385828601612f5a565b9150509250929050565b600080604083850312156131a4576131a3613fc6565b5b60006131b285828601612f45565b925050602083013567ffffffffffffffff8111156131d3576131d2613fc1565b5b6131df85828601612fc7565b9150509250929050565b60008060408385031215613200576131ff613fc6565b5b600061320e85828601612f45565b925050602061321f85828601612ff5565b9150509250929050565b60006020828403121561323f5761323e613fc6565b5b600061324d84828501612f6f565b91505092915050565b60006020828403121561326c5761326b613fc6565b5b600061327a84828501612f84565b91505092915050565b60006020828403121561329957613298613fc6565b5b60006132a784828501612ff5565b91505092915050565b60006132bc838361371c565b905092915050565b6132cd81613d3b565b82525050565b6132dc81613d3b565b82525050565b60006132ed82613c34565b6132f78185613c62565b93508360208202850161330985613c24565b8060005b85811015613345578484038952815161332685826132b0565b945061333183613c55565b925060208a0199505060018101905061330d565b50829750879550505050505092915050565b61336081613d4d565b82525050565b61336f81613d4d565b82525050565b61337e81613d59565b82525050565b600061338f82613c3f565b6133998185613c73565b93506133a9818560208601613dbe565b6133b281613fcb565b840191505092915050565b60006133c882613c4a565b6133d28185613c84565b93506133e2818560208601613dbe565b6133eb81613fcb565b840191505092915050565b600061340182613c4a565b61340b8185613c95565b935061341b818560208601613dbe565b61342481613fcb565b840191505092915050565b600061343a82613c4a565b6134448185613ca6565b9350613454818560208601613dbe565b80840191505092915050565b600061346d601683613c95565b915061347882613fdc565b602082019050919050565b6000613490602d83613c95565b915061349b82614005565b604082019050919050565b60006134b3603283613c95565b91506134be82614054565b604082019050919050565b60006134d6602683613c95565b91506134e1826140a3565b604082019050919050565b60006134f9602583613c95565b9150613504826140f2565b604082019050919050565b600061351c601c83613c95565b915061352782614141565b602082019050919050565b600061353f601483613c95565b915061354a8261416a565b602082019050919050565b6000613562602483613c95565b915061356d82614193565b604082019050919050565b6000613585601983613c95565b9150613590826141e2565b602082019050919050565b60006135a8602983613c95565b91506135b38261420b565b604082019050919050565b60006135cb602e83613c95565b91506135d68261425a565b604082019050919050565b60006135ee601e83613c95565b91506135f9826142a9565b602082019050919050565b6000613611602083613c95565b915061361c826142d2565b602082019050919050565b6000613634601183613c95565b915061363f826142fb565b602082019050919050565b6000613657602083613c95565b915061366282614324565b602082019050919050565b600061367a601283613c95565b91506136858261434d565b602082019050919050565b600061369d601683613c95565b91506136a882614376565b602082019050919050565b60006136c0601883613c95565b91506136cb8261439f565b602082019050919050565b60006136e3602183613c95565b91506136ee826143c8565b604082019050919050565b6000613706603d83613c95565b915061371182614417565b604082019050919050565b6000608083016000830151848203600086015261373982826133bd565b915050602083015161374e602086018261377f565b5060408301516137616040860182613357565b50606083015161377460608601826132c4565b508091505092915050565b61378881613da5565b82525050565b61379781613da5565b82525050565b60006137a9828561342f565b91506137b5828461342f565b91508190509392505050565b60006020820190506137d660008301846132d3565b92915050565b60006060820190506137f160008301866132d3565b6137fe60208301856132d3565b61380b604083018461378e565b949350505050565b600060808201905061382860008301876132d3565b61383560208301866132d3565b613842604083018561378e565b81810360608301526138548184613384565b905095945050505050565b600060408201905061387460008301856132d3565b613881602083018461378e565b9392505050565b600060208201905081810360008301526138a281846132e2565b905092915050565b60006020820190506138bf6000830184613366565b92915050565b60006020820190506138da6000830184613375565b92915050565b600060208201905081810360008301526138fa81846133f6565b905092915050565b6000602082019050818103600083015261391b81613460565b9050919050565b6000602082019050818103600083015261393b81613483565b9050919050565b6000602082019050818103600083015261395b816134a6565b9050919050565b6000602082019050818103600083015261397b816134c9565b9050919050565b6000602082019050818103600083015261399b816134ec565b9050919050565b600060208201905081810360008301526139bb8161350f565b9050919050565b600060208201905081810360008301526139db81613532565b9050919050565b600060208201905081810360008301526139fb81613555565b9050919050565b60006020820190508181036000830152613a1b81613578565b9050919050565b60006020820190508181036000830152613a3b8161359b565b9050919050565b60006020820190508181036000830152613a5b816135be565b9050919050565b60006020820190508181036000830152613a7b816135e1565b9050919050565b60006020820190508181036000830152613a9b81613604565b9050919050565b60006020820190508181036000830152613abb81613627565b9050919050565b60006020820190508181036000830152613adb8161364a565b9050919050565b60006020820190508181036000830152613afb8161366d565b9050919050565b60006020820190508181036000830152613b1b81613690565b9050919050565b60006020820190508181036000830152613b3b816136b3565b9050919050565b60006020820190508181036000830152613b5b816136d6565b9050919050565b60006020820190508181036000830152613b7b816136f9565b9050919050565b6000602082019050613b97600083018461378e565b92915050565b6000613ba7613bb8565b9050613bb38282613e23565b919050565b6000604051905090565b600067ffffffffffffffff821115613bdd57613bdc613f88565b5b613be682613fcb565b9050602081019050919050565b600067ffffffffffffffff821115613c0e57613c0d613f88565b5b613c1782613fcb565b9050602081019050919050565b6000819050602082019050919050565b600081519050919050565b600081519050919050565b600081519050919050565b6000602082019050919050565b600082825260208201905092915050565b600082825260208201905092915050565b600082825260208201905092915050565b600082825260208201905092915050565b600081905092915050565b6000613cbc82613da5565b9150613cc783613da5565b9250827fffffffffffffffffffffffffffffffffffffffffffffffffffffffffffffffff03821115613cfc57613cfb613e9d565b5b828201905092915050565b6000613d1282613da5565b9150613d1d83613da5565b925082821015613d3057613d2f613e9d565b5b828203905092915050565b6000613d4682613d85565b9050919050565b60008115159050919050565b60007fffffffff0000000000000000000000000000000000000000000000000000000082169050919050565b600073ffffffffffffffffffffffffffffffffffffffff82169050919050565b6000819050919050565b82818337600083830152505050565b60005b83811015613ddc578082015181840152602081019050613dc1565b83811115613deb576000848401525b50505050565b60006002820490506001821680613e0957607f821691505b60208210811415613e1d57613e1c613efb565b5b50919050565b613e2c82613fcb565b810181811067ffffffffffffffff82111715613e4b57613e4a613f88565b5b80604052505050565b6000613e5f82613da5565b91507fffffffffffffffffffffffffffffffffffffffffffffffffffffffffffffffff821415613e9257613e91613e9d565b5b600182019050919050565b7f4e487b7100000000000000000000000000000000000000000000000000000000600052601160045260246000fd5b7f4e487b7100000000000000000000000000000000000000000000000000000000600052601260045260246000fd5b7f4e487b7100000000000000000000000000000000000000000000000000000000600052602260045260246000fd5b7f4e487b7100000000000000000000000000000000000000000000000000000000600052603160045260246000fd5b7f4e487b7100000000000000000000000000000000000000000000000000000000600052603260045260246000fd5b7f4e487b7100000000000000000000000000000000000000000000000000000000600052604160045260246000fd5b600080fd5b600080fd5b600080fd5b600080fd5b6000601f19601f8301169050919050565b7f43616e206e6f7420627579206f776e6564206361726400000000000000000000600082015250565b7f4552433732313a2063616c6c6572206973206e6f7420746f6b656e206f776e6560008201527f72206f7220617070726f76656400000000000000000000000000000000000000602082015250565b7f4552433732313a207472616e7366657220746f206e6f6e20455243373231526560008201527f63656976657220696d706c656d656e7465720000000000000000000000000000602082015250565b7f4f776e61626c653a206e6577206f776e657220697320746865207a65726f206160008201527f6464726573730000000000000000000000000000000000000000000000000000602082015250565b7f4552433732313a207472616e736665722066726f6d20696e636f72726563742060008201527f6f776e6572000000000000000000000000000000000000000000000000000000602082015250565b7f4552433732313a20746f6b656e20616c7265616479206d696e74656400000000600082015250565b7f43616e206e6f742073656e6420746f2073656c66000000000000000000000000600082015250565b7f4552433732313a207472616e7366657220746f20746865207a65726f2061646460008201527f7265737300000000000000000000000000000000000000000000000000000000602082015250565b7f4552433732313a20617070726f766520746f2063616c6c657200000000000000600082015250565b7f4552433732313a2061646472657373207a65726f206973206e6f74206120766160008201527f6c6964206f776e65720000000000000000000000000000000000000000000000602082015250565b7f45524337323155524953746f726167653a2055524920736574206f66206e6f6e60008201527f6578697374656e7420746f6b656e000000000000000000000000000000000000602082015250565b7f7472616e73666572206f66206e6f6e206578697374696e6720746f6b656e0000600082015250565b7f4552433732313a206d696e7420746f20746865207a65726f2061646472657373600082015250565b7f536f6c646520696e737566666973616e74000000000000000000000000000000600082015250565b7f4f776e61626c653a2063616c6c6572206973206e6f7420746865206f776e6572600082015250565b7f43617264206e6f7420696e206d61726b65740000000000000000000000000000600082015250565b7f4361726420616c726561647920696e206d61726b657400000000000000000000600082015250565b7f4552433732313a20696e76616c696420746f6b656e2049440000000000000000600082015250565b7f4552433732313a20617070726f76616c20746f2063757272656e74206f776e6560008201527f7200000000000000000000000000000000000000000000000000000000000000602082015250565b7f4552433732313a20617070726f76652063616c6c6572206973206e6f7420746f60008201527f6b656e206f776e6572206f7220617070726f76656420666f7220616c6c000000602082015250565b61446f81613d3b565b811461447a57600080fd5b50565b61448681613d4d565b811461449157600080fd5b50565b61449d81613d59565b81146144a857600080fd5b50565b6144b481613da5565b81146144bf57600080fd5b5056fea264697066735822122035be986cc0b712d55ecce9a5cc80fc1d85c5d145884228493af1231031d3648a64736f6c63430008070033",
  "immutableReferences": {},
  "source": "pragma solidity ^0.8.7;\r\n\r\nimport \"@openzeppelin/contracts/token/ERC721/ERC721.sol\";\r\nimport \"@openzeppelin/contracts/token/ERC721/extensions/ERC721URIStorage.sol\";\r\nimport \"@openzeppelin/contracts/token/ERC721/utils/ERC721Holder.sol\";\r\nimport \"@openzeppelin/contracts/utils/Counters.sol\";\r\nimport \"@openzeppelin/contracts/access/Ownable.sol\";\r\n\r\ncontract Card is ERC721URIStorage, Ownable, ERC721Holder {\r\n    // Structs\r\n    struct cardResponse {\r\n        string uri;\r\n        uint256 id;\r\n        bool inMarket;\r\n        address owner;\r\n    }\r\n\r\n    // props\r\n    using Counters for Counters.Counter;\r\n    Counters.Counter private _tokenIds;\r\n\r\n    uint256[] private market;\r\n\r\n    // modifiers\r\n    modifier onlyOwnerOf(uint _cardId) {\r\n        require(_ownerContainCard(msg.sender, _cardId));\r\n        _;\r\n    }\r\n\r\n    // events\r\n    event BuyCardEvent(address _seller, address _buyer, uint256 _price);\r\n    event SendCardEvent(address _to, uint256 _cardId);\r\n    event StopSellingCardEvent(address _owner, uint256 _cardId);\r\n    event SaleCardEvent(address _owner, uint256 _cardId);\r\n\r\n    //mappings\r\n    mapping(address => uint256[]) public userOwnedCards;\r\n\r\n    constructor() ERC721(\"Card NFT\", \"NFT\") {}\r\n\r\n    // private functions\r\n    function _removeCardFromOwner(address _owner, uint256 _cardId) private {\r\n        uint ownedCardsCount = userOwnedCards[_owner].length;\r\n        for (uint i = 0; i < ownedCardsCount; i++) {\r\n            if (userOwnedCards[_owner][i] == _cardId) {\r\n                userOwnedCards[_owner][i] = userOwnedCards[_owner][\r\n                    ownedCardsCount - 1\r\n                ];\r\n                userOwnedCards[_owner].pop();\r\n                break;\r\n            }\r\n        }\r\n    }\r\n\r\n    function _transferCard(\r\n        address _from,\r\n        address _to,\r\n        uint256 _cardId\r\n    ) private {\r\n        _removeCardFromOwner(_from, _cardId);\r\n        _removeCardFromMarket(_cardId);\r\n        userOwnedCards[_to].push(_cardId);\r\n        IERC721 nft = IERC721(address(this));\r\n        nft.transferFrom(_from, _to, _cardId);\r\n    }\r\n\r\n    function _ownerContainCard(\r\n        address _owner,\r\n        uint256 _cardId\r\n    ) private returns (bool) {\r\n        bool _isOwner = ownerOf(_cardId) == _owner;\r\n        if (_isOwner) {\r\n            uint ownedCardsCount = userOwnedCards[_owner].length;\r\n            for (uint i = 0; i < ownedCardsCount; i++) {\r\n                if (userOwnedCards[_owner][i] == _cardId) {\r\n                    return true;\r\n                }\r\n            }\r\n        }\r\n        return false;\r\n    }\r\n\r\n    function _isInMarket(uint256 _cardId) private returns (bool) {\r\n        uint cardsCount = market.length;\r\n        for (uint i = 0; i < cardsCount; i++) {\r\n            if (market[i] == _cardId) {\r\n                return true;\r\n            }\r\n        }\r\n        return false;\r\n    }\r\n\r\n    function _removeCardFromMarket(uint256 _cardId) private {\r\n        uint cardsCount = market.length;\r\n        for (uint i = 0; i < cardsCount; i++) {\r\n            if (market[i] == _cardId) {\r\n                market[i] = market[cardsCount - 1];\r\n                market.pop();\r\n                break;\r\n            }\r\n        }\r\n    }\r\n\r\n    // functions\r\n\r\n    function mintCard(\r\n        address recipient,\r\n        string memory cardURI\r\n    ) public payable onlyOwner {\r\n        _tokenIds.increment();\r\n        uint256 cardId = _tokenIds.current();\r\n        _safeMint(recipient, cardId);\r\n        _setTokenURI(cardId, cardURI);\r\n        approve(address(this), cardId);\r\n        userOwnedCards[recipient].push(cardId);\r\n        market.push(cardId);\r\n    }\r\n\r\n    function getCardsByOwner(\r\n        address owner\r\n    ) public view returns (cardResponse[] memory) {\r\n        uint ownedCardsCount = userOwnedCards[owner].length;\r\n        cardResponse[] memory result = new cardResponse[](ownedCardsCount);\r\n        uint cardsCount = market.length;\r\n        for (uint i = 0; i < ownedCardsCount; i++) {\r\n            uint256 cardId = userOwnedCards[owner][i];\r\n            result[i].uri = tokenURI(cardId);\r\n            result[i].id = cardId;\r\n            result[i].inMarket = false;\r\n            result[i].owner = ownerOf(cardId);\r\n            for (uint j = 0; j < cardsCount; j++) {\r\n                if (market[j] == cardId) {\r\n                    result[i].inMarket = true;\r\n                    break;\r\n                }\r\n            }\r\n        }\r\n        return result;\r\n    }\r\n\r\n    function getMarketCards() public view returns (cardResponse[] memory) {\r\n        uint cardsCount = market.length;\r\n        cardResponse[] memory result = new cardResponse[](cardsCount);\r\n\r\n        for (uint i = 0; i < cardsCount; i++) {\r\n            result[i].uri = tokenURI(market[i]);\r\n            result[i].id = market[i];\r\n            result[i].inMarket = true;\r\n            result[i].owner = ownerOf(market[i]);\r\n        }\r\n        return result;\r\n    }\r\n\r\n    function buyCard(address _buyer, uint256 _cardId) public payable {\r\n        require(_exists(_cardId), \"transfer of non existing token\");\r\n        require(_buyer.balance >= msg.value, \"Solde insuffisant\");\r\n        address _seller = ownerOf(_cardId);\r\n        require(_buyer != _seller, \"Can not buy owned card\");\r\n        _transferCard(_seller, payable(_buyer), _cardId);\r\n        payable(_seller).transfer(msg.value);\r\n        emit BuyCardEvent(_seller, _buyer, msg.value);\r\n    }\r\n\r\n    function sendCard(\r\n        address _to,\r\n        uint256 _cardId\r\n    ) public payable onlyOwnerOf(_cardId) {\r\n        address _seller = ownerOf(_cardId);\r\n        require(_to != _seller, \"Can not send to self\");\r\n        approve(address(this), _cardId);\r\n        _transferCard(_seller, payable(_to), _cardId);\r\n        emit SendCardEvent(_to, _cardId);\r\n    }\r\n\r\n    function saleCard(uint256 _cardId) public payable onlyOwnerOf(_cardId) {\r\n        require(_isInMarket(_cardId) == false, \"Card already in market\");\r\n        market.push(_cardId);\r\n        approve(address(this), _cardId);\r\n        emit SaleCardEvent(msg.sender, _cardId);\r\n    }\r\n\r\n    function stopSallingCard(uint256 _cardId) public onlyOwnerOf(_cardId) {\r\n        require(_isInMarket(_cardId) == true, \"Card not in market\");\r\n        _removeCardFromMarket(_cardId);\r\n        emit StopSellingCardEvent(msg.sender, _cardId);\r\n    }\r\n}\r\n",
  "sourcePath": "D:\\5Bloc\\5BLOC\\Blockchain\\contracts\\Card.sol",
  "compiler": {
    "name": "solc",
    "version": "0.8.7+commit.e28d00a7.Emscripten.clang"
  },
  "schemaVersion": "3.4.11",
  "updatedAt": "2022-12-12T19:04:45.336Z",
  "networkType": "ethereum",
  "devdoc": {
    "kind": "dev",
    "methods": {
      "approve(address,uint256)": {
        "details": "See {IERC721-approve}."
      },
      "balanceOf(address)": {
        "details": "See {IERC721-balanceOf}."
      },
      "getApproved(uint256)": {
        "details": "See {IERC721-getApproved}."
      },
      "isApprovedForAll(address,address)": {
        "details": "See {IERC721-isApprovedForAll}."
      },
      "name()": {
        "details": "See {IERC721Metadata-name}."
      },
      "onERC721Received(address,address,uint256,bytes)": {
        "details": "See {IERC721Receiver-onERC721Received}. Always returns `IERC721Receiver.onERC721Received.selector`."
      },
      "owner()": {
        "details": "Returns the address of the current owner."
      },
      "ownerOf(uint256)": {
        "details": "See {IERC721-ownerOf}."
      },
      "renounceOwnership()": {
        "details": "Leaves the contract without owner. It will not be possible to call `onlyOwner` functions anymore. Can only be called by the current owner. NOTE: Renouncing ownership will leave the contract without an owner, thereby removing any functionality that is only available to the owner."
      },
      "safeTransferFrom(address,address,uint256)": {
        "details": "See {IERC721-safeTransferFrom}."
      },
      "safeTransferFrom(address,address,uint256,bytes)": {
        "details": "See {IERC721-safeTransferFrom}."
      },
      "setApprovalForAll(address,bool)": {
        "details": "See {IERC721-setApprovalForAll}."
      },
      "supportsInterface(bytes4)": {
        "details": "See {IERC165-supportsInterface}."
      },
      "symbol()": {
        "details": "See {IERC721Metadata-symbol}."
      },
      "tokenURI(uint256)": {
        "details": "See {IERC721Metadata-tokenURI}."
      },
      "transferFrom(address,address,uint256)": {
        "details": "See {IERC721-transferFrom}."
      },
      "transferOwnership(address)": {
        "details": "Transfers ownership of the contract to a new account (`newOwner`). Can only be called by the current owner."
      }
    },
    "version": 1
  },
  "userdoc": {
    "kind": "user",
    "methods": {},
    "version": 1
  }
}