{
  "contractName": "Card",
  "abi": [
    {
      "inputs": [],
      "stateMutability": "nonpayable",
      "type": "constructor"
    },
    {
      "anonymous": false,
      "inputs": [
        {
          "indexed": true,
          "internalType": "address",
          "name": "owner",
          "type": "address"
        },
        {
          "indexed": true,
          "internalType": "address",
          "name": "approved",
          "type": "address"
        },
        {
          "indexed": true,
          "internalType": "uint256",
          "name": "tokenId",
          "type": "uint256"
        }
      ],
      "name": "Approval",
      "type": "event"
    },
    {
      "anonymous": false,
      "inputs": [
        {
          "indexed": true,
          "internalType": "address",
          "name": "owner",
          "type": "address"
        },
        {
          "indexed": true,
          "internalType": "address",
          "name": "operator",
          "type": "address"
        },
        {
          "indexed": false,
          "internalType": "bool",
          "name": "approved",
          "type": "bool"
        }
      ],
      "name": "ApprovalForAll",
      "type": "event"
    },
    {
      "anonymous": false,
      "inputs": [
        {
          "indexed": false,
          "internalType": "address",
          "name": "_seller",
          "type": "address"
        },
        {
          "indexed": false,
          "internalType": "address",
          "name": "_buyer",
          "type": "address"
        },
        {
          "indexed": false,
          "internalType": "uint256",
          "name": "_price",
          "type": "uint256"
        }
      ],
      "name": "NftBought",
      "type": "event"
    },
    {
      "anonymous": false,
      "inputs": [
        {
          "indexed": true,
          "internalType": "address",
          "name": "previousOwner",
          "type": "address"
        },
        {
          "indexed": true,
          "internalType": "address",
          "name": "newOwner",
          "type": "address"
        }
      ],
      "name": "OwnershipTransferred",
      "type": "event"
    },
    {
      "anonymous": false,
      "inputs": [
        {
          "indexed": true,
          "internalType": "address",
          "name": "from",
          "type": "address"
        },
        {
          "indexed": true,
          "internalType": "address",
          "name": "to",
          "type": "address"
        },
        {
          "indexed": true,
          "internalType": "uint256",
          "name": "tokenId",
          "type": "uint256"
        }
      ],
      "name": "Transfer",
      "type": "event"
    },
    {
      "inputs": [
        {
          "internalType": "address",
          "name": "to",
          "type": "address"
        },
        {
          "internalType": "uint256",
          "name": "tokenId",
          "type": "uint256"
        }
      ],
      "name": "approve",
      "outputs": [],
      "stateMutability": "nonpayable",
      "type": "function"
    },
    {
      "inputs": [
        {
          "internalType": "address",
          "name": "owner",
          "type": "address"
        }
      ],
      "name": "balanceOf",
      "outputs": [
        {
          "internalType": "uint256",
          "name": "",
          "type": "uint256"
        }
      ],
      "stateMutability": "view",
      "type": "function",
      "constant": true
    },
    {
      "inputs": [
        {
          "internalType": "uint256",
          "name": "tokenId",
          "type": "uint256"
        }
      ],
      "name": "getApproved",
      "outputs": [
        {
          "internalType": "address",
          "name": "",
          "type": "address"
        }
      ],
      "stateMutability": "view",
      "type": "function",
      "constant": true
    },
    {
      "inputs": [
        {
          "internalType": "address",
          "name": "owner",
          "type": "address"
        },
        {
          "internalType": "address",
          "name": "operator",
          "type": "address"
        }
      ],
      "name": "isApprovedForAll",
      "outputs": [
        {
          "internalType": "bool",
          "name": "",
          "type": "bool"
        }
      ],
      "stateMutability": "view",
      "type": "function",
      "constant": true
    },
    {
      "inputs": [],
      "name": "name",
      "outputs": [
        {
          "internalType": "string",
          "name": "",
          "type": "string"
        }
      ],
      "stateMutability": "view",
      "type": "function",
      "constant": true
    },
    {
      "inputs": [
        {
          "internalType": "address",
          "name": "",
          "type": "address"
        },
        {
          "internalType": "address",
          "name": "",
          "type": "address"
        },
        {
          "internalType": "uint256",
          "name": "",
          "type": "uint256"
        },
        {
          "internalType": "bytes",
          "name": "",
          "type": "bytes"
        }
      ],
      "name": "onERC721Received",
      "outputs": [
        {
          "internalType": "bytes4",
          "name": "",
          "type": "bytes4"
        }
      ],
      "stateMutability": "nonpayable",
      "type": "function"
    },
    {
      "inputs": [],
      "name": "owner",
      "outputs": [
        {
          "internalType": "address",
          "name": "",
          "type": "address"
        }
      ],
      "stateMutability": "view",
      "type": "function",
      "constant": true
    },
    {
      "inputs": [
        {
          "internalType": "uint256",
          "name": "tokenId",
          "type": "uint256"
        }
      ],
      "name": "ownerOf",
      "outputs": [
        {
          "internalType": "address",
          "name": "",
          "type": "address"
        }
      ],
      "stateMutability": "view",
      "type": "function",
      "constant": true
    },
    {
      "inputs": [],
      "name": "renounceOwnership",
      "outputs": [],
      "stateMutability": "nonpayable",
      "type": "function"
    },
    {
      "inputs": [
        {
          "internalType": "address",
          "name": "from",
          "type": "address"
        },
        {
          "internalType": "address",
          "name": "to",
          "type": "address"
        },
        {
          "internalType": "uint256",
          "name": "tokenId",
          "type": "uint256"
        }
      ],
      "name": "safeTransferFrom",
      "outputs": [],
      "stateMutability": "nonpayable",
      "type": "function"
    },
    {
      "inputs": [
        {
          "internalType": "address",
          "name": "from",
          "type": "address"
        },
        {
          "internalType": "address",
          "name": "to",
          "type": "address"
        },
        {
          "internalType": "uint256",
          "name": "tokenId",
          "type": "uint256"
        },
        {
          "internalType": "bytes",
          "name": "data",
          "type": "bytes"
        }
      ],
      "name": "safeTransferFrom",
      "outputs": [],
      "stateMutability": "nonpayable",
      "type": "function"
    },
    {
      "inputs": [
        {
          "internalType": "address",
          "name": "operator",
          "type": "address"
        },
        {
          "internalType": "bool",
          "name": "approved",
          "type": "bool"
        }
      ],
      "name": "setApprovalForAll",
      "outputs": [],
      "stateMutability": "nonpayable",
      "type": "function"
    },
    {
      "inputs": [
        {
          "internalType": "bytes4",
          "name": "interfaceId",
          "type": "bytes4"
        }
      ],
      "name": "supportsInterface",
      "outputs": [
        {
          "internalType": "bool",
          "name": "",
          "type": "bool"
        }
      ],
      "stateMutability": "view",
      "type": "function",
      "constant": true
    },
    {
      "inputs": [],
      "name": "symbol",
      "outputs": [
        {
          "internalType": "string",
          "name": "",
          "type": "string"
        }
      ],
      "stateMutability": "view",
      "type": "function",
      "constant": true
    },
    {
      "inputs": [
        {
          "internalType": "uint256",
          "name": "tokenId",
          "type": "uint256"
        }
      ],
      "name": "tokenURI",
      "outputs": [
        {
          "internalType": "string",
          "name": "",
          "type": "string"
        }
      ],
      "stateMutability": "view",
      "type": "function",
      "constant": true
    },
    {
      "inputs": [
        {
          "internalType": "address",
          "name": "from",
          "type": "address"
        },
        {
          "internalType": "address",
          "name": "to",
          "type": "address"
        },
        {
          "internalType": "uint256",
          "name": "tokenId",
          "type": "uint256"
        }
      ],
      "name": "transferFrom",
      "outputs": [],
      "stateMutability": "nonpayable",
      "type": "function"
    },
    {
      "inputs": [
        {
          "internalType": "address",
          "name": "newOwner",
          "type": "address"
        }
      ],
      "name": "transferOwnership",
      "outputs": [],
      "stateMutability": "nonpayable",
      "type": "function"
    },
    {
      "inputs": [
        {
          "internalType": "address",
          "name": "",
          "type": "address"
        },
        {
          "internalType": "uint256",
          "name": "",
          "type": "uint256"
        }
      ],
      "name": "userOwnedCards",
      "outputs": [
        {
          "internalType": "uint256",
          "name": "",
          "type": "uint256"
        }
      ],
      "stateMutability": "view",
      "type": "function",
      "constant": true
    },
    {
      "inputs": [
        {
          "internalType": "address",
          "name": "recipient",
          "type": "address"
        },
        {
          "internalType": "string",
          "name": "cardURI",
          "type": "string"
        }
      ],
      "name": "mintCard",
      "outputs": [],
      "stateMutability": "payable",
      "type": "function",
      "payable": true
    },
    {
      "inputs": [
        {
          "internalType": "address",
          "name": "owner",
          "type": "address"
        }
      ],
      "name": "getCardsByOwner",
      "outputs": [
        {
          "components": [
            {
              "internalType": "string",
              "name": "uri",
              "type": "string"
            },
            {
              "internalType": "uint256",
              "name": "id",
              "type": "uint256"
            },
            {
              "internalType": "bool",
              "name": "inMarket",
              "type": "bool"
            },
            {
              "internalType": "address",
              "name": "owner",
              "type": "address"
            }
          ],
          "internalType": "struct Card.cardResponse[]",
          "name": "",
          "type": "tuple[]"
        }
      ],
      "stateMutability": "view",
      "type": "function",
      "constant": true
    },
    {
      "inputs": [],
      "name": "getMarketCards",
      "outputs": [
        {
          "components": [
            {
              "internalType": "string",
              "name": "uri",
              "type": "string"
            },
            {
              "internalType": "uint256",
              "name": "id",
              "type": "uint256"
            },
            {
              "internalType": "bool",
              "name": "inMarket",
              "type": "bool"
            },
            {
              "internalType": "address",
              "name": "owner",
              "type": "address"
            }
          ],
          "internalType": "struct Card.cardResponse[]",
          "name": "",
          "type": "tuple[]"
        }
      ],
      "stateMutability": "view",
      "type": "function",
      "constant": true
    },
    {
      "inputs": [
        {
          "internalType": "address",
          "name": "_buyer",
          "type": "address"
        },
        {
          "internalType": "uint256",
          "name": "_cardId",
          "type": "uint256"
        }
      ],
      "name": "buyCard",
      "outputs": [],
      "stateMutability": "payable",
      "type": "function",
      "payable": true
    },
    {
      "inputs": [
        {
          "internalType": "address",
          "name": "_to",
          "type": "address"
        },
        {
          "internalType": "uint256",
          "name": "_cardId",
          "type": "uint256"
        }
      ],
      "name": "sendCard",
      "outputs": [],
      "stateMutability": "payable",
      "type": "function",
      "payable": true
    },
    {
      "inputs": [
        {
          "internalType": "uint256",
          "name": "_cardId",
          "type": "uint256"
        }
      ],
      "name": "saleCard",
      "outputs": [],
      "stateMutability": "nonpayable",
      "type": "function"
    },
    {
      "inputs": [
        {
          "internalType": "uint256",
          "name": "_cardId",
          "type": "uint256"
        }
      ],
      "name": "stopSallingCard",
      "outputs": [],
      "stateMutability": "nonpayable",
      "type": "function"
    }
  ],
  "bytecode": "0x6080604052662386f26fc100006008553480156200001c57600080fd5b506040518060400160405280600881526020017f43617264204e46540000000000000000000000000000000000000000000000008152506040518060400160405280600381526020017f4e465400000000000000000000000000000000000000000000000000000000008152508160009080519060200190620000a1929190620001b1565b508060019080519060200190620000ba929190620001b1565b505050620000dd620000d1620000e360201b60201c565b620000eb60201b60201c565b620002c6565b600033905090565b6000600760009054906101000a900473ffffffffffffffffffffffffffffffffffffffff16905081600760006101000a81548173ffffffffffffffffffffffffffffffffffffffff021916908373ffffffffffffffffffffffffffffffffffffffff1602179055508173ffffffffffffffffffffffffffffffffffffffff168173ffffffffffffffffffffffffffffffffffffffff167f8be0079c531659141344cd1fd0a4f28419497f9722a3daafe3b4186f6b6457e060405160405180910390a35050565b828054620001bf9062000261565b90600052602060002090601f016020900481019282620001e357600085556200022f565b82601f10620001fe57805160ff19168380011785556200022f565b828001600101855582156200022f579182015b828111156200022e57825182559160200191906001019062000211565b5b5090506200023e919062000242565b5090565b5b808211156200025d57600081600090555060010162000243565b5090565b600060028204905060018216806200027a57607f821691505b6020821081141562000291576200029062000297565b5b50919050565b7f4e487b7100000000000000000000000000000000000000000000000000000000600052602260045260246000fd5b61446c80620002d66000396000f3fe6080604052600436106101665760003560e01c80637dd9f846116100d1578063b88d4fde1161008a578063cd7e53cc11610064578063cd7e53cc14610530578063e985e9c51461054c578063eba73c7c14610589578063f2fde38b146105c657610166565b8063b88d4fde1461049f578063bbf1bceb146104c8578063c87b56dd146104f357610166565b80637dd9f846146103ab5780638da5cb5b146103c757806395d89b41146103f25780639b3ce46e1461041d578063a22cb4651461045a578063b128489c1461048357610166565b806323b872dd1161012357806323b872dd1461029f57806342842e0e146102c85780636352211e146102f15780636b544ada1461032e57806370a0823114610357578063715018a61461039457610166565b806301ffc9a71461016b57806306fdde03146101a8578063081812fc146101d3578063095ea7b314610210578063150b7a02146102395780631aae61f214610276575b600080fd5b34801561017757600080fd5b50610192600480360381019061018d91906131c6565b6105ef565b60405161019f919061381e565b60405180910390f35b3480156101b457600080fd5b506101bd6106d1565b6040516101ca9190613854565b60405180910390f35b3480156101df57600080fd5b506101fa60048036038101906101f59190613220565b610763565b604051610207919061375e565b60405180910390f35b34801561021c57600080fd5b5061023760048036038101906102329190613186565b6107a9565b005b34801561024557600080fd5b50610260600480360381019061025b9190613067565b6108c1565b60405161026d9190613839565b60405180910390f35b34801561028257600080fd5b5061029d60048036038101906102989190613220565b6108d5565b005b3480156102ab57600080fd5b506102c660048036038101906102c19190613014565b61096f565b005b3480156102d457600080fd5b506102ef60048036038101906102ea9190613014565b6109cf565b005b3480156102fd57600080fd5b5061031860048036038101906103139190613220565b6109ef565b604051610325919061375e565b60405180910390f35b34801561033a57600080fd5b5061035560048036038101906103509190613220565b610a76565b005b34801561036357600080fd5b5061037e60048036038101906103799190612fa7565b610ae6565b60405161038b9190613af6565b60405180910390f35b3480156103a057600080fd5b506103a9610b9e565b005b6103c560048036038101906103c09190613186565b610bb2565b005b3480156103d357600080fd5b506103dc610d6b565b6040516103e9919061375e565b60405180910390f35b3480156103fe57600080fd5b50610407610d95565b6040516104149190613854565b60405180910390f35b34801561042957600080fd5b50610444600480360381019061043f9190613186565b610e27565b6040516104519190613af6565b60405180910390f35b34801561046657600080fd5b50610481600480360381019061047c91906130ea565b610e58565b005b61049d60048036038101906104989190613186565b610e6e565b005b3480156104ab57600080fd5b506104c660048036038101906104c19190613067565b610f54565b005b3480156104d457600080fd5b506104dd610fb6565b6040516104ea91906137fc565b60405180910390f35b3480156104ff57600080fd5b5061051a60048036038101906105159190613220565b61116f565b6040516105279190613854565b60405180910390f35b61054a6004803603810190610545919061312a565b611282565b005b34801561055857600080fd5b50610573600480360381019061056e9190612fd4565b611354565b604051610580919061381e565b60405180910390f35b34801561059557600080fd5b506105b060048036038101906105ab9190612fa7565b6113e8565b6040516105bd91906137fc565b60405180910390f35b3480156105d257600080fd5b506105ed60048036038101906105e89190612fa7565b611667565b005b60007f80ac58cd000000000000000000000000000000000000000000000000000000007bffffffffffffffffffffffffffffffffffffffffffffffffffffffff1916827bffffffffffffffffffffffffffffffffffffffffffffffffffffffff191614806106ba57507f5b5e139f000000000000000000000000000000000000000000000000000000007bffffffffffffffffffffffffffffffffffffffffffffffffffffffff1916827bffffffffffffffffffffffffffffffffffffffffffffffffffffffff1916145b806106ca57506106c9826116eb565b5b9050919050565b6060600080546106e090613d65565b80601f016020809104026020016040519081016040528092919081815260200182805461070c90613d65565b80156107595780601f1061072e57610100808354040283529160200191610759565b820191906000526020600020905b81548152906001019060200180831161073c57829003601f168201915b5050505050905090565b600061076e82611755565b6004600083815260200190815260200160002060009054906101000a900473ffffffffffffffffffffffffffffffffffffffff169050919050565b60006107b4826109ef565b90508073ffffffffffffffffffffffffffffffffffffffff168373ffffffffffffffffffffffffffffffffffffffff161415610825576040517f08c379a000000000000000000000000000000000000000000000000000000000815260040161081c90613ab6565b60405180910390fd5b8073ffffffffffffffffffffffffffffffffffffffff166108446117a0565b73ffffffffffffffffffffffffffffffffffffffff16148061087357506108728161086d6117a0565b611354565b5b6108b2576040517f08c379a00000000000000000000000000000000000000000000000000000000081526004016108a990613ad6565b60405180910390fd5b6108bc83836117a8565b505050565b600063150b7a0260e01b9050949350505050565b806108e03382611861565b6108e957600080fd5b600015156108f683611986565b151514610938576040517f08c379a000000000000000000000000000000000000000000000000000000000815260040161092f90613a76565b60405180910390fd5b600a82908060018154018082558091505060019003906000526020600020016000909190919091505561096b30836107a9565b5050565b61098061097a6117a0565b826119ec565b6109bf576040517f08c379a00000000000000000000000000000000000000000000000000000000081526004016109b690613896565b60405180910390fd5b6109ca838383611a81565b505050565b6109ea83838360405180602001604052806000815250610f54565b505050565b6000806109fb83611d7b565b9050600073ffffffffffffffffffffffffffffffffffffffff168173ffffffffffffffffffffffffffffffffffffffff161415610a6d576040517f08c379a0000000000000000000000000000000000000000000000000000000008152600401610a6490613a96565b60405180910390fd5b80915050919050565b80610a813382611861565b610a8a57600080fd5b60011515610a9783611986565b151514610ad9576040517f08c379a0000000000000000000000000000000000000000000000000000000008152600401610ad090613a56565b60405180910390fd5b610ae282611db8565b5050565b60008073ffffffffffffffffffffffffffffffffffffffff168273ffffffffffffffffffffffffffffffffffffffff161415610b57576040517f08c379a0000000000000000000000000000000000000000000000000000000008152600401610b4e90613996565b60405180910390fd5b600360008373ffffffffffffffffffffffffffffffffffffffff1673ffffffffffffffffffffffffffffffffffffffff168152602001908152602001600020549050919050565b610ba6611e85565b610bb06000611f03565b565b610bbb81611fc9565b610bfa576040517f08c379a0000000000000000000000000000000000000000000000000000000008152600401610bf1906139d6565b60405180910390fd5b348273ffffffffffffffffffffffffffffffffffffffff16311015610c54576040517f08c379a0000000000000000000000000000000000000000000000000000000008152600401610c4b90613a16565b60405180910390fd5b6000610c5f826109ef565b90508073ffffffffffffffffffffffffffffffffffffffff168373ffffffffffffffffffffffffffffffffffffffff161415610cd0576040517f08c379a0000000000000000000000000000000000000000000000000000000008152600401610cc790613876565b60405180910390fd5b610cdb81848461200a565b8073ffffffffffffffffffffffffffffffffffffffff166108fc349081150290604051600060405180830381858888f19350505050158015610d21573d6000803e3d6000fd5b50610d2b82611db8565b7f608f6ac9327c2bf4d3c77adf447d2c448ba7b0971e0aaa9aa03f7ac29d874a44818434604051610d5e93929190613779565b60405180910390a1505050565b6000600760009054906101000a900473ffffffffffffffffffffffffffffffffffffffff16905090565b606060018054610da490613d65565b80601f0160208091040260200160405190810160405280929190818152602001828054610dd090613d65565b8015610e1d5780601f10610df257610100808354040283529160200191610e1d565b820191906000526020600020905b815481529060010190602001808311610e0057829003601f168201915b5050505050905090565b600b6020528160005260406000208181548110610e4357600080fd5b90600052602060002001600091509150505481565b610e6a610e636117a0565b83836120f4565b5050565b80610e793382611861565b610e8257600080fd5b6000610e8d836109ef565b90508073ffffffffffffffffffffffffffffffffffffffff168473ffffffffffffffffffffffffffffffffffffffff161415610efe576040517f08c379a0000000000000000000000000000000000000000000000000000000008152600401610ef590613936565b60405180910390fd5b610f0830846107a9565b610f1381858561200a565b7f608f6ac9327c2bf4d3c77adf447d2c448ba7b0971e0aaa9aa03f7ac29d874a44818534604051610f4693929190613779565b60405180910390a150505050565b610f65610f5f6117a0565b836119ec565b610fa4576040517f08c379a0000000000000000000000000000000000000000000000000000000008152600401610f9b90613896565b60405180910390fd5b610fb084848484612261565b50505050565b60606000600a80549050905060008167ffffffffffffffff811115610fde57610fdd613efc565b5b60405190808252806020026020018201604052801561101757816020015b611004612d7b565b815260200190600190039081610ffc5790505b50905060005b828110156111665761104c600a828154811061103c5761103b613ecd565b5b906000526020600020015461116f565b82828151811061105f5761105e613ecd565b5b602002602001015160000181905250600a818154811061108257611081613ecd565b5b90600052602060002001548282815181106110a05761109f613ecd565b5b6020026020010151602001818152505060018282815181106110c5576110c4613ecd565b5b60200260200101516040019015159081151581525050611102600a82815481106110f2576110f1613ecd565b5b90600052602060002001546109ef565b82828151811061111557611114613ecd565b5b60200260200101516060019073ffffffffffffffffffffffffffffffffffffffff16908173ffffffffffffffffffffffffffffffffffffffff1681525050808061115e90613dc8565b91505061101d565b50809250505090565b606061117a82611755565b600060066000848152602001908152602001600020805461119a90613d65565b80601f01602080910402602001604051908101604052809291908181526020018280546111c690613d65565b80156112135780601f106111e857610100808354040283529160200191611213565b820191906000526020600020905b8154815290600101906020018083116111f657829003601f168201915b5050505050905060006112246122bd565b905060008151141561123a57819250505061127d565b60008251111561126f57808260405160200161125792919061373a565b6040516020818303038152906040529250505061127d565b611278846122d4565b925050505b919050565b61128a611e85565b611294600961233c565b60006112a06009612352565b90506112ac8382612360565b6112b6818361237e565b6112c030826107a9565b600b60008473ffffffffffffffffffffffffffffffffffffffff1673ffffffffffffffffffffffffffffffffffffffff168152602001908152602001600020819080600181540180825580915050600190039060005260206000200160009091909190915055600a819080600181540180825580915050600190039060005260206000200160009091909190915055505050565b6000600560008473ffffffffffffffffffffffffffffffffffffffff1673ffffffffffffffffffffffffffffffffffffffff16815260200190815260200160002060008373ffffffffffffffffffffffffffffffffffffffff1673ffffffffffffffffffffffffffffffffffffffff16815260200190815260200160002060009054906101000a900460ff16905092915050565b60606000600b60008473ffffffffffffffffffffffffffffffffffffffff1673ffffffffffffffffffffffffffffffffffffffff16815260200190815260200160002080549050905060008167ffffffffffffffff81111561144d5761144c613efc565b5b60405190808252806020026020018201604052801561148657816020015b611473612d7b565b81526020019060019003908161146b5790505b5090506000600a80549050905060005b8381101561165b576000600b60008873ffffffffffffffffffffffffffffffffffffffff1673ffffffffffffffffffffffffffffffffffffffff16815260200190815260200160002082815481106114f1576114f0613ecd565b5b906000526020600020015490506115078161116f565b84838151811061151a57611519613ecd565b5b6020026020010151600001819052508084838151811061153d5761153c613ecd565b5b60200260200101516020018181525050600084838151811061156257611561613ecd565b5b60200260200101516040019015159081151581525050611581816109ef565b84838151811061159457611593613ecd565b5b60200260200101516060019073ffffffffffffffffffffffffffffffffffffffff16908173ffffffffffffffffffffffffffffffffffffffff168152505060005b838110156116465781600a82815481106115f2576115f1613ecd565b5b9060005260206000200154141561163357600185848151811061161857611617613ecd565b5b60200260200101516040019015159081151581525050611646565b808061163e90613dc8565b9150506115d5565b5050808061165390613dc8565b915050611496565b50819350505050919050565b61166f611e85565b600073ffffffffffffffffffffffffffffffffffffffff168173ffffffffffffffffffffffffffffffffffffffff1614156116df576040517f08c379a00000000000000000000000000000000000000000000000000000000081526004016116d6906138d6565b60405180910390fd5b6116e881611f03565b50565b60007f01ffc9a7000000000000000000000000000000000000000000000000000000007bffffffffffffffffffffffffffffffffffffffffffffffffffffffff1916827bffffffffffffffffffffffffffffffffffffffffffffffffffffffff1916149050919050565b61175e81611fc9565b61179d576040517f08c379a000000000000000000000000000000000000000000000000000000000815260040161179490613a96565b60405180910390fd5b50565b600033905090565b816004600083815260200190815260200160002060006101000a81548173ffffffffffffffffffffffffffffffffffffffff021916908373ffffffffffffffffffffffffffffffffffffffff160217905550808273ffffffffffffffffffffffffffffffffffffffff1661181b836109ef565b73ffffffffffffffffffffffffffffffffffffffff167f8c5be1e5ebec7d5bd14f71427d1e84f3dd0314c0f7b2291e5b200ac8c7c3b92560405160405180910390a45050565b6000808373ffffffffffffffffffffffffffffffffffffffff16611884846109ef565b73ffffffffffffffffffffffffffffffffffffffff16149050801561197a576000600b60008673ffffffffffffffffffffffffffffffffffffffff1673ffffffffffffffffffffffffffffffffffffffff16815260200190815260200160002080549050905060005b818110156119775784600b60008873ffffffffffffffffffffffffffffffffffffffff1673ffffffffffffffffffffffffffffffffffffffff168152602001908152602001600020828154811061194757611946613ecd565b5b906000526020600020015414156119645760019350505050611980565b808061196f90613dc8565b9150506118ed565b50505b60009150505b92915050565b600080600a80549050905060005b818110156119e05783600a82815481106119b1576119b0613ecd565b5b906000526020600020015414156119cd576001925050506119e7565b80806119d890613dc8565b915050611994565b5060009150505b919050565b6000806119f8836109ef565b90508073ffffffffffffffffffffffffffffffffffffffff168473ffffffffffffffffffffffffffffffffffffffff161480611a3a5750611a398185611354565b5b80611a7857508373ffffffffffffffffffffffffffffffffffffffff16611a6084610763565b73ffffffffffffffffffffffffffffffffffffffff16145b91505092915050565b8273ffffffffffffffffffffffffffffffffffffffff16611aa1826109ef565b73ffffffffffffffffffffffffffffffffffffffff1614611af7576040517f08c379a0000000000000000000000000000000000000000000000000000000008152600401611aee906138f6565b60405180910390fd5b600073ffffffffffffffffffffffffffffffffffffffff168273ffffffffffffffffffffffffffffffffffffffff161415611b67576040517f08c379a0000000000000000000000000000000000000000000000000000000008152600401611b5e90613956565b60405180910390fd5b611b7483838360016123f2565b8273ffffffffffffffffffffffffffffffffffffffff16611b94826109ef565b73ffffffffffffffffffffffffffffffffffffffff1614611bea576040517f08c379a0000000000000000000000000000000000000000000000000000000008152600401611be1906138f6565b60405180910390fd5b6004600082815260200190815260200160002060006101000a81549073ffffffffffffffffffffffffffffffffffffffff02191690556001600360008573ffffffffffffffffffffffffffffffffffffffff1673ffffffffffffffffffffffffffffffffffffffff168152602001908152602001600020600082825403925050819055506001600360008473ffffffffffffffffffffffffffffffffffffffff1673ffffffffffffffffffffffffffffffffffffffff16815260200190815260200160002060008282540192505081905550816002600083815260200190815260200160002060006101000a81548173ffffffffffffffffffffffffffffffffffffffff021916908373ffffffffffffffffffffffffffffffffffffffff160217905550808273ffffffffffffffffffffffffffffffffffffffff168473ffffffffffffffffffffffffffffffffffffffff167fddf252ad1be2c89b69c2b068fc378daa952ba7f163c4a11628f55a4df523b3ef60405160405180910390a4611d768383836001612518565b505050565b60006002600083815260200190815260200160002060009054906101000a900473ffffffffffffffffffffffffffffffffffffffff169050919050565b6000600a80549050905060005b81811015611e805782600a8281548110611de257611de1613ecd565b5b90600052602060002001541415611e6d57600a600183611e029190613c7b565b81548110611e1357611e12613ecd565b5b9060005260206000200154600a8281548110611e3257611e31613ecd565b5b9060005260206000200181905550600a805480611e5257611e51613e9e565b5b60019003818190600052602060002001600090559055611e80565b8080611e7890613dc8565b915050611dc5565b505050565b611e8d6117a0565b73ffffffffffffffffffffffffffffffffffffffff16611eab610d6b565b73ffffffffffffffffffffffffffffffffffffffff1614611f01576040517f08c379a0000000000000000000000000000000000000000000000000000000008152600401611ef890613a36565b60405180910390fd5b565b6000600760009054906101000a900473ffffffffffffffffffffffffffffffffffffffff16905081600760006101000a81548173ffffffffffffffffffffffffffffffffffffffff021916908373ffffffffffffffffffffffffffffffffffffffff1602179055508173ffffffffffffffffffffffffffffffffffffffff168173ffffffffffffffffffffffffffffffffffffffff167f8be0079c531659141344cd1fd0a4f28419497f9722a3daafe3b4186f6b6457e060405160405180910390a35050565b60008073ffffffffffffffffffffffffffffffffffffffff16611feb83611d7b565b73ffffffffffffffffffffffffffffffffffffffff1614159050919050565b612014838261251e565b600b60008373ffffffffffffffffffffffffffffffffffffffff1673ffffffffffffffffffffffffffffffffffffffff16815260200190815260200160002081908060018154018082558091505060019003906000526020600020016000909190919091505560003090508073ffffffffffffffffffffffffffffffffffffffff166323b872dd8585856040518463ffffffff1660e01b81526004016120bc93929190613779565b600060405180830381600087803b1580156120d657600080fd5b505af11580156120ea573d6000803e3d6000fd5b5050505050505050565b8173ffffffffffffffffffffffffffffffffffffffff168373ffffffffffffffffffffffffffffffffffffffff161415612163576040517f08c379a000000000000000000000000000000000000000000000000000000000815260040161215a90613976565b60405180910390fd5b80600560008573ffffffffffffffffffffffffffffffffffffffff1673ffffffffffffffffffffffffffffffffffffffff16815260200190815260200160002060008473ffffffffffffffffffffffffffffffffffffffff1673ffffffffffffffffffffffffffffffffffffffff16815260200190815260200160002060006101000a81548160ff0219169083151502179055508173ffffffffffffffffffffffffffffffffffffffff168373ffffffffffffffffffffffffffffffffffffffff167f17307eab39ab6107e8899845ad3d59bd9653f200f220920489ca2b5937696c3183604051612254919061381e565b60405180910390a3505050565b61226c848484611a81565b6122788484848461271d565b6122b7576040517f08c379a00000000000000000000000000000000000000000000000000000000081526004016122ae906138b6565b60405180910390fd5b50505050565b606060405180602001604052806000815250905090565b60606122df82611755565b60006122e96122bd565b905060008151116123095760405180602001604052806000815250612334565b80612313846128b4565b60405160200161232492919061373a565b6040516020818303038152906040525b915050919050565b6001816000016000828254019250508190555050565b600081600001549050919050565b61237a82826040518060200160405280600081525061298c565b5050565b61238782611fc9565b6123c6576040517f08c379a00000000000000000000000000000000000000000000000000000000081526004016123bd906139b6565b60405180910390fd5b806006600084815260200190815260200160002090805190602001906123ed929190612dbb565b505050565b600181111561251257600073ffffffffffffffffffffffffffffffffffffffff168473ffffffffffffffffffffffffffffffffffffffff16146124865780600360008673ffffffffffffffffffffffffffffffffffffffff1673ffffffffffffffffffffffffffffffffffffffff168152602001908152602001600020600082825461247e9190613c7b565b925050819055505b600073ffffffffffffffffffffffffffffffffffffffff168373ffffffffffffffffffffffffffffffffffffffff16146125115780600360008573ffffffffffffffffffffffffffffffffffffffff1673ffffffffffffffffffffffffffffffffffffffff16815260200190815260200160002060008282546125099190613c25565b925050819055505b5b50505050565b50505050565b6000600b60008473ffffffffffffffffffffffffffffffffffffffff1673ffffffffffffffffffffffffffffffffffffffff16815260200190815260200160002080549050905060005b818110156127175782600b60008673ffffffffffffffffffffffffffffffffffffffff1673ffffffffffffffffffffffffffffffffffffffff16815260200190815260200160002082815481106125c2576125c1613ecd565b5b9060005260206000200154141561270457600b60008573ffffffffffffffffffffffffffffffffffffffff1673ffffffffffffffffffffffffffffffffffffffff16815260200190815260200160002060018361261f9190613c7b565b815481106126305761262f613ecd565b5b9060005260206000200154600b60008673ffffffffffffffffffffffffffffffffffffffff1673ffffffffffffffffffffffffffffffffffffffff168152602001908152602001600020828154811061268c5761268b613ecd565b5b9060005260206000200181905550600b60008573ffffffffffffffffffffffffffffffffffffffff1673ffffffffffffffffffffffffffffffffffffffff1681526020019081526020016000208054806126e9576126e8613e9e565b5b60019003818190600052602060002001600090559055612717565b808061270f90613dc8565b915050612568565b50505050565b600061273e8473ffffffffffffffffffffffffffffffffffffffff166129e7565b156128a7578373ffffffffffffffffffffffffffffffffffffffff1663150b7a026127676117a0565b8786866040518563ffffffff1660e01b815260040161278994939291906137b0565b602060405180830381600087803b1580156127a357600080fd5b505af19250505080156127d457506040513d601f19601f820116820180604052508101906127d191906131f3565b60015b612857573d8060008114612804576040519150601f19603f3d011682016040523d82523d6000602084013e612809565b606091505b5060008151141561284f576040517f08c379a0000000000000000000000000000000000000000000000000000000008152600401612846906138b6565b60405180910390fd5b805181602001fd5b63150b7a0260e01b7bffffffffffffffffffffffffffffffffffffffffffffffffffffffff1916817bffffffffffffffffffffffffffffffffffffffffffffffffffffffff1916149150506128ac565b600190505b949350505050565b6060600060016128c384612a0a565b01905060008167ffffffffffffffff8111156128e2576128e1613efc565b5b6040519080825280601f01601f1916602001820160405280156129145781602001600182028036833780820191505090505b509050600082602001820190505b600115612981578080600190039150507f3031323334353637383961626364656600000000000000000000000000000000600a86061a8153600a858161296b5761296a613e40565b5b049450600085141561297c57612981565b612922565b819350505050919050565b6129968383612b5d565b6129a3600084848461271d565b6129e2576040517f08c379a00000000000000000000000000000000000000000000000000000000081526004016129d9906138b6565b60405180910390fd5b505050565b6000808273ffffffffffffffffffffffffffffffffffffffff163b119050919050565b600080600090507a184f03e93ff9f4daa797ed6e38ed64bf6a1f0100000000000000008310612a68577a184f03e93ff9f4daa797ed6e38ed64bf6a1f0100000000000000008381612a5e57612a5d613e40565b5b0492506040810190505b6d04ee2d6d415b85acef81000000008310612aa5576d04ee2d6d415b85acef81000000008381612a9b57612a9a613e40565b5b0492506020810190505b662386f26fc100008310612ad457662386f26fc100008381612aca57612ac9613e40565b5b0492506010810190505b6305f5e1008310612afd576305f5e1008381612af357612af2613e40565b5b0492506008810190505b6127108310612b22576127108381612b1857612b17613e40565b5b0492506004810190505b60648310612b455760648381612b3b57612b3a613e40565b5b0492506002810190505b600a8310612b54576001810190505b80915050919050565b600073ffffffffffffffffffffffffffffffffffffffff168273ffffffffffffffffffffffffffffffffffffffff161415612bcd576040517f08c379a0000000000000000000000000000000000000000000000000000000008152600401612bc4906139f6565b60405180910390fd5b612bd681611fc9565b15612c16576040517f08c379a0000000000000000000000000000000000000000000000000000000008152600401612c0d90613916565b60405180910390fd5b612c246000838360016123f2565b612c2d81611fc9565b15612c6d576040517f08c379a0000000000000000000000000000000000000000000000000000000008152600401612c6490613916565b60405180910390fd5b6001600360008473ffffffffffffffffffffffffffffffffffffffff1673ffffffffffffffffffffffffffffffffffffffff16815260200190815260200160002060008282540192505081905550816002600083815260200190815260200160002060006101000a81548173ffffffffffffffffffffffffffffffffffffffff021916908373ffffffffffffffffffffffffffffffffffffffff160217905550808273ffffffffffffffffffffffffffffffffffffffff16600073ffffffffffffffffffffffffffffffffffffffff167fddf252ad1be2c89b69c2b068fc378daa952ba7f163c4a11628f55a4df523b3ef60405160405180910390a4612d77600083836001612518565b5050565b60405180608001604052806060815260200160008152602001600015158152602001600073ffffffffffffffffffffffffffffffffffffffff1681525090565b828054612dc790613d65565b90600052602060002090601f016020900481019282612de95760008555612e30565b82601f10612e0257805160ff1916838001178555612e30565b82800160010185558215612e30579182015b82811115612e2f578251825591602001919060010190612e14565b5b509050612e3d9190612e41565b5090565b5b80821115612e5a576000816000905550600101612e42565b5090565b6000612e71612e6c84613b36565b613b11565b905082815260208101848484011115612e8d57612e8c613f30565b5b612e98848285613d23565b509392505050565b6000612eb3612eae84613b67565b613b11565b905082815260208101848484011115612ecf57612ece613f30565b5b612eda848285613d23565b509392505050565b600081359050612ef1816143da565b92915050565b600081359050612f06816143f1565b92915050565b600081359050612f1b81614408565b92915050565b600081519050612f3081614408565b92915050565b600082601f830112612f4b57612f4a613f2b565b5b8135612f5b848260208601612e5e565b91505092915050565b600082601f830112612f7957612f78613f2b565b5b8135612f89848260208601612ea0565b91505092915050565b600081359050612fa18161441f565b92915050565b600060208284031215612fbd57612fbc613f3a565b5b6000612fcb84828501612ee2565b91505092915050565b60008060408385031215612feb57612fea613f3a565b5b6000612ff985828601612ee2565b925050602061300a85828601612ee2565b9150509250929050565b60008060006060848603121561302d5761302c613f3a565b5b600061303b86828701612ee2565b935050602061304c86828701612ee2565b925050604061305d86828701612f92565b9150509250925092565b6000806000806080858703121561308157613080613f3a565b5b600061308f87828801612ee2565b94505060206130a087828801612ee2565b93505060406130b187828801612f92565b925050606085013567ffffffffffffffff8111156130d2576130d1613f35565b5b6130de87828801612f36565b91505092959194509250565b6000806040838503121561310157613100613f3a565b5b600061310f85828601612ee2565b925050602061312085828601612ef7565b9150509250929050565b6000806040838503121561314157613140613f3a565b5b600061314f85828601612ee2565b925050602083013567ffffffffffffffff8111156131705761316f613f35565b5b61317c85828601612f64565b9150509250929050565b6000806040838503121561319d5761319c613f3a565b5b60006131ab85828601612ee2565b92505060206131bc85828601612f92565b9150509250929050565b6000602082840312156131dc576131db613f3a565b5b60006131ea84828501612f0c565b91505092915050565b60006020828403121561320957613208613f3a565b5b600061321784828501612f21565b91505092915050565b60006020828403121561323657613235613f3a565b5b600061324484828501612f92565b91505092915050565b600061325983836136b9565b905092915050565b61326a81613caf565b82525050565b61327981613caf565b82525050565b600061328a82613ba8565b6132948185613bd6565b9350836020820285016132a685613b98565b8060005b858110156132e257848403895281516132c3858261324d565b94506132ce83613bc9565b925060208a019950506001810190506132aa565b50829750879550505050505092915050565b6132fd81613cc1565b82525050565b61330c81613cc1565b82525050565b61331b81613ccd565b82525050565b600061332c82613bb3565b6133368185613be7565b9350613346818560208601613d32565b61334f81613f3f565b840191505092915050565b600061336582613bbe565b61336f8185613bf8565b935061337f818560208601613d32565b61338881613f3f565b840191505092915050565b600061339e82613bbe565b6133a88185613c09565b93506133b8818560208601613d32565b6133c181613f3f565b840191505092915050565b60006133d782613bbe565b6133e18185613c1a565b93506133f1818560208601613d32565b80840191505092915050565b600061340a601683613c09565b915061341582613f50565b602082019050919050565b600061342d602d83613c09565b915061343882613f79565b604082019050919050565b6000613450603283613c09565b915061345b82613fc8565b604082019050919050565b6000613473602683613c09565b915061347e82614017565b604082019050919050565b6000613496602583613c09565b91506134a182614066565b604082019050919050565b60006134b9601c83613c09565b91506134c4826140b5565b602082019050919050565b60006134dc601483613c09565b91506134e7826140de565b602082019050919050565b60006134ff602483613c09565b915061350a82614107565b604082019050919050565b6000613522601983613c09565b915061352d82614156565b602082019050919050565b6000613545602983613c09565b91506135508261417f565b604082019050919050565b6000613568602e83613c09565b9150613573826141ce565b604082019050919050565b600061358b601e83613c09565b91506135968261421d565b602082019050919050565b60006135ae602083613c09565b91506135b982614246565b602082019050919050565b60006135d1601183613c09565b91506135dc8261426f565b602082019050919050565b60006135f4602083613c09565b91506135ff82614298565b602082019050919050565b6000613617601283613c09565b9150613622826142c1565b602082019050919050565b600061363a601683613c09565b9150613645826142ea565b602082019050919050565b600061365d601883613c09565b915061366882614313565b602082019050919050565b6000613680602183613c09565b915061368b8261433c565b604082019050919050565b60006136a3603d83613c09565b91506136ae8261438b565b604082019050919050565b600060808301600083015184820360008601526136d6828261335a565b91505060208301516136eb602086018261371c565b5060408301516136fe60408601826132f4565b5060608301516137116060860182613261565b508091505092915050565b61372581613d19565b82525050565b61373481613d19565b82525050565b600061374682856133cc565b915061375282846133cc565b91508190509392505050565b60006020820190506137736000830184613270565b92915050565b600060608201905061378e6000830186613270565b61379b6020830185613270565b6137a8604083018461372b565b949350505050565b60006080820190506137c56000830187613270565b6137d26020830186613270565b6137df604083018561372b565b81810360608301526137f18184613321565b905095945050505050565b60006020820190508181036000830152613816818461327f565b905092915050565b60006020820190506138336000830184613303565b92915050565b600060208201905061384e6000830184613312565b92915050565b6000602082019050818103600083015261386e8184613393565b905092915050565b6000602082019050818103600083015261388f816133fd565b9050919050565b600060208201905081810360008301526138af81613420565b9050919050565b600060208201905081810360008301526138cf81613443565b9050919050565b600060208201905081810360008301526138ef81613466565b9050919050565b6000602082019050818103600083015261390f81613489565b9050919050565b6000602082019050818103600083015261392f816134ac565b9050919050565b6000602082019050818103600083015261394f816134cf565b9050919050565b6000602082019050818103600083015261396f816134f2565b9050919050565b6000602082019050818103600083015261398f81613515565b9050919050565b600060208201905081810360008301526139af81613538565b9050919050565b600060208201905081810360008301526139cf8161355b565b9050919050565b600060208201905081810360008301526139ef8161357e565b9050919050565b60006020820190508181036000830152613a0f816135a1565b9050919050565b60006020820190508181036000830152613a2f816135c4565b9050919050565b60006020820190508181036000830152613a4f816135e7565b9050919050565b60006020820190508181036000830152613a6f8161360a565b9050919050565b60006020820190508181036000830152613a8f8161362d565b9050919050565b60006020820190508181036000830152613aaf81613650565b9050919050565b60006020820190508181036000830152613acf81613673565b9050919050565b60006020820190508181036000830152613aef81613696565b9050919050565b6000602082019050613b0b600083018461372b565b92915050565b6000613b1b613b2c565b9050613b278282613d97565b919050565b6000604051905090565b600067ffffffffffffffff821115613b5157613b50613efc565b5b613b5a82613f3f565b9050602081019050919050565b600067ffffffffffffffff821115613b8257613b81613efc565b5b613b8b82613f3f565b9050602081019050919050565b6000819050602082019050919050565b600081519050919050565b600081519050919050565b600081519050919050565b6000602082019050919050565b600082825260208201905092915050565b600082825260208201905092915050565b600082825260208201905092915050565b600082825260208201905092915050565b600081905092915050565b6000613c3082613d19565b9150613c3b83613d19565b9250827fffffffffffffffffffffffffffffffffffffffffffffffffffffffffffffffff03821115613c7057613c6f613e11565b5b828201905092915050565b6000613c8682613d19565b9150613c9183613d19565b925082821015613ca457613ca3613e11565b5b828203905092915050565b6000613cba82613cf9565b9050919050565b60008115159050919050565b60007fffffffff0000000000000000000000000000000000000000000000000000000082169050919050565b600073ffffffffffffffffffffffffffffffffffffffff82169050919050565b6000819050919050565b82818337600083830152505050565b60005b83811015613d50578082015181840152602081019050613d35565b83811115613d5f576000848401525b50505050565b60006002820490506001821680613d7d57607f821691505b60208210811415613d9157613d90613e6f565b5b50919050565b613da082613f3f565b810181811067ffffffffffffffff82111715613dbf57613dbe613efc565b5b80604052505050565b6000613dd382613d19565b91507fffffffffffffffffffffffffffffffffffffffffffffffffffffffffffffffff821415613e0657613e05613e11565b5b600182019050919050565b7f4e487b7100000000000000000000000000000000000000000000000000000000600052601160045260246000fd5b7f4e487b7100000000000000000000000000000000000000000000000000000000600052601260045260246000fd5b7f4e487b7100000000000000000000000000000000000000000000000000000000600052602260045260246000fd5b7f4e487b7100000000000000000000000000000000000000000000000000000000600052603160045260246000fd5b7f4e487b7100000000000000000000000000000000000000000000000000000000600052603260045260246000fd5b7f4e487b7100000000000000000000000000000000000000000000000000000000600052604160045260246000fd5b600080fd5b600080fd5b600080fd5b600080fd5b6000601f19601f8301169050919050565b7f43616e206e6f7420627579206f776e6564206361726400000000000000000000600082015250565b7f4552433732313a2063616c6c6572206973206e6f7420746f6b656e206f776e6560008201527f72206f7220617070726f76656400000000000000000000000000000000000000602082015250565b7f4552433732313a207472616e7366657220746f206e6f6e20455243373231526560008201527f63656976657220696d706c656d656e7465720000000000000000000000000000602082015250565b7f4f776e61626c653a206e6577206f776e657220697320746865207a65726f206160008201527f6464726573730000000000000000000000000000000000000000000000000000602082015250565b7f4552433732313a207472616e736665722066726f6d20696e636f72726563742060008201527f6f776e6572000000000000000000000000000000000000000000000000000000602082015250565b7f4552433732313a20746f6b656e20616c7265616479206d696e74656400000000600082015250565b7f43616e206e6f742073656e6420746f2073656c66000000000000000000000000600082015250565b7f4552433732313a207472616e7366657220746f20746865207a65726f2061646460008201527f7265737300000000000000000000000000000000000000000000000000000000602082015250565b7f4552433732313a20617070726f766520746f2063616c6c657200000000000000600082015250565b7f4552433732313a2061646472657373207a65726f206973206e6f74206120766160008201527f6c6964206f776e65720000000000000000000000000000000000000000000000602082015250565b7f45524337323155524953746f726167653a2055524920736574206f66206e6f6e60008201527f6578697374656e7420746f6b656e000000000000000000000000000000000000602082015250565b7f7472616e73666572206f66206e6f6e206578697374696e6720746f6b656e0000600082015250565b7f4552433732313a206d696e7420746f20746865207a65726f2061646472657373600082015250565b7f536f6c646520696e737566666973616e74000000000000000000000000000000600082015250565b7f4f776e61626c653a2063616c6c6572206973206e6f7420746865206f776e6572600082015250565b7f43617264206e6f7420696e206d61726b65740000000000000000000000000000600082015250565b7f4361726420616c726561647920696e206d61726b657400000000000000000000600082015250565b7f4552433732313a20696e76616c696420746f6b656e2049440000000000000000600082015250565b7f4552433732313a20617070726f76616c20746f2063757272656e74206f776e6560008201527f7200000000000000000000000000000000000000000000000000000000000000602082015250565b7f4552433732313a20617070726f76652063616c6c6572206973206e6f7420746f60008201527f6b656e206f776e6572206f7220617070726f76656420666f7220616c6c000000602082015250565b6143e381613caf565b81146143ee57600080fd5b50565b6143fa81613cc1565b811461440557600080fd5b50565b61441181613ccd565b811461441c57600080fd5b50565b61442881613d19565b811461443357600080fd5b5056fea26469706673582212202d75f3d05149b6b8ac1fe678deee7accde41474680465eff03e65f4e172d986c64736f6c63430008070033",
  "immutableReferences": {},
  "source": "pragma solidity ^0.8.7;\r\n\r\nimport \"@openzeppelin/contracts/token/ERC721/ERC721.sol\";\r\nimport \"@openzeppelin/contracts/token/ERC721/extensions/ERC721URIStorage.sol\";\r\nimport \"@openzeppelin/contracts/token/ERC721/utils/ERC721Holder.sol\";\r\nimport \"@openzeppelin/contracts/utils/Counters.sol\";\r\nimport \"@openzeppelin/contracts/access/Ownable.sol\";\r\n\r\ncontract Card is ERC721URIStorage, Ownable,ERC721Holder  {\r\n\r\n    // Structs \r\n    struct cardResponse {\r\n            string uri;\r\n            uint256 id;\r\n            bool inMarket;\r\n            address owner;\r\n        }\r\n\r\n    \r\n    // props \r\n    uint private fees = 0.01 ether;\r\n    using Counters for Counters.Counter;\r\n    Counters.Counter private _tokenIds;\r\n\r\n    uint256[] private market;\r\n            \r\n    // modifiers \r\n    modifier onlyOwnerOf(uint _cardId) {\r\n        require(_ownerContainCard(msg.sender,_cardId));\r\n        _;\r\n    }\r\n\r\n    // events\r\n    event NftBought(address _seller, address _buyer, uint256 _price);\r\n\r\n    //mappings\r\n    mapping(address => uint256[]) public userOwnedCards;\r\n\r\n    constructor() ERC721(\"Card NFT\", \"NFT\") {\r\n\r\n    }\r\n\r\n    // private functions\r\n    function _removeCardFromOwner(address _owner,uint256 _cardId) private \r\n    {\r\n        uint ownedCardsCount = userOwnedCards[_owner].length;\r\n        for (uint i = 0; i < ownedCardsCount; i++) {\r\n            if(userOwnedCards[_owner][i] == _cardId){\r\n                userOwnedCards[_owner][i] = userOwnedCards[_owner][ownedCardsCount-1];\r\n                userOwnedCards[_owner].pop();\r\n                break;\r\n            }\r\n        }\r\n    }\r\n\r\n    function _transferCard(address _from, address _to, uint256 _cardId) private {\r\n        _removeCardFromOwner(_from,_cardId);\r\n        userOwnedCards[_to].push(_cardId);\r\n        IERC721 nft = IERC721(address(this));\r\n        nft.transferFrom(_from, _to, _cardId);\r\n    }\r\n\r\n    function _ownerContainCard(address _owner,uint256 _cardId) private returns(bool){\r\n        bool _isOwner = ownerOf(_cardId) == _owner;\r\n        if(_isOwner){\r\n            uint ownedCardsCount = userOwnedCards[_owner].length;\r\n            for(uint i = 0; i < ownedCardsCount; i++){\r\n                if(userOwnedCards[_owner][i] == _cardId){\r\n                    return true;\r\n                }\r\n            }\r\n        }\r\n        return false;\r\n\r\n    }\r\n\r\n    function _isInMarket(uint256 _cardId) private returns(bool){\r\n        uint cardsCount = market.length;\r\n        for (uint i = 0; i < cardsCount; i++) {\r\n            if(market[i] == _cardId){\r\n                return true;\r\n            }\r\n        }\r\n\r\n        return false;\r\n    }\r\n\r\n    function _removeCardFromMarket(uint256 _cardId) private \r\n    {\r\n        uint cardsCount = market.length;\r\n        for (uint i = 0; i < cardsCount; i++) {\r\n            if(market[i] == _cardId){\r\n                market[i] = market[cardsCount-1];\r\n                market.pop();\r\n                break;\r\n            }\r\n        }\r\n    }\r\n    \r\n    \r\n\r\n    // functions\r\n\r\n    function mintCard(address recipient, string memory cardURI)\r\n     public payable onlyOwner \r\n    {\r\n        _tokenIds.increment();\r\n        uint256 cardId = _tokenIds.current();\r\n        _safeMint(recipient, cardId);\r\n        _setTokenURI(cardId, cardURI);\r\n        approve(address(this),cardId);\r\n        userOwnedCards[recipient].push(cardId);\r\n        market.push(cardId);\r\n    }\r\n\r\n    function getCardsByOwner(address owner) public view returns (cardResponse[] memory)  {\r\n        uint ownedCardsCount = userOwnedCards[owner].length;\r\n        cardResponse[] memory result = new cardResponse[](ownedCardsCount);\r\n        uint cardsCount = market.length;\r\n        for (uint i = 0; i < ownedCardsCount; i++) {\r\n            uint256 cardId = userOwnedCards[owner][i];\r\n            result[i].uri = tokenURI(cardId);\r\n            result[i].id = cardId ;\r\n            result[i].inMarket = false;\r\n            result[i].owner = ownerOf(cardId);\r\n            for (uint j = 0; j < cardsCount; j++) {\r\n                if(market[j] == cardId){\r\n                    result[i].inMarket = true;\r\n                    break;\r\n                }\r\n            }\r\n        }\r\n        return result;\r\n    }\r\n\r\n    function getMarketCards() public view returns (cardResponse[] memory)  {\r\n        uint cardsCount = market.length;\r\n        cardResponse[] memory result = new cardResponse[](cardsCount);\r\n\r\n        for (uint i = 0; i < cardsCount; i++) {\r\n            result[i].uri = tokenURI(market[i]);\r\n            result[i].id =  market[i];\r\n            result[i].inMarket  = true;\r\n            result[i].owner = ownerOf(market[i]);\r\n        }\r\n        return result;\r\n    }\r\n\r\n\r\n    \r\n    function buyCard(address _buyer,uint256 _cardId) public payable {\r\n        require(_exists(_cardId), \"transfer of non existing token\");\r\n       require(_buyer.balance >= msg.value, 'Solde insuffisant');\r\n       address _seller = ownerOf(_cardId);\r\n       require(_buyer != _seller,'Can not buy owned card');\r\n        _transferCard(_seller, payable(_buyer), _cardId);\r\n       payable(_seller).transfer(msg.value);\r\n       _removeCardFromMarket(_cardId);\r\n        emit NftBought(_seller, _buyer, msg.value);\r\n    }\r\n\r\n    function sendCard(address _to,uint256 _cardId) public payable onlyOwnerOf(_cardId) {\r\n        address _seller = ownerOf(_cardId);\r\n        require(_to != _seller,'Can not send to self');\r\n\r\n        approve(address(this),_cardId);\r\n        _transferCard(_seller, payable(_to), _cardId);\r\n\r\n        emit NftBought(_seller, _to, msg.value);\r\n    }\r\n\r\n    function saleCard(uint256 _cardId) public  onlyOwnerOf(_cardId){\r\n        require(_isInMarket(_cardId) == false,'Card already in market');\r\n        market.push(_cardId);\r\n        approve(address(this),_cardId);\r\n    }\r\n\r\n    function stopSallingCard(uint256 _cardId) public onlyOwnerOf(_cardId){\r\n        require(_isInMarket(_cardId) == true,'Card not in market');\r\n        _removeCardFromMarket(_cardId);\r\n    }\r\n\r\n\r\n\r\n\r\n}",
  "sourcePath": "C:\\Users\\alamine\\Desktop\\5bloc\\nft\\5BLOC\\Blockchain\\contracts\\Card.sol",
  "compiler": {
    "name": "solc",
    "version": "0.8.7+commit.e28d00a7.Emscripten.clang"
  },
  "schemaVersion": "3.4.11",
  "updatedAt": "2022-12-11T19:31:00.849Z",
  "networkType": "ethereum",
  "devdoc": {
    "kind": "dev",
    "methods": {
      "approve(address,uint256)": {
        "details": "See {IERC721-approve}."
      },
      "balanceOf(address)": {
        "details": "See {IERC721-balanceOf}."
      },
      "getApproved(uint256)": {
        "details": "See {IERC721-getApproved}."
      },
      "isApprovedForAll(address,address)": {
        "details": "See {IERC721-isApprovedForAll}."
      },
      "name()": {
        "details": "See {IERC721Metadata-name}."
      },
      "onERC721Received(address,address,uint256,bytes)": {
        "details": "See {IERC721Receiver-onERC721Received}. Always returns `IERC721Receiver.onERC721Received.selector`."
      },
      "owner()": {
        "details": "Returns the address of the current owner."
      },
      "ownerOf(uint256)": {
        "details": "See {IERC721-ownerOf}."
      },
      "renounceOwnership()": {
        "details": "Leaves the contract without owner. It will not be possible to call `onlyOwner` functions anymore. Can only be called by the current owner. NOTE: Renouncing ownership will leave the contract without an owner, thereby removing any functionality that is only available to the owner."
      },
      "safeTransferFrom(address,address,uint256)": {
        "details": "See {IERC721-safeTransferFrom}."
      },
      "safeTransferFrom(address,address,uint256,bytes)": {
        "details": "See {IERC721-safeTransferFrom}."
      },
      "setApprovalForAll(address,bool)": {
        "details": "See {IERC721-setApprovalForAll}."
      },
      "supportsInterface(bytes4)": {
        "details": "See {IERC165-supportsInterface}."
      },
      "symbol()": {
        "details": "See {IERC721Metadata-symbol}."
      },
      "tokenURI(uint256)": {
        "details": "See {IERC721Metadata-tokenURI}."
      },
      "transferFrom(address,address,uint256)": {
        "details": "See {IERC721-transferFrom}."
      },
      "transferOwnership(address)": {
        "details": "Transfers ownership of the contract to a new account (`newOwner`). Can only be called by the current owner."
      }
    },
    "version": 1
  },
  "userdoc": {
    "kind": "user",
    "methods": {},
    "version": 1
  }
}