{
  "contractName": "Card",
  "abi": [
    {
      "inputs": [],
      "stateMutability": "nonpayable",
      "type": "constructor"
    },
    {
      "anonymous": false,
      "inputs": [
        {
          "indexed": true,
          "internalType": "address",
          "name": "owner",
          "type": "address"
        },
        {
          "indexed": true,
          "internalType": "address",
          "name": "approved",
          "type": "address"
        },
        {
          "indexed": true,
          "internalType": "uint256",
          "name": "tokenId",
          "type": "uint256"
        }
      ],
      "name": "Approval",
      "type": "event"
    },
    {
      "anonymous": false,
      "inputs": [
        {
          "indexed": true,
          "internalType": "address",
          "name": "owner",
          "type": "address"
        },
        {
          "indexed": true,
          "internalType": "address",
          "name": "operator",
          "type": "address"
        },
        {
          "indexed": false,
          "internalType": "bool",
          "name": "approved",
          "type": "bool"
        }
      ],
      "name": "ApprovalForAll",
      "type": "event"
    },
    {
      "anonymous": false,
      "inputs": [
        {
          "indexed": false,
          "internalType": "address",
          "name": "_seller",
          "type": "address"
        },
        {
          "indexed": false,
          "internalType": "address",
          "name": "_buyer",
          "type": "address"
        },
        {
          "indexed": false,
          "internalType": "uint256",
          "name": "_price",
          "type": "uint256"
        }
      ],
      "name": "NftBought",
      "type": "event"
    },
    {
      "anonymous": false,
      "inputs": [
        {
          "indexed": true,
          "internalType": "address",
          "name": "previousOwner",
          "type": "address"
        },
        {
          "indexed": true,
          "internalType": "address",
          "name": "newOwner",
          "type": "address"
        }
      ],
      "name": "OwnershipTransferred",
      "type": "event"
    },
    {
      "anonymous": false,
      "inputs": [
        {
          "indexed": true,
          "internalType": "address",
          "name": "from",
          "type": "address"
        },
        {
          "indexed": true,
          "internalType": "address",
          "name": "to",
          "type": "address"
        },
        {
          "indexed": true,
          "internalType": "uint256",
          "name": "tokenId",
          "type": "uint256"
        }
      ],
      "name": "Transfer",
      "type": "event"
    },
    {
      "inputs": [
        {
          "internalType": "address",
          "name": "to",
          "type": "address"
        },
        {
          "internalType": "uint256",
          "name": "tokenId",
          "type": "uint256"
        }
      ],
      "name": "approve",
      "outputs": [],
      "stateMutability": "nonpayable",
      "type": "function"
    },
    {
      "inputs": [
        {
          "internalType": "address",
          "name": "owner",
          "type": "address"
        }
      ],
      "name": "balanceOf",
      "outputs": [
        {
          "internalType": "uint256",
          "name": "",
          "type": "uint256"
        }
      ],
      "stateMutability": "view",
      "type": "function",
      "constant": true
    },
    {
      "inputs": [
        {
          "internalType": "uint256",
          "name": "tokenId",
          "type": "uint256"
        }
      ],
      "name": "getApproved",
      "outputs": [
        {
          "internalType": "address",
          "name": "",
          "type": "address"
        }
      ],
      "stateMutability": "view",
      "type": "function",
      "constant": true
    },
    {
      "inputs": [
        {
          "internalType": "address",
          "name": "owner",
          "type": "address"
        },
        {
          "internalType": "address",
          "name": "operator",
          "type": "address"
        }
      ],
      "name": "isApprovedForAll",
      "outputs": [
        {
          "internalType": "bool",
          "name": "",
          "type": "bool"
        }
      ],
      "stateMutability": "view",
      "type": "function",
      "constant": true
    },
    {
      "inputs": [],
      "name": "name",
      "outputs": [
        {
          "internalType": "string",
          "name": "",
          "type": "string"
        }
      ],
      "stateMutability": "view",
      "type": "function",
      "constant": true
    },
    {
      "inputs": [
        {
          "internalType": "address",
          "name": "",
          "type": "address"
        },
        {
          "internalType": "address",
          "name": "",
          "type": "address"
        },
        {
          "internalType": "uint256",
          "name": "",
          "type": "uint256"
        },
        {
          "internalType": "bytes",
          "name": "",
          "type": "bytes"
        }
      ],
      "name": "onERC721Received",
      "outputs": [
        {
          "internalType": "bytes4",
          "name": "",
          "type": "bytes4"
        }
      ],
      "stateMutability": "nonpayable",
      "type": "function"
    },
    {
      "inputs": [],
      "name": "owner",
      "outputs": [
        {
          "internalType": "address",
          "name": "",
          "type": "address"
        }
      ],
      "stateMutability": "view",
      "type": "function",
      "constant": true
    },
    {
      "inputs": [
        {
          "internalType": "uint256",
          "name": "tokenId",
          "type": "uint256"
        }
      ],
      "name": "ownerOf",
      "outputs": [
        {
          "internalType": "address",
          "name": "",
          "type": "address"
        }
      ],
      "stateMutability": "view",
      "type": "function",
      "constant": true
    },
    {
      "inputs": [],
      "name": "renounceOwnership",
      "outputs": [],
      "stateMutability": "nonpayable",
      "type": "function"
    },
    {
      "inputs": [
        {
          "internalType": "address",
          "name": "from",
          "type": "address"
        },
        {
          "internalType": "address",
          "name": "to",
          "type": "address"
        },
        {
          "internalType": "uint256",
          "name": "tokenId",
          "type": "uint256"
        }
      ],
      "name": "safeTransferFrom",
      "outputs": [],
      "stateMutability": "nonpayable",
      "type": "function"
    },
    {
      "inputs": [
        {
          "internalType": "address",
          "name": "from",
          "type": "address"
        },
        {
          "internalType": "address",
          "name": "to",
          "type": "address"
        },
        {
          "internalType": "uint256",
          "name": "tokenId",
          "type": "uint256"
        },
        {
          "internalType": "bytes",
          "name": "data",
          "type": "bytes"
        }
      ],
      "name": "safeTransferFrom",
      "outputs": [],
      "stateMutability": "nonpayable",
      "type": "function"
    },
    {
      "inputs": [
        {
          "internalType": "address",
          "name": "operator",
          "type": "address"
        },
        {
          "internalType": "bool",
          "name": "approved",
          "type": "bool"
        }
      ],
      "name": "setApprovalForAll",
      "outputs": [],
      "stateMutability": "nonpayable",
      "type": "function"
    },
    {
      "inputs": [
        {
          "internalType": "bytes4",
          "name": "interfaceId",
          "type": "bytes4"
        }
      ],
      "name": "supportsInterface",
      "outputs": [
        {
          "internalType": "bool",
          "name": "",
          "type": "bool"
        }
      ],
      "stateMutability": "view",
      "type": "function",
      "constant": true
    },
    {
      "inputs": [],
      "name": "symbol",
      "outputs": [
        {
          "internalType": "string",
          "name": "",
          "type": "string"
        }
      ],
      "stateMutability": "view",
      "type": "function",
      "constant": true
    },
    {
      "inputs": [
        {
          "internalType": "uint256",
          "name": "tokenId",
          "type": "uint256"
        }
      ],
      "name": "tokenURI",
      "outputs": [
        {
          "internalType": "string",
          "name": "",
          "type": "string"
        }
      ],
      "stateMutability": "view",
      "type": "function",
      "constant": true
    },
    {
      "inputs": [
        {
          "internalType": "address",
          "name": "from",
          "type": "address"
        },
        {
          "internalType": "address",
          "name": "to",
          "type": "address"
        },
        {
          "internalType": "uint256",
          "name": "tokenId",
          "type": "uint256"
        }
      ],
      "name": "transferFrom",
      "outputs": [],
      "stateMutability": "nonpayable",
      "type": "function"
    },
    {
      "inputs": [
        {
          "internalType": "address",
          "name": "newOwner",
          "type": "address"
        }
      ],
      "name": "transferOwnership",
      "outputs": [],
      "stateMutability": "nonpayable",
      "type": "function"
    },
    {
      "inputs": [
        {
          "internalType": "address",
          "name": "",
          "type": "address"
        },
        {
          "internalType": "uint256",
          "name": "",
          "type": "uint256"
        }
      ],
      "name": "userOwnedCards",
      "outputs": [
        {
          "internalType": "uint256",
          "name": "",
          "type": "uint256"
        }
      ],
      "stateMutability": "view",
      "type": "function",
      "constant": true
    },
    {
      "inputs": [
        {
          "internalType": "address",
          "name": "recipient",
          "type": "address"
        },
        {
          "internalType": "string",
          "name": "cardURI",
          "type": "string"
        }
      ],
      "name": "mintCard",
      "outputs": [],
      "stateMutability": "payable",
      "type": "function",
      "payable": true
    },
    {
      "inputs": [
        {
          "internalType": "address",
          "name": "owner",
          "type": "address"
        }
      ],
      "name": "getCardsByOwner",
      "outputs": [
        {
          "components": [
            {
              "internalType": "string",
              "name": "uri",
              "type": "string"
            },
            {
              "internalType": "uint256",
              "name": "id",
              "type": "uint256"
            }
          ],
          "internalType": "struct Card.cardResponse[]",
          "name": "",
          "type": "tuple[]"
        }
      ],
      "stateMutability": "view",
      "type": "function",
      "constant": true
    },
    {
      "inputs": [
        {
          "internalType": "address",
          "name": "_buyer",
          "type": "address"
        },
        {
          "internalType": "uint256",
          "name": "_cardId",
          "type": "uint256"
        }
      ],
      "name": "buyCard",
      "outputs": [],
      "stateMutability": "payable",
      "type": "function",
      "payable": true
    },
    {
      "inputs": [
        {
          "internalType": "address",
          "name": "_to",
          "type": "address"
        },
        {
          "internalType": "uint256",
          "name": "_cardId",
          "type": "uint256"
        }
      ],
      "name": "sendCard",
      "outputs": [],
      "stateMutability": "payable",
      "type": "function",
      "payable": true
    }
  ],
  "bytecode": "0x6080604052662386f26fc100006008553480156200001c57600080fd5b506040518060400160405280600881526020017f43617264204e46540000000000000000000000000000000000000000000000008152506040518060400160405280600381526020017f4e465400000000000000000000000000000000000000000000000000000000008152508160009080519060200190620000a1929190620001b1565b508060019080519060200190620000ba929190620001b1565b505050620000dd620000d1620000e360201b60201c565b620000eb60201b60201c565b620002c6565b600033905090565b6000600760009054906101000a900473ffffffffffffffffffffffffffffffffffffffff16905081600760006101000a81548173ffffffffffffffffffffffffffffffffffffffff021916908373ffffffffffffffffffffffffffffffffffffffff1602179055508173ffffffffffffffffffffffffffffffffffffffff168173ffffffffffffffffffffffffffffffffffffffff167f8be0079c531659141344cd1fd0a4f28419497f9722a3daafe3b4186f6b6457e060405160405180910390a35050565b828054620001bf9062000261565b90600052602060002090601f016020900481019282620001e357600085556200022f565b82601f10620001fe57805160ff19168380011785556200022f565b828001600101855582156200022f579182015b828111156200022e57825182559160200191906001019062000211565b5b5090506200023e919062000242565b5090565b5b808211156200025d57600081600090555060010162000243565b5090565b600060028204905060018216806200027a57607f821691505b6020821081141562000291576200029062000297565b5b50919050565b7f4e487b7100000000000000000000000000000000000000000000000000000000600052602260045260246000fd5b613e5080620002d66000396000f3fe6080604052600436106101355760003560e01c80638da5cb5b116100ab578063b88d4fde1161006f578063b88d4fde1461041c578063c87b56dd14610445578063cd7e53cc14610482578063e985e9c51461049e578063eba73c7c146104db578063f2fde38b1461051857610135565b80638da5cb5b1461034457806395d89b411461036f5780639b3ce46e1461039a578063a22cb465146103d7578063b128489c1461040057610135565b806323b872dd116100fd57806323b872dd1461024557806342842e0e1461026e5780636352211e1461029757806370a08231146102d4578063715018a6146103115780637dd9f8461461032857610135565b806301ffc9a71461013a57806306fdde0314610177578063081812fc146101a2578063095ea7b3146101df578063150b7a0214610208575b600080fd5b34801561014657600080fd5b50610161600480360381019061015c9190612cc6565b610541565b60405161016e9190613294565b60405180910390f35b34801561018357600080fd5b5061018c610623565b60405161019991906132ca565b60405180910390f35b3480156101ae57600080fd5b506101c960048036038101906101c49190612d20565b6106b5565b6040516101d691906131d4565b60405180910390f35b3480156101eb57600080fd5b5061020660048036038101906102019190612c86565b6106fb565b005b34801561021457600080fd5b5061022f600480360381019061022a9190612b67565b610813565b60405161023c91906132af565b60405180910390f35b34801561025157600080fd5b5061026c60048036038101906102679190612b14565b610827565b005b34801561027a57600080fd5b5061029560048036038101906102909190612b14565b610887565b005b3480156102a357600080fd5b506102be60048036038101906102b99190612d20565b6108a7565b6040516102cb91906131d4565b60405180910390f35b3480156102e057600080fd5b506102fb60048036038101906102f69190612aa7565b61092e565b604051610308919061352c565b60405180910390f35b34801561031d57600080fd5b506103266109e6565b005b610342600480360381019061033d9190612c86565b6109fa565b005b34801561035057600080fd5b50610359610baa565b60405161036691906131d4565b60405180910390f35b34801561037b57600080fd5b50610384610bd4565b60405161039191906132ca565b60405180910390f35b3480156103a657600080fd5b506103c160048036038101906103bc9190612c86565b610c66565b6040516103ce919061352c565b60405180910390f35b3480156103e357600080fd5b506103fe60048036038101906103f99190612bea565b610c97565b005b61041a60048036038101906104159190612c86565b610cad565b005b34801561042857600080fd5b50610443600480360381019061043e9190612b67565b610e3e565b005b34801561045157600080fd5b5061046c60048036038101906104679190612d20565b610ea0565b60405161047991906132ca565b60405180910390f35b61049c60048036038101906104979190612c2a565b610fb3565b005b3480156104aa57600080fd5b506104c560048036038101906104c09190612ad4565b61105d565b6040516104d29190613294565b60405180910390f35b3480156104e757600080fd5b5061050260048036038101906104fd9190612aa7565b6110f1565b60405161050f9190613272565b60405180910390f35b34801561052457600080fd5b5061053f600480360381019061053a9190612aa7565b6112c0565b005b60007f80ac58cd000000000000000000000000000000000000000000000000000000007bffffffffffffffffffffffffffffffffffffffffffffffffffffffff1916827bffffffffffffffffffffffffffffffffffffffffffffffffffffffff1916148061060c57507f5b5e139f000000000000000000000000000000000000000000000000000000007bffffffffffffffffffffffffffffffffffffffffffffffffffffffff1916827bffffffffffffffffffffffffffffffffffffffffffffffffffffffff1916145b8061061c575061061b82611344565b5b9050919050565b6060600080546106329061379b565b80601f016020809104026020016040519081016040528092919081815260200182805461065e9061379b565b80156106ab5780601f10610680576101008083540402835291602001916106ab565b820191906000526020600020905b81548152906001019060200180831161068e57829003601f168201915b5050505050905090565b60006106c0826113ae565b6004600083815260200190815260200160002060009054906101000a900473ffffffffffffffffffffffffffffffffffffffff169050919050565b6000610706826108a7565b90508073ffffffffffffffffffffffffffffffffffffffff168373ffffffffffffffffffffffffffffffffffffffff161415610777576040517f08c379a000000000000000000000000000000000000000000000000000000000815260040161076e906134ec565b60405180910390fd5b8073ffffffffffffffffffffffffffffffffffffffff166107966113f9565b73ffffffffffffffffffffffffffffffffffffffff1614806107c557506107c4816107bf6113f9565b61105d565b5b610804576040517f08c379a00000000000000000000000000000000000000000000000000000000081526004016107fb9061350c565b60405180910390fd5b61080e8383611401565b505050565b600063150b7a0260e01b9050949350505050565b6108386108326113f9565b826114ba565b610877576040517f08c379a000000000000000000000000000000000000000000000000000000000815260040161086e9061330c565b60405180910390fd5b61088283838361154f565b505050565b6108a283838360405180602001604052806000815250610e3e565b505050565b6000806108b383611849565b9050600073ffffffffffffffffffffffffffffffffffffffff168173ffffffffffffffffffffffffffffffffffffffff161415610925576040517f08c379a000000000000000000000000000000000000000000000000000000000815260040161091c906134cc565b60405180910390fd5b80915050919050565b60008073ffffffffffffffffffffffffffffffffffffffff168273ffffffffffffffffffffffffffffffffffffffff16141561099f576040517f08c379a00000000000000000000000000000000000000000000000000000000081526004016109969061340c565b60405180910390fd5b600360008373ffffffffffffffffffffffffffffffffffffffff1673ffffffffffffffffffffffffffffffffffffffff168152602001908152602001600020549050919050565b6109ee611886565b6109f86000611904565b565b610a03816119ca565b610a42576040517f08c379a0000000000000000000000000000000000000000000000000000000008152600401610a399061344c565b60405180910390fd5b348273ffffffffffffffffffffffffffffffffffffffff16311015610a9c576040517f08c379a0000000000000000000000000000000000000000000000000000000008152600401610a939061348c565b60405180910390fd5b6000610aa7826108a7565b90508073ffffffffffffffffffffffffffffffffffffffff168373ffffffffffffffffffffffffffffffffffffffff161415610b18576040517f08c379a0000000000000000000000000000000000000000000000000000000008152600401610b0f906132ec565b60405180910390fd5b610b23818484611a0b565b8073ffffffffffffffffffffffffffffffffffffffff166108fc349081150290604051600060405180830381858888f19350505050158015610b69573d6000803e3d6000fd5b507f608f6ac9327c2bf4d3c77adf447d2c448ba7b0971e0aaa9aa03f7ac29d874a44818434604051610b9d939291906131ef565b60405180910390a1505050565b6000600760009054906101000a900473ffffffffffffffffffffffffffffffffffffffff16905090565b606060018054610be39061379b565b80601f0160208091040260200160405190810160405280929190818152602001828054610c0f9061379b565b8015610c5c5780601f10610c3157610100808354040283529160200191610c5c565b820191906000526020600020905b815481529060010190602001808311610c3f57829003601f168201915b5050505050905090565b600a6020528160005260406000208181548110610c8257600080fd5b90600052602060002001600091509150505481565b610ca9610ca26113f9565b8383611af5565b5050565b80610cb83382611c62565b610cc157600080fd5b348373ffffffffffffffffffffffffffffffffffffffff16311015610d1b576040517f08c379a0000000000000000000000000000000000000000000000000000000008152600401610d129061348c565b60405180910390fd5b6000610d26836108a7565b90508073ffffffffffffffffffffffffffffffffffffffff168473ffffffffffffffffffffffffffffffffffffffff161415610d97576040517f08c379a0000000000000000000000000000000000000000000000000000000008152600401610d8e906133ac565b60405180910390fd5b610da130846106fb565b610dac818585611a0b565b6000341115610dfd578073ffffffffffffffffffffffffffffffffffffffff166108fc349081150290604051600060405180830381858888f19350505050158015610dfb573d6000803e3d6000fd5b505b7f608f6ac9327c2bf4d3c77adf447d2c448ba7b0971e0aaa9aa03f7ac29d874a44818534604051610e30939291906131ef565b60405180910390a150505050565b610e4f610e496113f9565b836114ba565b610e8e576040517f08c379a0000000000000000000000000000000000000000000000000000000008152600401610e859061330c565b60405180910390fd5b610e9a84848484611d87565b50505050565b6060610eab826113ae565b6000600660008481526020019081526020016000208054610ecb9061379b565b80601f0160208091040260200160405190810160405280929190818152602001828054610ef79061379b565b8015610f445780601f10610f1957610100808354040283529160200191610f44565b820191906000526020600020905b815481529060010190602001808311610f2757829003601f168201915b505050505090506000610f55611de3565b9050600081511415610f6b578192505050610fae565b600082511115610fa0578082604051602001610f889291906131b0565b60405160208183030381529060405292505050610fae565b610fa984611dfa565b925050505b919050565b610fbb611886565b610fc56009611e62565b6000610fd16009611e78565b9050610fdd8382611e86565b610fe78183611ea4565b610ff2306001610c97565b600a60008473ffffffffffffffffffffffffffffffffffffffff1673ffffffffffffffffffffffffffffffffffffffff168152602001908152602001600020819080600181540180825580915050600190039060005260206000200160009091909190915055505050565b6000600560008473ffffffffffffffffffffffffffffffffffffffff1673ffffffffffffffffffffffffffffffffffffffff16815260200190815260200160002060008373ffffffffffffffffffffffffffffffffffffffff1673ffffffffffffffffffffffffffffffffffffffff16815260200190815260200160002060009054906101000a900460ff16905092915050565b60606000600a60008473ffffffffffffffffffffffffffffffffffffffff1673ffffffffffffffffffffffffffffffffffffffff16815260200190815260200160002080549050905060008167ffffffffffffffff81111561115657611155613932565b5b60405190808252806020026020018201604052801561118f57816020015b61117c6128a1565b8152602001906001900390816111745790505b50905060005b828110156112b557611201600a60008773ffffffffffffffffffffffffffffffffffffffff1673ffffffffffffffffffffffffffffffffffffffff16815260200190815260200160002082815481106111f1576111f0613903565b5b9060005260206000200154610ea0565b82828151811061121457611213613903565b5b602002602001015160000181905250600a60008673ffffffffffffffffffffffffffffffffffffffff1673ffffffffffffffffffffffffffffffffffffffff168152602001908152602001600020818154811061127457611273613903565b5b906000526020600020015482828151811061129257611291613903565b5b6020026020010151602001818152505080806112ad906137fe565b915050611195565b508092505050919050565b6112c8611886565b600073ffffffffffffffffffffffffffffffffffffffff168173ffffffffffffffffffffffffffffffffffffffff161415611338576040517f08c379a000000000000000000000000000000000000000000000000000000000815260040161132f9061334c565b60405180910390fd5b61134181611904565b50565b60007f01ffc9a7000000000000000000000000000000000000000000000000000000007bffffffffffffffffffffffffffffffffffffffffffffffffffffffff1916827bffffffffffffffffffffffffffffffffffffffffffffffffffffffff1916149050919050565b6113b7816119ca565b6113f6576040517f08c379a00000000000000000000000000000000000000000000000000000000081526004016113ed906134cc565b60405180910390fd5b50565b600033905090565b816004600083815260200190815260200160002060006101000a81548173ffffffffffffffffffffffffffffffffffffffff021916908373ffffffffffffffffffffffffffffffffffffffff160217905550808273ffffffffffffffffffffffffffffffffffffffff16611474836108a7565b73ffffffffffffffffffffffffffffffffffffffff167f8c5be1e5ebec7d5bd14f71427d1e84f3dd0314c0f7b2291e5b200ac8c7c3b92560405160405180910390a45050565b6000806114c6836108a7565b90508073ffffffffffffffffffffffffffffffffffffffff168473ffffffffffffffffffffffffffffffffffffffff1614806115085750611507818561105d565b5b8061154657508373ffffffffffffffffffffffffffffffffffffffff1661152e846106b5565b73ffffffffffffffffffffffffffffffffffffffff16145b91505092915050565b8273ffffffffffffffffffffffffffffffffffffffff1661156f826108a7565b73ffffffffffffffffffffffffffffffffffffffff16146115c5576040517f08c379a00000000000000000000000000000000000000000000000000000000081526004016115bc9061336c565b60405180910390fd5b600073ffffffffffffffffffffffffffffffffffffffff168273ffffffffffffffffffffffffffffffffffffffff161415611635576040517f08c379a000000000000000000000000000000000000000000000000000000000815260040161162c906133cc565b60405180910390fd5b6116428383836001611f18565b8273ffffffffffffffffffffffffffffffffffffffff16611662826108a7565b73ffffffffffffffffffffffffffffffffffffffff16146116b8576040517f08c379a00000000000000000000000000000000000000000000000000000000081526004016116af9061336c565b60405180910390fd5b6004600082815260200190815260200160002060006101000a81549073ffffffffffffffffffffffffffffffffffffffff02191690556001600360008573ffffffffffffffffffffffffffffffffffffffff1673ffffffffffffffffffffffffffffffffffffffff168152602001908152602001600020600082825403925050819055506001600360008473ffffffffffffffffffffffffffffffffffffffff1673ffffffffffffffffffffffffffffffffffffffff16815260200190815260200160002060008282540192505081905550816002600083815260200190815260200160002060006101000a81548173ffffffffffffffffffffffffffffffffffffffff021916908373ffffffffffffffffffffffffffffffffffffffff160217905550808273ffffffffffffffffffffffffffffffffffffffff168473ffffffffffffffffffffffffffffffffffffffff167fddf252ad1be2c89b69c2b068fc378daa952ba7f163c4a11628f55a4df523b3ef60405160405180910390a4611844838383600161203e565b505050565b60006002600083815260200190815260200160002060009054906101000a900473ffffffffffffffffffffffffffffffffffffffff169050919050565b61188e6113f9565b73ffffffffffffffffffffffffffffffffffffffff166118ac610baa565b73ffffffffffffffffffffffffffffffffffffffff1614611902576040517f08c379a00000000000000000000000000000000000000000000000000000000081526004016118f9906134ac565b60405180910390fd5b565b6000600760009054906101000a900473ffffffffffffffffffffffffffffffffffffffff16905081600760006101000a81548173ffffffffffffffffffffffffffffffffffffffff021916908373ffffffffffffffffffffffffffffffffffffffff1602179055508173ffffffffffffffffffffffffffffffffffffffff168173ffffffffffffffffffffffffffffffffffffffff167f8be0079c531659141344cd1fd0a4f28419497f9722a3daafe3b4186f6b6457e060405160405180910390a35050565b60008073ffffffffffffffffffffffffffffffffffffffff166119ec83611849565b73ffffffffffffffffffffffffffffffffffffffff1614159050919050565b611a158382612044565b600a60008373ffffffffffffffffffffffffffffffffffffffff1673ffffffffffffffffffffffffffffffffffffffff16815260200190815260200160002081908060018154018082558091505060019003906000526020600020016000909190919091505560003090508073ffffffffffffffffffffffffffffffffffffffff166323b872dd8585856040518463ffffffff1660e01b8152600401611abd939291906131ef565b600060405180830381600087803b158015611ad757600080fd5b505af1158015611aeb573d6000803e3d6000fd5b5050505050505050565b8173ffffffffffffffffffffffffffffffffffffffff168373ffffffffffffffffffffffffffffffffffffffff161415611b64576040517f08c379a0000000000000000000000000000000000000000000000000000000008152600401611b5b906133ec565b60405180910390fd5b80600560008573ffffffffffffffffffffffffffffffffffffffff1673ffffffffffffffffffffffffffffffffffffffff16815260200190815260200160002060008473ffffffffffffffffffffffffffffffffffffffff1673ffffffffffffffffffffffffffffffffffffffff16815260200190815260200160002060006101000a81548160ff0219169083151502179055508173ffffffffffffffffffffffffffffffffffffffff168373ffffffffffffffffffffffffffffffffffffffff167f17307eab39ab6107e8899845ad3d59bd9653f200f220920489ca2b5937696c3183604051611c559190613294565b60405180910390a3505050565b6000808373ffffffffffffffffffffffffffffffffffffffff16611c85846108a7565b73ffffffffffffffffffffffffffffffffffffffff161490508015611d7b576000600a60008673ffffffffffffffffffffffffffffffffffffffff1673ffffffffffffffffffffffffffffffffffffffff16815260200190815260200160002080549050905060005b81811015611d785784600a60008873ffffffffffffffffffffffffffffffffffffffff1673ffffffffffffffffffffffffffffffffffffffff1681526020019081526020016000208281548110611d4857611d47613903565b5b90600052602060002001541415611d655760019350505050611d81565b8080611d70906137fe565b915050611cee565b50505b60009150505b92915050565b611d9284848461154f565b611d9e84848484612243565b611ddd576040517f08c379a0000000000000000000000000000000000000000000000000000000008152600401611dd49061332c565b60405180910390fd5b50505050565b606060405180602001604052806000815250905090565b6060611e05826113ae565b6000611e0f611de3565b90506000815111611e2f5760405180602001604052806000815250611e5a565b80611e39846123da565b604051602001611e4a9291906131b0565b6040516020818303038152906040525b915050919050565b6001816000016000828254019250508190555050565b600081600001549050919050565b611ea08282604051806020016040528060008152506124b2565b5050565b611ead826119ca565b611eec576040517f08c379a0000000000000000000000000000000000000000000000000000000008152600401611ee39061342c565b60405180910390fd5b80600660008481526020019081526020016000209080519060200190611f139291906128bb565b505050565b600181111561203857600073ffffffffffffffffffffffffffffffffffffffff168473ffffffffffffffffffffffffffffffffffffffff1614611fac5780600360008673ffffffffffffffffffffffffffffffffffffffff1673ffffffffffffffffffffffffffffffffffffffff1681526020019081526020016000206000828254611fa491906136b1565b925050819055505b600073ffffffffffffffffffffffffffffffffffffffff168373ffffffffffffffffffffffffffffffffffffffff16146120375780600360008573ffffffffffffffffffffffffffffffffffffffff1673ffffffffffffffffffffffffffffffffffffffff168152602001908152602001600020600082825461202f919061365b565b925050819055505b5b50505050565b50505050565b6000600a60008473ffffffffffffffffffffffffffffffffffffffff1673ffffffffffffffffffffffffffffffffffffffff16815260200190815260200160002080549050905060005b8181101561223d5782600a60008673ffffffffffffffffffffffffffffffffffffffff1673ffffffffffffffffffffffffffffffffffffffff16815260200190815260200160002082815481106120e8576120e7613903565b5b9060005260206000200154141561222a57600a60008573ffffffffffffffffffffffffffffffffffffffff1673ffffffffffffffffffffffffffffffffffffffff16815260200190815260200160002060018361214591906136b1565b8154811061215657612155613903565b5b9060005260206000200154600a60008673ffffffffffffffffffffffffffffffffffffffff1673ffffffffffffffffffffffffffffffffffffffff16815260200190815260200160002082815481106121b2576121b1613903565b5b9060005260206000200181905550600a60008573ffffffffffffffffffffffffffffffffffffffff1673ffffffffffffffffffffffffffffffffffffffff16815260200190815260200160002080548061220f5761220e6138d4565b5b6001900381819060005260206000200160009055905561223d565b8080612235906137fe565b91505061208e565b50505050565b60006122648473ffffffffffffffffffffffffffffffffffffffff1661250d565b156123cd578373ffffffffffffffffffffffffffffffffffffffff1663150b7a0261228d6113f9565b8786866040518563ffffffff1660e01b81526004016122af9493929190613226565b602060405180830381600087803b1580156122c957600080fd5b505af19250505080156122fa57506040513d601f19601f820116820180604052508101906122f79190612cf3565b60015b61237d573d806000811461232a576040519150601f19603f3d011682016040523d82523d6000602084013e61232f565b606091505b50600081511415612375576040517f08c379a000000000000000000000000000000000000000000000000000000000815260040161236c9061332c565b60405180910390fd5b805181602001fd5b63150b7a0260e01b7bffffffffffffffffffffffffffffffffffffffffffffffffffffffff1916817bffffffffffffffffffffffffffffffffffffffffffffffffffffffff1916149150506123d2565b600190505b949350505050565b6060600060016123e984612530565b01905060008167ffffffffffffffff81111561240857612407613932565b5b6040519080825280601f01601f19166020018201604052801561243a5781602001600182028036833780820191505090505b509050600082602001820190505b6001156124a7578080600190039150507f3031323334353637383961626364656600000000000000000000000000000000600a86061a8153600a858161249157612490613876565b5b04945060008514156124a2576124a7565b612448565b819350505050919050565b6124bc8383612683565b6124c96000848484612243565b612508576040517f08c379a00000000000000000000000000000000000000000000000000000000081526004016124ff9061332c565b60405180910390fd5b505050565b6000808273ffffffffffffffffffffffffffffffffffffffff163b119050919050565b600080600090507a184f03e93ff9f4daa797ed6e38ed64bf6a1f010000000000000000831061258e577a184f03e93ff9f4daa797ed6e38ed64bf6a1f010000000000000000838161258457612583613876565b5b0492506040810190505b6d04ee2d6d415b85acef810000000083106125cb576d04ee2d6d415b85acef810000000083816125c1576125c0613876565b5b0492506020810190505b662386f26fc1000083106125fa57662386f26fc1000083816125f0576125ef613876565b5b0492506010810190505b6305f5e1008310612623576305f5e100838161261957612618613876565b5b0492506008810190505b612710831061264857612710838161263e5761263d613876565b5b0492506004810190505b6064831061266b576064838161266157612660613876565b5b0492506002810190505b600a831061267a576001810190505b80915050919050565b600073ffffffffffffffffffffffffffffffffffffffff168273ffffffffffffffffffffffffffffffffffffffff1614156126f3576040517f08c379a00000000000000000000000000000000000000000000000000000000081526004016126ea9061346c565b60405180910390fd5b6126fc816119ca565b1561273c576040517f08c379a00000000000000000000000000000000000000000000000000000000081526004016127339061338c565b60405180910390fd5b61274a600083836001611f18565b612753816119ca565b15612793576040517f08c379a000000000000000000000000000000000000000000000000000000000815260040161278a9061338c565b60405180910390fd5b6001600360008473ffffffffffffffffffffffffffffffffffffffff1673ffffffffffffffffffffffffffffffffffffffff16815260200190815260200160002060008282540192505081905550816002600083815260200190815260200160002060006101000a81548173ffffffffffffffffffffffffffffffffffffffff021916908373ffffffffffffffffffffffffffffffffffffffff160217905550808273ffffffffffffffffffffffffffffffffffffffff16600073ffffffffffffffffffffffffffffffffffffffff167fddf252ad1be2c89b69c2b068fc378daa952ba7f163c4a11628f55a4df523b3ef60405160405180910390a461289d60008383600161203e565b5050565b604051806040016040528060608152602001600081525090565b8280546128c79061379b565b90600052602060002090601f0160209004810192826128e95760008555612930565b82601f1061290257805160ff1916838001178555612930565b82800160010185558215612930579182015b8281111561292f578251825591602001919060010190612914565b5b50905061293d9190612941565b5090565b5b8082111561295a576000816000905550600101612942565b5090565b600061297161296c8461356c565b613547565b90508281526020810184848401111561298d5761298c613966565b5b612998848285613759565b509392505050565b60006129b36129ae8461359d565b613547565b9050828152602081018484840111156129cf576129ce613966565b5b6129da848285613759565b509392505050565b6000813590506129f181613dbe565b92915050565b600081359050612a0681613dd5565b92915050565b600081359050612a1b81613dec565b92915050565b600081519050612a3081613dec565b92915050565b600082601f830112612a4b57612a4a613961565b5b8135612a5b84826020860161295e565b91505092915050565b600082601f830112612a7957612a78613961565b5b8135612a898482602086016129a0565b91505092915050565b600081359050612aa181613e03565b92915050565b600060208284031215612abd57612abc613970565b5b6000612acb848285016129e2565b91505092915050565b60008060408385031215612aeb57612aea613970565b5b6000612af9858286016129e2565b9250506020612b0a858286016129e2565b9150509250929050565b600080600060608486031215612b2d57612b2c613970565b5b6000612b3b868287016129e2565b9350506020612b4c868287016129e2565b9250506040612b5d86828701612a92565b9150509250925092565b60008060008060808587031215612b8157612b80613970565b5b6000612b8f878288016129e2565b9450506020612ba0878288016129e2565b9350506040612bb187828801612a92565b925050606085013567ffffffffffffffff811115612bd257612bd161396b565b5b612bde87828801612a36565b91505092959194509250565b60008060408385031215612c0157612c00613970565b5b6000612c0f858286016129e2565b9250506020612c20858286016129f7565b9150509250929050565b60008060408385031215612c4157612c40613970565b5b6000612c4f858286016129e2565b925050602083013567ffffffffffffffff811115612c7057612c6f61396b565b5b612c7c85828601612a64565b9150509250929050565b60008060408385031215612c9d57612c9c613970565b5b6000612cab858286016129e2565b9250506020612cbc85828601612a92565b9150509250929050565b600060208284031215612cdc57612cdb613970565b5b6000612cea84828501612a0c565b91505092915050565b600060208284031215612d0957612d08613970565b5b6000612d1784828501612a21565b91505092915050565b600060208284031215612d3657612d35613970565b5b6000612d4484828501612a92565b91505092915050565b6000612d598383613155565b905092915050565b612d6a816136e5565b82525050565b6000612d7b826135de565b612d85818561360c565b935083602082028501612d97856135ce565b8060005b85811015612dd35784840389528151612db48582612d4d565b9450612dbf836135ff565b925060208a01995050600181019050612d9b565b50829750879550505050505092915050565b612dee816136f7565b82525050565b612dfd81613703565b82525050565b6000612e0e826135e9565b612e18818561361d565b9350612e28818560208601613768565b612e3181613975565b840191505092915050565b6000612e47826135f4565b612e51818561362e565b9350612e61818560208601613768565b612e6a81613975565b840191505092915050565b6000612e80826135f4565b612e8a818561363f565b9350612e9a818560208601613768565b612ea381613975565b840191505092915050565b6000612eb9826135f4565b612ec38185613650565b9350612ed3818560208601613768565b80840191505092915050565b6000612eec60168361363f565b9150612ef782613986565b602082019050919050565b6000612f0f602d8361363f565b9150612f1a826139af565b604082019050919050565b6000612f3260328361363f565b9150612f3d826139fe565b604082019050919050565b6000612f5560268361363f565b9150612f6082613a4d565b604082019050919050565b6000612f7860258361363f565b9150612f8382613a9c565b604082019050919050565b6000612f9b601c8361363f565b9150612fa682613aeb565b602082019050919050565b6000612fbe60148361363f565b9150612fc982613b14565b602082019050919050565b6000612fe160248361363f565b9150612fec82613b3d565b604082019050919050565b600061300460198361363f565b915061300f82613b8c565b602082019050919050565b600061302760298361363f565b915061303282613bb5565b604082019050919050565b600061304a602e8361363f565b915061305582613c04565b604082019050919050565b600061306d601e8361363f565b915061307882613c53565b602082019050919050565b600061309060208361363f565b915061309b82613c7c565b602082019050919050565b60006130b360118361363f565b91506130be82613ca5565b602082019050919050565b60006130d660208361363f565b91506130e182613cce565b602082019050919050565b60006130f960188361363f565b915061310482613cf7565b602082019050919050565b600061311c60218361363f565b915061312782613d20565b604082019050919050565b600061313f603d8361363f565b915061314a82613d6f565b604082019050919050565b600060408301600083015184820360008601526131728282612e3c565b91505060208301516131876020860182613192565b508091505092915050565b61319b8161374f565b82525050565b6131aa8161374f565b82525050565b60006131bc8285612eae565b91506131c88284612eae565b91508190509392505050565b60006020820190506131e96000830184612d61565b92915050565b60006060820190506132046000830186612d61565b6132116020830185612d61565b61321e60408301846131a1565b949350505050565b600060808201905061323b6000830187612d61565b6132486020830186612d61565b61325560408301856131a1565b81810360608301526132678184612e03565b905095945050505050565b6000602082019050818103600083015261328c8184612d70565b905092915050565b60006020820190506132a96000830184612de5565b92915050565b60006020820190506132c46000830184612df4565b92915050565b600060208201905081810360008301526132e48184612e75565b905092915050565b6000602082019050818103600083015261330581612edf565b9050919050565b6000602082019050818103600083015261332581612f02565b9050919050565b6000602082019050818103600083015261334581612f25565b9050919050565b6000602082019050818103600083015261336581612f48565b9050919050565b6000602082019050818103600083015261338581612f6b565b9050919050565b600060208201905081810360008301526133a581612f8e565b9050919050565b600060208201905081810360008301526133c581612fb1565b9050919050565b600060208201905081810360008301526133e581612fd4565b9050919050565b6000602082019050818103600083015261340581612ff7565b9050919050565b600060208201905081810360008301526134258161301a565b9050919050565b600060208201905081810360008301526134458161303d565b9050919050565b6000602082019050818103600083015261346581613060565b9050919050565b6000602082019050818103600083015261348581613083565b9050919050565b600060208201905081810360008301526134a5816130a6565b9050919050565b600060208201905081810360008301526134c5816130c9565b9050919050565b600060208201905081810360008301526134e5816130ec565b9050919050565b600060208201905081810360008301526135058161310f565b9050919050565b6000602082019050818103600083015261352581613132565b9050919050565b600060208201905061354160008301846131a1565b92915050565b6000613551613562565b905061355d82826137cd565b919050565b6000604051905090565b600067ffffffffffffffff82111561358757613586613932565b5b61359082613975565b9050602081019050919050565b600067ffffffffffffffff8211156135b8576135b7613932565b5b6135c182613975565b9050602081019050919050565b6000819050602082019050919050565b600081519050919050565b600081519050919050565b600081519050919050565b6000602082019050919050565b600082825260208201905092915050565b600082825260208201905092915050565b600082825260208201905092915050565b600082825260208201905092915050565b600081905092915050565b60006136668261374f565b91506136718361374f565b9250827fffffffffffffffffffffffffffffffffffffffffffffffffffffffffffffffff038211156136a6576136a5613847565b5b828201905092915050565b60006136bc8261374f565b91506136c78361374f565b9250828210156136da576136d9613847565b5b828203905092915050565b60006136f08261372f565b9050919050565b60008115159050919050565b60007fffffffff0000000000000000000000000000000000000000000000000000000082169050919050565b600073ffffffffffffffffffffffffffffffffffffffff82169050919050565b6000819050919050565b82818337600083830152505050565b60005b8381101561378657808201518184015260208101905061376b565b83811115613795576000848401525b50505050565b600060028204905060018216806137b357607f821691505b602082108114156137c7576137c66138a5565b5b50919050565b6137d682613975565b810181811067ffffffffffffffff821117156137f5576137f4613932565b5b80604052505050565b60006138098261374f565b91507fffffffffffffffffffffffffffffffffffffffffffffffffffffffffffffffff82141561383c5761383b613847565b5b600182019050919050565b7f4e487b7100000000000000000000000000000000000000000000000000000000600052601160045260246000fd5b7f4e487b7100000000000000000000000000000000000000000000000000000000600052601260045260246000fd5b7f4e487b7100000000000000000000000000000000000000000000000000000000600052602260045260246000fd5b7f4e487b7100000000000000000000000000000000000000000000000000000000600052603160045260246000fd5b7f4e487b7100000000000000000000000000000000000000000000000000000000600052603260045260246000fd5b7f4e487b7100000000000000000000000000000000000000000000000000000000600052604160045260246000fd5b600080fd5b600080fd5b600080fd5b600080fd5b6000601f19601f8301169050919050565b7f43616e206e6f7420627579206f776e6564206361726400000000000000000000600082015250565b7f4552433732313a2063616c6c6572206973206e6f7420746f6b656e206f776e6560008201527f72206f7220617070726f76656400000000000000000000000000000000000000602082015250565b7f4552433732313a207472616e7366657220746f206e6f6e20455243373231526560008201527f63656976657220696d706c656d656e7465720000000000000000000000000000602082015250565b7f4f776e61626c653a206e6577206f776e657220697320746865207a65726f206160008201527f6464726573730000000000000000000000000000000000000000000000000000602082015250565b7f4552433732313a207472616e736665722066726f6d20696e636f72726563742060008201527f6f776e6572000000000000000000000000000000000000000000000000000000602082015250565b7f4552433732313a20746f6b656e20616c7265616479206d696e74656400000000600082015250565b7f43616e206e6f742073656e6420746f2073656c66000000000000000000000000600082015250565b7f4552433732313a207472616e7366657220746f20746865207a65726f2061646460008201527f7265737300000000000000000000000000000000000000000000000000000000602082015250565b7f4552433732313a20617070726f766520746f2063616c6c657200000000000000600082015250565b7f4552433732313a2061646472657373207a65726f206973206e6f74206120766160008201527f6c6964206f776e65720000000000000000000000000000000000000000000000602082015250565b7f45524337323155524953746f726167653a2055524920736574206f66206e6f6e60008201527f6578697374656e7420746f6b656e000000000000000000000000000000000000602082015250565b7f7472616e73666572206f66206e6f6e206578697374696e6720746f6b656e0000600082015250565b7f4552433732313a206d696e7420746f20746865207a65726f2061646472657373600082015250565b7f536f6c646520696e737566666973616e74000000000000000000000000000000600082015250565b7f4f776e61626c653a2063616c6c6572206973206e6f7420746865206f776e6572600082015250565b7f4552433732313a20696e76616c696420746f6b656e2049440000000000000000600082015250565b7f4552433732313a20617070726f76616c20746f2063757272656e74206f776e6560008201527f7200000000000000000000000000000000000000000000000000000000000000602082015250565b7f4552433732313a20617070726f76652063616c6c6572206973206e6f7420746f60008201527f6b656e206f776e6572206f7220617070726f76656420666f7220616c6c000000602082015250565b613dc7816136e5565b8114613dd257600080fd5b50565b613dde816136f7565b8114613de957600080fd5b50565b613df581613703565b8114613e0057600080fd5b50565b613e0c8161374f565b8114613e1757600080fd5b5056fea26469706673582212203830da6389eb60e85c9bbd651e5b5d1c21a8001a8f40e4d05da339439188f57a64736f6c63430008070033",
  "immutableReferences": {},
  "source": "//Contract based on [https://docs.openzeppelin.com/contracts/4.x/erc721](https://docs.openzeppelin.com/contracts/4.x/erc721)\r\n// SPDX-License-Identifier: MIT\r\npragma solidity ^0.8.7;\r\n\r\nimport \"@openzeppelin/contracts/token/ERC721/ERC721.sol\";\r\nimport \"@openzeppelin/contracts/token/ERC721/extensions/ERC721URIStorage.sol\";\r\nimport \"@openzeppelin/contracts/token/ERC721/utils/ERC721Holder.sol\";\r\nimport \"@openzeppelin/contracts/utils/Counters.sol\";\r\nimport \"@openzeppelin/contracts/access/Ownable.sol\";\r\n\r\ncontract Card is ERC721URIStorage, Ownable,ERC721Holder  {\r\n\r\n    // Structs \r\n    struct cardResponse {\r\n            string uri;\r\n            uint256 id;\r\n        }\r\n    // props \r\n    uint private fees = 0.01 ether;\r\n    using Counters for Counters.Counter;\r\n    Counters.Counter private _tokenIds;\r\n            \r\n    // modifiers \r\n    modifier onlyOwnerOf(uint _cardId) {\r\n        require(_ownerContainCard(msg.sender,_cardId));\r\n        _;\r\n    }\r\n\r\n    // events\r\n    event NftBought(address _seller, address _buyer, uint256 _price);\r\n\r\n    //mappings\r\n    mapping(address => uint256[]) public userOwnedCards;\r\n\r\n    constructor() ERC721(\"Card NFT\", \"NFT\") {\r\n\r\n    }\r\n\r\n    // private functions\r\n    function _removeCardFromOwner(address _owner,uint256 _cardId) private \r\n    {\r\n        uint ownedCardsCount = userOwnedCards[_owner].length;\r\n        for (uint i = 0; i < ownedCardsCount; i++) {\r\n            if(userOwnedCards[_owner][i] == _cardId){\r\n                userOwnedCards[_owner][i] = userOwnedCards[_owner][ownedCardsCount-1];\r\n                userOwnedCards[_owner].pop();\r\n                break;\r\n            }\r\n        }\r\n    }\r\n\r\n    function _transferCard(address _from, address _to, uint256 _cardId) private {\r\n        _removeCardFromOwner(_from,_cardId);\r\n        userOwnedCards[_to].push(_cardId);\r\n        IERC721 nft = IERC721(address(this));\r\n        nft.transferFrom(_from, _to, _cardId);\r\n    }\r\n\r\n    function _ownerContainCard(address _owner,uint256 _cardId) private returns(bool){\r\n        bool _isOwner = ownerOf(_cardId) == _owner;\r\n        if(_isOwner){\r\n            uint ownedCardsCount = userOwnedCards[_owner].length;\r\n            for(uint i = 0; i < ownedCardsCount; i++){\r\n                if(userOwnedCards[_owner][i] == _cardId){\r\n                    return true;\r\n                }\r\n            }\r\n        }\r\n        return false;\r\n\r\n    }\r\n    \r\n    \r\n\r\n    // functions\r\n\r\n    function mintCard(address recipient, string memory cardURI)\r\n     public payable onlyOwner \r\n    {\r\n        _tokenIds.increment();\r\n        uint256 cardId = _tokenIds.current();\r\n        _safeMint(recipient, cardId);\r\n        _setTokenURI(cardId, cardURI);\r\n        setApprovalForAll(address(this),true);\r\n        userOwnedCards[recipient].push(cardId);\r\n    }\r\n\r\n    function getCardsByOwner(address owner) public view returns (cardResponse[] memory)  {\r\n        uint ownedCardsCount = userOwnedCards[owner].length;\r\n        cardResponse[] memory result = new cardResponse[](ownedCardsCount);\r\n\r\n        for (uint i = 0; i < ownedCardsCount; i++) {\r\n            result[i].uri = tokenURI(userOwnedCards[owner][i]);\r\n            result[i].id =  userOwnedCards[owner][i];\r\n        }\r\n        return result;\r\n    }\r\n\r\n\r\n    \r\n    function buyCard(address _buyer,uint256 _cardId) public payable {\r\n        require(_exists(_cardId), \"transfer of non existing token\");\r\n       require(_buyer.balance >= msg.value, 'Solde insuffisant');\r\n       address _seller = ownerOf(_cardId);\r\n       require(_buyer != _seller,'Can not buy owned card');\r\n        _transferCard(_seller, payable(_buyer), _cardId);\r\n       payable(_seller).transfer(msg.value);\r\n        emit NftBought(_seller, _buyer, msg.value);\r\n    }\r\n\r\n    function sendCard(address _to,uint256 _cardId) public payable onlyOwnerOf(_cardId) {\r\n        require(_to.balance >= msg.value, 'Solde insuffisant');\r\n        address _seller = ownerOf(_cardId);\r\n        require(_to != _seller,'Can not send to self');\r\n\r\n        approve(address(this),_cardId);\r\n        _transferCard(_seller, payable(_to), _cardId);\r\n        if(msg.value > 0)\r\n            payable(_seller).transfer(msg.value);\r\n        emit NftBought(_seller, _to, msg.value);\r\n    }\r\n\r\n\r\n\r\n\r\n}",
  "sourcePath": "C:\\Users\\alamine\\Desktop\\5bloc\\nft\\5BLOC\\Blockchain\\contracts\\Card.sol",
  "compiler": {
    "name": "solc",
    "version": "0.8.7+commit.e28d00a7.Emscripten.clang"
  },
  "schemaVersion": "3.4.11",
  "updatedAt": "2022-12-07T15:03:48.313Z",
  "networkType": "ethereum",
  "devdoc": {
    "kind": "dev",
    "methods": {
      "approve(address,uint256)": {
        "details": "See {IERC721-approve}."
      },
      "balanceOf(address)": {
        "details": "See {IERC721-balanceOf}."
      },
      "getApproved(uint256)": {
        "details": "See {IERC721-getApproved}."
      },
      "isApprovedForAll(address,address)": {
        "details": "See {IERC721-isApprovedForAll}."
      },
      "name()": {
        "details": "See {IERC721Metadata-name}."
      },
      "onERC721Received(address,address,uint256,bytes)": {
        "details": "See {IERC721Receiver-onERC721Received}. Always returns `IERC721Receiver.onERC721Received.selector`."
      },
      "owner()": {
        "details": "Returns the address of the current owner."
      },
      "ownerOf(uint256)": {
        "details": "See {IERC721-ownerOf}."
      },
      "renounceOwnership()": {
        "details": "Leaves the contract without owner. It will not be possible to call `onlyOwner` functions anymore. Can only be called by the current owner. NOTE: Renouncing ownership will leave the contract without an owner, thereby removing any functionality that is only available to the owner."
      },
      "safeTransferFrom(address,address,uint256)": {
        "details": "See {IERC721-safeTransferFrom}."
      },
      "safeTransferFrom(address,address,uint256,bytes)": {
        "details": "See {IERC721-safeTransferFrom}."
      },
      "setApprovalForAll(address,bool)": {
        "details": "See {IERC721-setApprovalForAll}."
      },
      "supportsInterface(bytes4)": {
        "details": "See {IERC165-supportsInterface}."
      },
      "symbol()": {
        "details": "See {IERC721Metadata-symbol}."
      },
      "tokenURI(uint256)": {
        "details": "See {IERC721Metadata-tokenURI}."
      },
      "transferFrom(address,address,uint256)": {
        "details": "See {IERC721-transferFrom}."
      },
      "transferOwnership(address)": {
        "details": "Transfers ownership of the contract to a new account (`newOwner`). Can only be called by the current owner."
      }
    },
    "version": 1
  },
  "userdoc": {
    "kind": "user",
    "methods": {},
    "version": 1
  }
}