{
  "contractName": "Purchase",
  "abi": [
    {
      "anonymous": false,
      "inputs": [
        {
          "indexed": false,
          "internalType": "string",
          "name": "departure",
          "type": "string"
        },
        {
          "indexed": false,
          "internalType": "string",
          "name": "arrival",
          "type": "string"
        },
        {
          "indexed": false,
          "internalType": "string",
          "name": "travelTime",
          "type": "string"
        },
        {
          "indexed": false,
          "internalType": "string",
          "name": "name",
          "type": "string"
        },
        {
          "indexed": false,
          "internalType": "uint256",
          "name": "price",
          "type": "uint256"
        }
      ],
      "name": "NewTicket",
      "type": "event"
    },
    {
      "inputs": [],
      "name": "showBalance",
      "outputs": [
        {
          "internalType": "uint256",
          "name": "",
          "type": "uint256"
        }
      ],
      "stateMutability": "view",
      "type": "function",
      "constant": true
    },
    {
      "inputs": [
        {
          "internalType": "address",
          "name": "_buyer",
          "type": "address"
        },
        {
          "internalType": "string",
          "name": "_departure",
          "type": "string"
        },
        {
          "internalType": "string",
          "name": "_arrival",
          "type": "string"
        },
        {
          "internalType": "string",
          "name": "_travelTime",
          "type": "string"
        },
        {
          "internalType": "string",
          "name": "_name",
          "type": "string"
        },
        {
          "internalType": "uint256",
          "name": "_price",
          "type": "uint256"
        }
      ],
      "name": "buyTickets",
      "outputs": [
        {
          "components": [
            {
              "internalType": "string",
              "name": "departure",
              "type": "string"
            },
            {
              "internalType": "string",
              "name": "arrival",
              "type": "string"
            },
            {
              "internalType": "string",
              "name": "travelTime",
              "type": "string"
            },
            {
              "internalType": "string",
              "name": "name",
              "type": "string"
            },
            {
              "internalType": "uint256",
              "name": "price",
              "type": "uint256"
            }
          ],
          "internalType": "struct Purchase.Ticket[]",
          "name": "",
          "type": "tuple[]"
        }
      ],
      "stateMutability": "payable",
      "type": "function",
      "payable": true
    },
    {
      "inputs": [
        {
          "internalType": "address",
          "name": "_adress",
          "type": "address"
        }
      ],
      "name": "showTicket",
      "outputs": [
        {
          "components": [
            {
              "internalType": "string",
              "name": "departure",
              "type": "string"
            },
            {
              "internalType": "string",
              "name": "arrival",
              "type": "string"
            },
            {
              "internalType": "string",
              "name": "travelTime",
              "type": "string"
            },
            {
              "internalType": "string",
              "name": "name",
              "type": "string"
            },
            {
              "internalType": "uint256",
              "name": "price",
              "type": "uint256"
            }
          ],
          "internalType": "struct Purchase.Ticket[]",
          "name": "",
          "type": "tuple[]"
        }
      ],
      "stateMutability": "view",
      "type": "function",
      "constant": true
    }
  ],
  "bytecode": "0x608060405234801561001057600080fd5b50611013806100206000396000f3fe6080604052600436106100345760003560e01c806381b2d07b146100395780638c501da414610064578063fa15ab0114610094575b600080fd5b34801561004557600080fd5b5061004e6100d1565b60405161005b9190610d4b565b60405180910390f35b61007e600480360381019061007991906109d6565b6100d9565b60405161008b9190610c9a565b60405180910390f35b3480156100a057600080fd5b506100bb60048036038101906100b691906109a9565b61057a565b6040516100c89190610c9a565b60405180910390f35b600047905090565b6060348773ffffffffffffffffffffffffffffffffffffffff16311015610135576040517f08c379a000000000000000000000000000000000000000000000000000000000815260040161012c90610d2b565b60405180910390fd5b6000803373ffffffffffffffffffffffffffffffffffffffff1673ffffffffffffffffffffffffffffffffffffffff1681526020019081526020016000206000016040518060a0016040528088815260200187815260200186815260200185815260200184815250908060018154018082558091505060019003906000526020600020906005020160009091909190915060008201518160000190805190602001906101e292919061086c565b5060208201518160010190805190602001906101ff92919061086c565b50604082015181600201908051906020019061021c92919061086c565b50606082015181600301908051906020019061023992919061086c565b506080820151816004015550507f6e0ec5c7852a51c10e98287d0376054cba9740579fb8f23af30d4eff271a5a9b868686868660405161027d959493929190610cbc565b60405180910390a16000803373ffffffffffffffffffffffffffffffffffffffff1673ffffffffffffffffffffffffffffffffffffffff168152602001908152602001600020600001805480602002602001604051908101604052809291908181526020016000905b8282101561056a57838290600052602060002090600502016040518060a001604052908160008201805461031990610ea0565b80601f016020809104026020016040519081016040528092919081815260200182805461034590610ea0565b80156103925780601f1061036757610100808354040283529160200191610392565b820191906000526020600020905b81548152906001019060200180831161037557829003601f168201915b505050505081526020016001820180546103ab90610ea0565b80601f01602080910402602001604051908101604052809291908181526020018280546103d790610ea0565b80156104245780601f106103f957610100808354040283529160200191610424565b820191906000526020600020905b81548152906001019060200180831161040757829003601f168201915b5050505050815260200160028201805461043d90610ea0565b80601f016020809104026020016040519081016040528092919081815260200182805461046990610ea0565b80156104b65780601f1061048b576101008083540402835291602001916104b6565b820191906000526020600020905b81548152906001019060200180831161049957829003601f168201915b505050505081526020016003820180546104cf90610ea0565b80601f01602080910402602001604051908101604052809291908181526020018280546104fb90610ea0565b80156105485780601f1061051d57610100808354040283529160200191610548565b820191906000526020600020905b81548152906001019060200180831161052b57829003601f168201915b50505050508152602001600482015481525050815260200190600101906102e6565b5050505090509695505050505050565b60606000808373ffffffffffffffffffffffffffffffffffffffff1673ffffffffffffffffffffffffffffffffffffffff168152602001908152602001600020600001805480602002602001604051908101604052809291908181526020016000905b8282101561086157838290600052602060002090600502016040518060a001604052908160008201805461061090610ea0565b80601f016020809104026020016040519081016040528092919081815260200182805461063c90610ea0565b80156106895780601f1061065e57610100808354040283529160200191610689565b820191906000526020600020905b81548152906001019060200180831161066c57829003601f168201915b505050505081526020016001820180546106a290610ea0565b80601f01602080910402602001604051908101604052809291908181526020018280546106ce90610ea0565b801561071b5780601f106106f05761010080835404028352916020019161071b565b820191906000526020600020905b8154815290600101906020018083116106fe57829003601f168201915b5050505050815260200160028201805461073490610ea0565b80601f016020809104026020016040519081016040528092919081815260200182805461076090610ea0565b80156107ad5780601f10610782576101008083540402835291602001916107ad565b820191906000526020600020905b81548152906001019060200180831161079057829003601f168201915b505050505081526020016003820180546107c690610ea0565b80601f01602080910402602001604051908101604052809291908181526020018280546107f290610ea0565b801561083f5780601f106108145761010080835404028352916020019161083f565b820191906000526020600020905b81548152906001019060200180831161082257829003601f168201915b50505050508152602001600482015481525050815260200190600101906105dd565b505050509050919050565b82805461087890610ea0565b90600052602060002090601f01602090048101928261089a57600085556108e1565b82601f106108b357805160ff19168380011785556108e1565b828001600101855582156108e1579182015b828111156108e05782518255916020019190600101906108c5565b5b5090506108ee91906108f2565b5090565b5b8082111561090b5760008160009055506001016108f3565b5090565b600061092261091d84610d8b565b610d66565b90508281526020810184848401111561093e5761093d610f66565b5b610949848285610e5e565b509392505050565b60008135905061096081610faf565b92915050565b600082601f83011261097b5761097a610f61565b5b813561098b84826020860161090f565b91505092915050565b6000813590506109a381610fc6565b92915050565b6000602082840312156109bf576109be610f70565b5b60006109cd84828501610951565b91505092915050565b60008060008060008060c087890312156109f3576109f2610f70565b5b6000610a0189828a01610951565b965050602087013567ffffffffffffffff811115610a2257610a21610f6b565b5b610a2e89828a01610966565b955050604087013567ffffffffffffffff811115610a4f57610a4e610f6b565b5b610a5b89828a01610966565b945050606087013567ffffffffffffffff811115610a7c57610a7b610f6b565b5b610a8889828a01610966565b935050608087013567ffffffffffffffff811115610aa957610aa8610f6b565b5b610ab589828a01610966565b92505060a0610ac689828a01610994565b9150509295509295509295565b6000610adf8383610bf1565b905092915050565b6000610af282610dcc565b610afc8185610def565b935083602082028501610b0e85610dbc565b8060005b85811015610b4a5784840389528151610b2b8582610ad3565b9450610b3683610de2565b925060208a01995050600181019050610b12565b50829750879550505050505092915050565b6000610b6782610dd7565b610b718185610e00565b9350610b81818560208601610e6d565b610b8a81610f75565b840191505092915050565b6000610ba082610dd7565b610baa8185610e11565b9350610bba818560208601610e6d565b610bc381610f75565b840191505092915050565b6000610bdb601183610e11565b9150610be682610f86565b602082019050919050565b600060a0830160008301518482036000860152610c0e8282610b5c565b91505060208301518482036020860152610c288282610b5c565b91505060408301518482036040860152610c428282610b5c565b91505060608301518482036060860152610c5c8282610b5c565b9150506080830151610c716080860182610c7c565b508091505092915050565b610c8581610e54565b82525050565b610c9481610e54565b82525050565b60006020820190508181036000830152610cb48184610ae7565b905092915050565b600060a0820190508181036000830152610cd68188610b95565b90508181036020830152610cea8187610b95565b90508181036040830152610cfe8186610b95565b90508181036060830152610d128185610b95565b9050610d216080830184610c8b565b9695505050505050565b60006020820190508181036000830152610d4481610bce565b9050919050565b6000602082019050610d606000830184610c8b565b92915050565b6000610d70610d81565b9050610d7c8282610ed2565b919050565b6000604051905090565b600067ffffffffffffffff821115610da657610da5610f32565b5b610daf82610f75565b9050602081019050919050565b6000819050602082019050919050565b600081519050919050565b600081519050919050565b6000602082019050919050565b600082825260208201905092915050565b600082825260208201905092915050565b600082825260208201905092915050565b6000610e2d82610e34565b9050919050565b600073ffffffffffffffffffffffffffffffffffffffff82169050919050565b6000819050919050565b82818337600083830152505050565b60005b83811015610e8b578082015181840152602081019050610e70565b83811115610e9a576000848401525b50505050565b60006002820490506001821680610eb857607f821691505b60208210811415610ecc57610ecb610f03565b5b50919050565b610edb82610f75565b810181811067ffffffffffffffff82111715610efa57610ef9610f32565b5b80604052505050565b7f4e487b7100000000000000000000000000000000000000000000000000000000600052602260045260246000fd5b7f4e487b7100000000000000000000000000000000000000000000000000000000600052604160045260246000fd5b600080fd5b600080fd5b600080fd5b600080fd5b6000601f19601f8301169050919050565b7f536f6c646520696e737566666973616e74000000000000000000000000000000600082015250565b610fb881610e22565b8114610fc357600080fd5b50565b610fcf81610e54565b8114610fda57600080fd5b5056fea26469706673582212205e41af38a6b54f83e497e30cdbf9deb88c1f67fd1e13585fb53f791d1817dc6164736f6c63430008070033",
  "immutableReferences": {},
  "source": "pragma solidity ^0.8.7;\r\n\r\ncontract Purchase {\r\n    struct Ticket {\r\n        string departure;\r\n        string arrival;\r\n        string  travelTime;\r\n        string name;\r\n        uint price;\r\n    }\r\n\r\n    struct walet {\r\n        Ticket[] ticketList;\r\n    }\r\n\r\n    mapping(address => walet) userTowalet;\r\n        event NewTicket(string departure, string arrival,string travelTime, string name, uint price);\r\n\r\n    function showBalance() public view returns (uint) {\r\n        return address(this).balance;\r\n    }\r\n\r\n    function buyTickets( address _buyer,  string memory _departure ,  string memory _arrival ,string memory _travelTime, string memory _name, uint _price) public payable returns (Ticket[] memory) {\r\n        require(_buyer.balance >= msg.value, 'Solde insuffisant');\r\n        userTowalet[msg.sender].ticketList.push(Ticket(_departure,_arrival,_travelTime,_name, _price));\r\n        emit NewTicket(_departure,_arrival,_travelTime,_name, _price);\r\n        return userTowalet[msg.sender].ticketList;\r\n    }\r\n\r\n    function showTicket(address _adress) public view returns (Ticket[] memory){\r\n        return userTowalet[_adress].ticketList;\r\n    }\r\n\r\n\r\n}\r\n",
  "sourcePath": "D:\\5Bloc\\5BLOC\\Blockchain\\contracts\\Purchase.sol",
  "compiler": {
    "name": "solc",
    "version": "0.8.7+commit.e28d00a7.Emscripten.clang"
  },
  "schemaVersion": "3.4.11",
  "updatedAt": "2022-12-12T19:04:45.354Z",
  "networkType": "ethereum",
  "devdoc": {
    "kind": "dev",
    "methods": {},
    "version": 1
  },
  "userdoc": {
    "kind": "user",
    "methods": {},
    "version": 1
  }
}