{
  "contractName": "Purchase",
  "abi": [
    {
      "anonymous": false,
      "inputs": [
        {
          "indexed": false,
          "internalType": "string",
          "name": "departure",
          "type": "string"
        },
        {
          "indexed": false,
          "internalType": "string",
          "name": "arrival",
          "type": "string"
        },
        {
          "indexed": false,
          "internalType": "string",
          "name": "travelTime",
          "type": "string"
        },
        {
          "indexed": false,
          "internalType": "string",
          "name": "name",
          "type": "string"
        },
        {
          "indexed": false,
          "internalType": "uint256",
          "name": "price",
          "type": "uint256"
        }
      ],
      "name": "NewTicket",
      "type": "event"
    },
    {
      "inputs": [],
      "name": "showBalance",
      "outputs": [
        {
          "internalType": "uint256",
          "name": "",
          "type": "uint256"
        }
      ],
      "stateMutability": "view",
      "type": "function",
      "constant": true
    },
    {
      "inputs": [
        {
          "internalType": "address",
          "name": "_buyer",
          "type": "address"
        },
        {
          "internalType": "string",
          "name": "_departure",
          "type": "string"
        },
        {
          "internalType": "string",
          "name": "_arrival",
          "type": "string"
        },
        {
          "internalType": "string",
          "name": "_travelTime",
          "type": "string"
        },
        {
          "internalType": "string",
          "name": "_name",
          "type": "string"
        },
        {
          "internalType": "uint256",
          "name": "_price",
          "type": "uint256"
        }
      ],
      "name": "buyTickets",
      "outputs": [
        {
          "components": [
            {
              "internalType": "string",
              "name": "departure",
              "type": "string"
            },
            {
              "internalType": "string",
              "name": "arrival",
              "type": "string"
            },
            {
              "internalType": "string",
              "name": "travelTime",
              "type": "string"
            },
            {
              "internalType": "string",
              "name": "name",
              "type": "string"
            },
            {
              "internalType": "uint256",
              "name": "price",
              "type": "uint256"
            }
          ],
          "internalType": "struct Purchase.Ticket[]",
          "name": "",
          "type": "tuple[]"
        }
      ],
      "stateMutability": "payable",
      "type": "function",
      "payable": true
    },
    {
      "inputs": [
        {
          "internalType": "address",
          "name": "_adress",
          "type": "address"
        }
      ],
      "name": "showTicket",
      "outputs": [
        {
          "components": [
            {
              "internalType": "string",
              "name": "departure",
              "type": "string"
            },
            {
              "internalType": "string",
              "name": "arrival",
              "type": "string"
            },
            {
              "internalType": "string",
              "name": "travelTime",
              "type": "string"
            },
            {
              "internalType": "string",
              "name": "name",
              "type": "string"
            },
            {
              "internalType": "uint256",
              "name": "price",
              "type": "uint256"
            }
          ],
          "internalType": "struct Purchase.Ticket[]",
          "name": "",
          "type": "tuple[]"
        }
      ],
      "stateMutability": "view",
      "type": "function",
      "constant": true
    }
  ],
  "bytecode": "0x6080604052670de0b6b3a764000060005534801561001c57600080fd5b506110168061002c6000396000f3fe6080604052600436106100345760003560e01c806381b2d07b146100395780638c501da414610064578063fa15ab0114610094575b600080fd5b34801561004557600080fd5b5061004e6100d1565b60405161005b9190610d4e565b60405180910390f35b61007e600480360381019061007991906109d9565b6100d9565b60405161008b9190610c9d565b60405180910390f35b3480156100a057600080fd5b506100bb60048036038101906100b691906109ac565b61057c565b6040516100c89190610c9d565b60405180910390f35b600047905090565b6060348773ffffffffffffffffffffffffffffffffffffffff16311015610135576040517f08c379a000000000000000000000000000000000000000000000000000000000815260040161012c90610d2e565b60405180910390fd5b600160003373ffffffffffffffffffffffffffffffffffffffff1673ffffffffffffffffffffffffffffffffffffffff1681526020019081526020016000206000016040518060a0016040528088815260200187815260200186815260200185815260200184815250908060018154018082558091505060019003906000526020600020906005020160009091909190915060008201518160000190805190602001906101e392919061086f565b50602082015181600101908051906020019061020092919061086f565b50604082015181600201908051906020019061021d92919061086f565b50606082015181600301908051906020019061023a92919061086f565b506080820151816004015550507f6e0ec5c7852a51c10e98287d0376054cba9740579fb8f23af30d4eff271a5a9b868686868660405161027e959493929190610cbf565b60405180910390a1600160003373ffffffffffffffffffffffffffffffffffffffff1673ffffffffffffffffffffffffffffffffffffffff168152602001908152602001600020600001805480602002602001604051908101604052809291908181526020016000905b8282101561056c57838290600052602060002090600502016040518060a001604052908160008201805461031b90610ea3565b80601f016020809104026020016040519081016040528092919081815260200182805461034790610ea3565b80156103945780601f1061036957610100808354040283529160200191610394565b820191906000526020600020905b81548152906001019060200180831161037757829003601f168201915b505050505081526020016001820180546103ad90610ea3565b80601f01602080910402602001604051908101604052809291908181526020018280546103d990610ea3565b80156104265780601f106103fb57610100808354040283529160200191610426565b820191906000526020600020905b81548152906001019060200180831161040957829003601f168201915b5050505050815260200160028201805461043f90610ea3565b80601f016020809104026020016040519081016040528092919081815260200182805461046b90610ea3565b80156104b85780601f1061048d576101008083540402835291602001916104b8565b820191906000526020600020905b81548152906001019060200180831161049b57829003601f168201915b505050505081526020016003820180546104d190610ea3565b80601f01602080910402602001604051908101604052809291908181526020018280546104fd90610ea3565b801561054a5780601f1061051f5761010080835404028352916020019161054a565b820191906000526020600020905b81548152906001019060200180831161052d57829003601f168201915b50505050508152602001600482015481525050815260200190600101906102e8565b5050505090509695505050505050565b6060600160008373ffffffffffffffffffffffffffffffffffffffff1673ffffffffffffffffffffffffffffffffffffffff168152602001908152602001600020600001805480602002602001604051908101604052809291908181526020016000905b8282101561086457838290600052602060002090600502016040518060a001604052908160008201805461061390610ea3565b80601f016020809104026020016040519081016040528092919081815260200182805461063f90610ea3565b801561068c5780601f106106615761010080835404028352916020019161068c565b820191906000526020600020905b81548152906001019060200180831161066f57829003601f168201915b505050505081526020016001820180546106a590610ea3565b80601f01602080910402602001604051908101604052809291908181526020018280546106d190610ea3565b801561071e5780601f106106f35761010080835404028352916020019161071e565b820191906000526020600020905b81548152906001019060200180831161070157829003601f168201915b5050505050815260200160028201805461073790610ea3565b80601f016020809104026020016040519081016040528092919081815260200182805461076390610ea3565b80156107b05780601f10610785576101008083540402835291602001916107b0565b820191906000526020600020905b81548152906001019060200180831161079357829003601f168201915b505050505081526020016003820180546107c990610ea3565b80601f01602080910402602001604051908101604052809291908181526020018280546107f590610ea3565b80156108425780601f1061081757610100808354040283529160200191610842565b820191906000526020600020905b81548152906001019060200180831161082557829003601f168201915b50505050508152602001600482015481525050815260200190600101906105e0565b505050509050919050565b82805461087b90610ea3565b90600052602060002090601f01602090048101928261089d57600085556108e4565b82601f106108b657805160ff19168380011785556108e4565b828001600101855582156108e4579182015b828111156108e35782518255916020019190600101906108c8565b5b5090506108f191906108f5565b5090565b5b8082111561090e5760008160009055506001016108f6565b5090565b600061092561092084610d8e565b610d69565b90508281526020810184848401111561094157610940610f69565b5b61094c848285610e61565b509392505050565b60008135905061096381610fb2565b92915050565b600082601f83011261097e5761097d610f64565b5b813561098e848260208601610912565b91505092915050565b6000813590506109a681610fc9565b92915050565b6000602082840312156109c2576109c1610f73565b5b60006109d084828501610954565b91505092915050565b60008060008060008060c087890312156109f6576109f5610f73565b5b6000610a0489828a01610954565b965050602087013567ffffffffffffffff811115610a2557610a24610f6e565b5b610a3189828a01610969565b955050604087013567ffffffffffffffff811115610a5257610a51610f6e565b5b610a5e89828a01610969565b945050606087013567ffffffffffffffff811115610a7f57610a7e610f6e565b5b610a8b89828a01610969565b935050608087013567ffffffffffffffff811115610aac57610aab610f6e565b5b610ab889828a01610969565b92505060a0610ac989828a01610997565b9150509295509295509295565b6000610ae28383610bf4565b905092915050565b6000610af582610dcf565b610aff8185610df2565b935083602082028501610b1185610dbf565b8060005b85811015610b4d5784840389528151610b2e8582610ad6565b9450610b3983610de5565b925060208a01995050600181019050610b15565b50829750879550505050505092915050565b6000610b6a82610dda565b610b748185610e03565b9350610b84818560208601610e70565b610b8d81610f78565b840191505092915050565b6000610ba382610dda565b610bad8185610e14565b9350610bbd818560208601610e70565b610bc681610f78565b840191505092915050565b6000610bde601183610e14565b9150610be982610f89565b602082019050919050565b600060a0830160008301518482036000860152610c118282610b5f565b91505060208301518482036020860152610c2b8282610b5f565b91505060408301518482036040860152610c458282610b5f565b91505060608301518482036060860152610c5f8282610b5f565b9150506080830151610c746080860182610c7f565b508091505092915050565b610c8881610e57565b82525050565b610c9781610e57565b82525050565b60006020820190508181036000830152610cb78184610aea565b905092915050565b600060a0820190508181036000830152610cd98188610b98565b90508181036020830152610ced8187610b98565b90508181036040830152610d018186610b98565b90508181036060830152610d158185610b98565b9050610d246080830184610c8e565b9695505050505050565b60006020820190508181036000830152610d4781610bd1565b9050919050565b6000602082019050610d636000830184610c8e565b92915050565b6000610d73610d84565b9050610d7f8282610ed5565b919050565b6000604051905090565b600067ffffffffffffffff821115610da957610da8610f35565b5b610db282610f78565b9050602081019050919050565b6000819050602082019050919050565b600081519050919050565b600081519050919050565b6000602082019050919050565b600082825260208201905092915050565b600082825260208201905092915050565b600082825260208201905092915050565b6000610e3082610e37565b9050919050565b600073ffffffffffffffffffffffffffffffffffffffff82169050919050565b6000819050919050565b82818337600083830152505050565b60005b83811015610e8e578082015181840152602081019050610e73565b83811115610e9d576000848401525b50505050565b60006002820490506001821680610ebb57607f821691505b60208210811415610ecf57610ece610f06565b5b50919050565b610ede82610f78565b810181811067ffffffffffffffff82111715610efd57610efc610f35565b5b80604052505050565b7f4e487b7100000000000000000000000000000000000000000000000000000000600052602260045260246000fd5b7f4e487b7100000000000000000000000000000000000000000000000000000000600052604160045260246000fd5b600080fd5b600080fd5b600080fd5b600080fd5b6000601f19601f8301169050919050565b7f536f6c646520696e737566666973616e74000000000000000000000000000000600082015250565b610fbb81610e25565b8114610fc657600080fd5b50565b610fd281610e57565b8114610fdd57600080fd5b5056fea2646970667358221220681fb2846e7e8a74ad9157ea55e4e706e22eae2828c3edf6c9d2e94892b35f1264736f6c63430008070033",
  "immutableReferences": {},
  "source": "pragma solidity ^0.8.7;\r\n\r\ncontract Purchase {\r\n    struct Ticket {\r\n        string departure;\r\n        string arrival;\r\n        string  travelTime;\r\n        string name;\r\n        uint price;\r\n    }\r\n\r\n    uint price = 1 ether;\r\n\r\n    struct walet {\r\n        Ticket[] ticketList;\r\n    }\r\n\r\n    mapping(address => walet) userTowalet;\r\n        event NewTicket(string departure, string arrival,string travelTime, string name, uint price);\r\n\r\n    function showBalance() public view returns (uint) {\r\n        return address(this).balance;\r\n    }\r\n\r\n    function buyTickets( address _buyer,  string memory _departure ,  string memory _arrival ,string memory _travelTime, string memory _name, uint _price) public payable returns (Ticket[] memory) {\r\n        // require(msg.value == price,\"You mustsend 1 ETH to buy a ticket\");\r\n        require(_buyer.balance >= msg.value, 'Solde insuffisant');\r\n        userTowalet[msg.sender].ticketList.push(Ticket(_departure,_arrival,_travelTime,_name, _price));\r\n        emit NewTicket(_departure,_arrival,_travelTime,_name, _price);\r\n        return userTowalet[msg.sender].ticketList;\r\n    }\r\n\r\n    function showTicket(address _adress) public view returns (Ticket[] memory){\r\n        return userTowalet[_adress].ticketList;\r\n    }\r\n\r\n\r\n}\r\n",
  "sourcePath": "D:\\5Bloc\\Blockchain\\Blockchain\\contracts\\Purchase.sol",
  "compiler": {
    "name": "solc",
    "version": "0.8.7+commit.e28d00a7.Emscripten.clang"
  },
  "schemaVersion": "3.4.11",
  "updatedAt": "2022-12-11T08:48:46.288Z",
  "networkType": "ethereum",
  "devdoc": {
    "kind": "dev",
    "methods": {},
    "version": 1
  },
  "userdoc": {
    "kind": "user",
    "methods": {},
    "version": 1
  }
}