{
  "contractName": "Purchase",
  "abi": [
    {
      "anonymous": false,
      "inputs": [
        {
          "indexed": false,
          "internalType": "string",
          "name": "departure",
          "type": "string"
        },
        {
          "indexed": false,
          "internalType": "string",
          "name": "arrival",
          "type": "string"
        },
        {
          "indexed": false,
          "internalType": "string",
          "name": "name",
          "type": "string"
        },
        {
          "indexed": false,
          "internalType": "uint256",
          "name": "price",
          "type": "uint256"
        }
      ],
      "name": "NewTicket",
      "type": "event"
    },
    {
      "inputs": [],
      "name": "showBalance",
      "outputs": [
        {
          "internalType": "uint256",
          "name": "",
          "type": "uint256"
        }
      ],
      "stateMutability": "view",
      "type": "function",
      "constant": true
    },
    {
      "inputs": [
        {
          "internalType": "string",
          "name": "_departure",
          "type": "string"
        },
        {
          "internalType": "string",
          "name": "_arrival",
          "type": "string"
        },
        {
          "internalType": "string",
          "name": "_name",
          "type": "string"
        },
        {
          "internalType": "uint256",
          "name": "_price",
          "type": "uint256"
        }
      ],
      "name": "buyTickets",
      "outputs": [
        {
          "components": [
            {
              "internalType": "string",
              "name": "departure",
              "type": "string"
            },
            {
              "internalType": "string",
              "name": "arrival",
              "type": "string"
            },
            {
              "internalType": "string",
              "name": "name",
              "type": "string"
            },
            {
              "internalType": "uint256",
              "name": "price",
              "type": "uint256"
            }
          ],
          "internalType": "struct Purchase.Ticket[]",
          "name": "",
          "type": "tuple[]"
        }
      ],
      "stateMutability": "payable",
      "type": "function",
      "payable": true
    },
    {
      "inputs": [
        {
          "internalType": "address",
          "name": "_adress",
          "type": "address"
        }
      ],
      "name": "showTicket",
      "outputs": [
        {
          "components": [
            {
              "internalType": "string",
              "name": "departure",
              "type": "string"
            },
            {
              "internalType": "string",
              "name": "arrival",
              "type": "string"
            },
            {
              "internalType": "string",
              "name": "name",
              "type": "string"
            },
            {
              "internalType": "uint256",
              "name": "price",
              "type": "uint256"
            }
          ],
          "internalType": "struct Purchase.Ticket[]",
          "name": "",
          "type": "tuple[]"
        }
      ],
      "stateMutability": "view",
      "type": "function",
      "constant": true
    }
  ],
  "bytecode": "0x608060405234801561001057600080fd5b50610d90806100206000396000f3fe6080604052600436106100345760003560e01c806381b2d07b14610039578063fa15ab0114610064578063fdd73760146100a1575b600080fd5b34801561004557600080fd5b5061004e6100d1565b60405161005b9190610783565b60405180910390f35b34801561007057600080fd5b5061008b60048036038101906100869190610810565b6100d9565b6040516100989190610a18565b60405180910390f35b6100bb60048036038101906100b69190610b9b565b610339565b6040516100c89190610a18565b60405180910390f35b600047905090565b60606000808373ffffffffffffffffffffffffffffffffffffffff1673ffffffffffffffffffffffffffffffffffffffff168152602001908152602001600020600001805480602002602001604051908101604052809291908181526020016000905b8282101561032e578382906000526020600020906004020160405180608001604052908160008201805461016f90610c85565b80601f016020809104026020016040519081016040528092919081815260200182805461019b90610c85565b80156101e85780601f106101bd576101008083540402835291602001916101e8565b820191906000526020600020905b8154815290600101906020018083116101cb57829003601f168201915b5050505050815260200160018201805461020190610c85565b80601f016020809104026020016040519081016040528092919081815260200182805461022d90610c85565b801561027a5780601f1061024f5761010080835404028352916020019161027a565b820191906000526020600020905b81548152906001019060200180831161025d57829003601f168201915b5050505050815260200160028201805461029390610c85565b80601f01602080910402602001604051908101604052809291908181526020018280546102bf90610c85565b801561030c5780601f106102e15761010080835404028352916020019161030c565b820191906000526020600020905b8154815290600101906020018083116102ef57829003601f168201915b505050505081526020016003820154815250508152602001906001019061013c565b505050509050919050565b60606000803373ffffffffffffffffffffffffffffffffffffffff1673ffffffffffffffffffffffffffffffffffffffff168152602001908152602001600020600001604051806080016040528087815260200186815260200185815260200184815250908060018154018082558091505060019003906000526020600020906004020160009091909190915060008201518160000190805190602001906103e29291906106c7565b5060208201518160010190805190602001906103ff9291906106c7565b50604082015181600201908051906020019061041c9291906106c7565b506060820151816003015550507fc720bdf7896ae20425654978287bf01f053f6b5df7c96dad6bcffba4ceca4daf8585858560405161045e9493929190610d00565b60405180910390a16000803373ffffffffffffffffffffffffffffffffffffffff1673ffffffffffffffffffffffffffffffffffffffff168152602001908152602001600020600001805480602002602001604051908101604052809291908181526020016000905b828210156106b957838290600052602060002090600402016040518060800160405290816000820180546104fa90610c85565b80601f016020809104026020016040519081016040528092919081815260200182805461052690610c85565b80156105735780601f1061054857610100808354040283529160200191610573565b820191906000526020600020905b81548152906001019060200180831161055657829003601f168201915b5050505050815260200160018201805461058c90610c85565b80601f01602080910402602001604051908101604052809291908181526020018280546105b890610c85565b80156106055780601f106105da57610100808354040283529160200191610605565b820191906000526020600020905b8154815290600101906020018083116105e857829003601f168201915b5050505050815260200160028201805461061e90610c85565b80601f016020809104026020016040519081016040528092919081815260200182805461064a90610c85565b80156106975780601f1061066c57610100808354040283529160200191610697565b820191906000526020600020905b81548152906001019060200180831161067a57829003601f168201915b50505050508152602001600382015481525050815260200190600101906104c7565b505050509050949350505050565b8280546106d390610c85565b90600052602060002090601f0160209004810192826106f5576000855561073c565b82601f1061070e57805160ff191683800117855561073c565b8280016001018555821561073c579182015b8281111561073b578251825591602001919060010190610720565b5b509050610749919061074d565b5090565b5b8082111561076657600081600090555060010161074e565b5090565b6000819050919050565b61077d8161076a565b82525050565b60006020820190506107986000830184610774565b92915050565b6000604051905090565b600080fd5b600080fd5b600073ffffffffffffffffffffffffffffffffffffffff82169050919050565b60006107dd826107b2565b9050919050565b6107ed816107d2565b81146107f857600080fd5b50565b60008135905061080a816107e4565b92915050565b600060208284031215610826576108256107a8565b5b6000610834848285016107fb565b91505092915050565b600081519050919050565b600082825260208201905092915050565b6000819050602082019050919050565b600081519050919050565b600082825260208201905092915050565b60005b838110156108a3578082015181840152602081019050610888565b838111156108b2576000848401525b50505050565b6000601f19601f8301169050919050565b60006108d482610869565b6108de8185610874565b93506108ee818560208601610885565b6108f7816108b8565b840191505092915050565b61090b8161076a565b82525050565b6000608083016000830151848203600086015261092e82826108c9565b9150506020830151848203602086015261094882826108c9565b9150506040830151848203604086015261096282826108c9565b91505060608301516109776060860182610902565b508091505092915050565b600061098e8383610911565b905092915050565b6000602082019050919050565b60006109ae8261083d565b6109b88185610848565b9350836020820285016109ca85610859565b8060005b85811015610a0657848403895281516109e78582610982565b94506109f283610996565b925060208a019950506001810190506109ce565b50829750879550505050505092915050565b60006020820190508181036000830152610a3281846109a3565b905092915050565b600080fd5b600080fd5b7f4e487b7100000000000000000000000000000000000000000000000000000000600052604160045260246000fd5b610a7c826108b8565b810181811067ffffffffffffffff82111715610a9b57610a9a610a44565b5b80604052505050565b6000610aae61079e565b9050610aba8282610a73565b919050565b600067ffffffffffffffff821115610ada57610ad9610a44565b5b610ae3826108b8565b9050602081019050919050565b82818337600083830152505050565b6000610b12610b0d84610abf565b610aa4565b905082815260208101848484011115610b2e57610b2d610a3f565b5b610b39848285610af0565b509392505050565b600082601f830112610b5657610b55610a3a565b5b8135610b66848260208601610aff565b91505092915050565b610b788161076a565b8114610b8357600080fd5b50565b600081359050610b9581610b6f565b92915050565b60008060008060808587031215610bb557610bb46107a8565b5b600085013567ffffffffffffffff811115610bd357610bd26107ad565b5b610bdf87828801610b41565b945050602085013567ffffffffffffffff811115610c0057610bff6107ad565b5b610c0c87828801610b41565b935050604085013567ffffffffffffffff811115610c2d57610c2c6107ad565b5b610c3987828801610b41565b9250506060610c4a87828801610b86565b91505092959194509250565b7f4e487b7100000000000000000000000000000000000000000000000000000000600052602260045260246000fd5b60006002820490506001821680610c9d57607f821691505b602082108103610cb057610caf610c56565b5b50919050565b600082825260208201905092915050565b6000610cd282610869565b610cdc8185610cb6565b9350610cec818560208601610885565b610cf5816108b8565b840191505092915050565b60006080820190508181036000830152610d1a8187610cc7565b90508181036020830152610d2e8186610cc7565b90508181036040830152610d428185610cc7565b9050610d516060830184610774565b9594505050505056fea264697066735822122004fef5e885c0ce8e0960e07ce89b2adaeb7a4ecdd03f4c76850f9867aa8df37664736f6c634300080d0033",
  "immutableReferences": {},
  "source": "pragma solidity ^0.8.9;\r\n\r\ncontract Purchase {\r\n    struct Ticket {\r\n        string departure;\r\n        string arrival;\r\n        string name;\r\n        uint price;\r\n    }\r\n\r\n    struct walet {\r\n        Ticket[] ticketList;\r\n    }\r\n\r\n    mapping(address => walet) userTowalet;\r\n        event NewTicket(string departure, string arrival, string name, uint price);\r\n\r\n    function showBalance() public view returns (uint) {\r\n        return address(this).balance;\r\n    }\r\n\r\n    function buyTickets(  string memory _departure ,  string memory _arrival , string memory _name, uint _price) public payable returns (Ticket[] memory) {\r\n        userTowalet[msg.sender].ticketList.push(Ticket(_departure,_arrival,_name, _price));\r\n        emit NewTicket(_departure,_arrival,_name, _price);\r\n        return userTowalet[msg.sender].ticketList;\r\n    }\r\n\r\n    function showTicket(address _adress) public view returns (Ticket[] memory){\r\n        return userTowalet[_adress].ticketList;\r\n    }\r\n\r\n\r\n}\r\n",
  "sourcePath": "C:\\M.ENG.2 20222023\\5BLOC\\PROJET\\AngularTruffleDapp\\Blockchain\\contracts\\Purchase.sol",
  "compiler": {
    "name": "solc",
    "version": "0.8.13+commit.abaa5c0e.Emscripten.clang"
  },
  "schemaVersion": "3.4.11",
  "updatedAt": "2022-12-02T15:16:43.496Z",
  "networkType": "ethereum",
  "devdoc": {
    "kind": "dev",
    "methods": {},
    "version": 1
  },
  "userdoc": {
    "kind": "user",
    "methods": {},
    "version": 1
  }
}